:020000022000DC
:1060000000000120756302005D6302005F6302000F
:106010006163020063630200656302000000000028
:1060200000000000000000000000000067630200A4
:1060300069630200000000006B6302006D630200F0
:106040000D8502006F630200E18602006F630200AB
:106050006F6302006F63020095850200B190020039
:106060006F6302006F6302006F6302006F630200E0
:106070006F6302006F6302006F6302006F630200D0
:106080006F630200717502006F6302006F630200AC
:106090006F6302006F6302000D9D02006F630200D8
:1060A0006F6302006F6302006F6302006F630200A0
:1060B0006F6302006F630200000000000000000038
:1060C0006F6302006F6302006F6302006F63020080
:1060D0006F6302006F6302006F6302000000000044
:1060E00000000000000000000000000000000000B0
:1060F00000000000000000000000000000000000A0
:10610000000000000000000000000000000000008F
:10611000000000000000000000000000000000007F
:10612000000000000000000000000000000000006F
:10613000000000000000000000000000000000005F
:10614000000000000000000000000000000000004F
:10615000000000000000000000000000000000003F
:10616000000000000000000000000000000000002F
:10617000000000000000000000000000000000001F
:10618000000000000000000000000000000000000F
:1061900000000000000000000000000000000000FF
:1061A00000000000000000000000000000000000EF
:1061B00000000000000000000000000000000000DF
:1061C00000000000000000000000000000000000CF
:1061D00000000000000000000000000000000000BF
:1061E00000000000000000000000000000000000AF
:1061F000000000000000000000000000000000009F
:10620000354936480A1A02D0072291438D4634494F
:1062100034480A1A06D00722914381F309880222E2
:1062200082F3148830483149314A00F044F831484B
:106230003149324A00F03FF831483249324A00F0E1
:106240003AF832483249334A00F035F83248334997
:10625000334A00F030F833483349344A00F02BF821
:1062600033483449344A00F026F83448344900228F
:1062700000F02CF833483449002200F027F8334866
:106280003349091A082902DB002202604160314AC1
:1062900090471F481F49884205D00268043003B464
:1062A000904703BCF7E700208646EC46002000211B
:1062B000294A9047FEE7884207D0521A05D0037852
:1062C00001300B700131013AF9D17047884202D098
:1062D00002700130FAE770470000012000E0002062
:1062E000000001200000012090B00200C81800202A
:1062F000B4190020D0630200D0630200F0A20200B3
:1063000090B00200C8180020C8180020C4A30200E2
:10631000C4A30200C4A30200C4A30200C4A30200D9
:10632000C4A30200C4A30200C4A3020090B00200F0
:106330007CB10200B4190020B4190020B419002067
:10634000482400204824002048240020482400201D
:10635000484400209D63020055980200FEE7FEE7D6
:10636000FEE7FEE7FEE7FEE7FEE7FEE7FEE7FEE705
:1063700000F002B8FFF7FCBF0F484FF00701884359
:1063800085460E4880470E48016841F4700101605F
:10639000BFF34F8FBFF36F8FFFF732BF09480A4932
:1063A0000A4A884207D0521A05D0037801300B7090
:1063B0000131013AF9D1704700000120797E0200D5
:1063C00088ED00E0C4A30200C8180020C81800200F
:1063D0007047000007B5044B0093044A402300F0C7
:1063E00032F803B05DF804FBF1630200B519002038
:1063F0002DE9F84388461446B2B10F4B0F4E0325E2
:10640000002743F00109224608EB0701002003F0B2
:1064100061FB0744241A48B933782BB14FF47A4012
:10642000C847013D02D13570BDE8F88301233370C0
:10643000002CE8D1F8E700BFD0A30200B419002077
:10644000704703F077BBF0B595B01D461646084679
:106450000C4601F013FC1A9B0D93CDE9086500254D
:106460002B46082205A920460A958DF82C500C953C
:1064700001F020FC079B0293069B03939DF81430C8
:106480008DF8115003F00302012A1DD1BDF814202C
:10649000059DC3F3C203C2F383168DF81030B2001A
:1064A00008230EA9204601F005FCC5F3952508AB8D
:1064B0000093324602AB0EA9284600F0CBFB2046E3
:1064C00001F0E0FB15B0F0BD022AF8D1BDF816507E
:1064D000C3F3C203C5F389158DF810300827082DC2
:1064E0002E4628BF08263B4632460EA9204601F01C
:1064F000E1FBAD1B08AB02AA31460EA8374400F001
:106500000DFC002DEBD1DAE7014B01221A70704728
:10651000361A00207047000070B50E4D06460FCDAC
:1065200088B06C460FC495E80F00002E84E80F0079
:10653000094A0A484FF0060308BF00226946009343
:1065400001F044FF08B100F049FC054B1E7008B093
:1065500070BD00BFE4A3020009650200C818002056
:10656000F519002007B5044B0093044A4023FFF7B8
:106570006AFF03B05DF804FB81650200F619002094
:1065800038B50D480D4C0E4D002323700378EB5C9D
:10659000D2B263B1043002F031FD08B100F01EFC4C
:1065A000084B1A7812B12378002BFBD038BD0C3081
:1065B00002F0D2FAF1E700BFC8180020361A002016
:1065C00090200020F519002008B50848084A0378F3
:1065D000D35C3BB1043002F075FCBDE808400020FC
:1065E000FFF79ABF0C3002F041FAF6E7C818002016
:1065F000902000200120FFF78FBF000038B50A4D22
:10660000FFF71FFF0421284600F08EFA074B0124F4
:106610005C71FFF7EFFF042105F1100000F084FA30
:10662000034B5C7138BD00BFA4A30200DC1800203E
:10663000E4180020037813F0040216D003F00303DB
:10664000012B03D0022B09D0012070470A68008873
:106650000232C0F3831002440A60F5E70B684288F7
:10666000023303EB92130B60EEE710467047000015
:106670002DE9F04FDFF81CA187B00F460023044638
:10668000861C0DF1070015468DF8073000F002FE5C
:10669000DAF804203A60DAF8083003F580739B1AC0
:1066A0000AF21C470AF583690AF21448B3421AD366
:1066B0000020002D69D004F00F039B0143F0050377
:1066C00063F30F00DAF80430DAB2033233444AF8E5
:1066D00022009DF80700CAF8043000F0FFFD0120F9
:1066E00007B0BDE8F08F0121384600F0F6FF4846BC
:1066F00001F00BF8404601F008F8DAF808000290C3
:10670000C0B203300AEB800002A9FFF793FF029B9F
:1067100030BBDAB20AEB8202D16803919A1C0133D2
:10672000DBB20AEB83030292D3F80CB001F003034F
:10673000012B22D0022B15D08346404600F0E8FF03
:1067400010B1029BCAF808305946384600F0C5FF20
:10675000DAF80830DAF8042003F580739B1AA5E70D
:10676000D8B2CEE7BDF80E30C3F3891303334FEA36
:106770001B4B02EB93030293DFE7BDF80C30C3F32E
:1067800083134FEA1B4B1344F5E7A40544F00600BE
:1067900098E700BF081B0020064B074810B50022F1
:1067A0001A7001F024FA044610B9044801F0CCFA3A
:1067B000204610BD081B002018A3020048A40200B8
:1067C00030B50A4C71B10A4A0A49121BD20800239B
:1067D0009A4201D1002030BD31F82350854202D0C9
:1067E0000133F5E7034654F83300F4E72CA3020025
:1067F000A4A30200C8180020094B013903EBC00014
:10680000032909D8DFE801F00A02040604207047D2
:106810000079704740797047002070470220704728
:106820002CA3020070470000034BD3E90130C31AC8
:1068300058425841704700BF081B00202DE9F04125
:1068400086B0FFF7F1FF0546002840F0ED80774C59
:10685000C4F81804BFF34F8FA3680293DBB203336D
:1068600004EB830002A9FFF7E5FE029B18B1D4F800
:106870001824002A5AD0DAB2991C013304EB8202A0
:10688000DBB204EB8303D268DB68049302F00303FA
:10689000022B0392029154D1BDF80E306448C3F329
:1068A0008917502F3E4628BF502606F1080166F38F
:1068B0008F13C1F30901ADF80E3001F0B0F90546B0
:1068C000002800F09C8001F0D9F90023082203A9D8
:1068D000284601F0E5F90299CB43DBB20133C9B296
:1068E0000331B6EB830F4FEA830204EB810125D914
:1068F0005FFA82F80823A6EB0806284601F0D0F9D3
:10690000F6B208F108034B4903F0FC03324628466F
:1069100001F0C6F9029B033703EB97070297D4F8FF
:106920001834002B43D1D4F8106453E062689A42C3
:1069300094D8A260284606B0BDE8F081082332460C
:10694000E5E7012B5BD1BDF80C303948C3F3831167
:10695000062928BF062161F38913023101F00F01D6
:106960008900ADF80C3001F05AF90546002846D0F0
:1069700001F084F90023082203A9284601F090F9C8
:106980000026BDF80C20C2F38312B300964203F137
:106990000803C4D202994A1CC9B20331029204EB23
:1069A00081010422284601F07BF90136E9E72846F7
:1069B00001F068F9FFF738FF80F00100C5B2B9E7D0
:1069C000F3685B7923B1336829461B6830469847E2
:1069D000F3681E68002EF3D1284601F053F90DF13B
:1069E00007008DF8076000F055FCD4F818340BB997
:1069F000029BA3609DF8070000F070FCDAE7D4F872
:106A0000104454B90C4B0D480D49C01AC00800047D
:106A100040F0020000F05EF8CCE7236820469B6857
:106A20009847E3681C68ECE7002583E7081B002013
:106A300018A30200141B00202CA302005CA3020078
:106A400031A402002DE9F34704460E46924601A9FF
:106A5000012218469946FFF70BFE1C4F10B3019D0B
:106A60004FF00008AA1CC84508EB020125D11848C0
:106A7000002100F00FFE80F31000000440EA1440F3
:106A8000E4006B1C04F03804DBB2EDB244F0010406
:106A900007EB8303033544EA881444EA8624D8606C
:106AA00047F825403B781BB1FFF7C8FE0028FBD113
:106AB000FFF7B8FE02B0BDE8F087C9B207EB81016D
:106AC0005AF82830CB6008F10108CCE7081B0020F9
:106AD000241F002000231A46FFF7B4BF07B5012387
:106AE000019201AAFFF7AEFF03B05DF804FB07B502
:106AF000CDE9002302236A46FFF7A4FF03B05DF847
:106B000004FB7FB5CDE90023089B0293099B039307
:106B10000A9B04930B9B05936A460623FFF792FF9B
:106B200007B05DF804FB000030B50F4CD4F810241A
:106B300003460020114631B9D96808714AB9C4F832
:106B400010340A6030BDC9680D79854206D00968E5
:106B5000F1E7D26814680C601360F3E701300A288B
:106B6000E8D14FF0FF30EDE7081B002038B5084BA7
:106B70000125D3F810441D7004B938BDE3685D7178
:106B8000236820465B689847E3681C68F4E700BF09
:106B9000081B002030B5C38885B004460D4633B1CC
:106BA000144A00921449154A284600F014FE217A2E
:106BB00005291DD0637A4BB1A088FFF71DFE104B4D
:106BC000104953F82020284600F005FE227A0E4B8B
:106BD000A08853F8222003920021FFF7F1FD039AC9
:106BE0000A490346284605B0BDE8304000F0F3BD31
:106BF00005B030BD74A402005CA4020054A40200DD
:106C0000E0A4020079A4020004A502007CA4020012
:106C100007B503460846197A052911D05B7A2BB1CE
:106C2000094A0A49019000F0D6FD019808490190EF
:106C300000F0D1FD019803B05DF804EB00F0C0BD99
:106C4000002AF8D0F2E700BF74A4020079A4020081
:106C500071A402002DE9F04385B01F460C9D00236E
:106C600095F80C902B7306460C46904629463846FC
:106C7000FFF790FFB8F1060F09D8DFE808F004121B
:106C8000181F283340003146284600F0A4FD00229A
:106C900029463846FFF7BCFF85F80C9005B0BDE8E3
:106CA000F08322683146284600F095FDEFE7D4E9ED
:106CB00000233146284600F08EFDE8E7A3680093E4
:106CC0003146D4E90023284600F085FDDFE7E3687C
:106CD0000193A36800933146D4E90023284600F0CD
:106CE0007AFDD4E723690293E3680193A3680093D4
:106CF0003146D4E90023284600F06DFDC7E76369FB
:106D0000039323690293E3680193A36800933146D8
:106D1000D4E90023284600F05EFDB8E708292DE9F4
:106D2000F74F80460E4617461C463DD800251B7B74
:106D30002573214610460193FFF72CFFDFF88CA046
:106D4000DFF88CB0AE4232D918F8052059462046FB
:106D500000F041FD0135082DF4D11B49DFF874A086
:106D6000DFF874B0204600F036FD4FF000094E45C4
:106D700024D918F809507E2D1ED8284603F0B8F9FA
:106D8000002814BF2A462E225946204600F023FD33
:106D900009F10109B9F1080FE9D10122214638466C
:106DA000FFF736FF019B237303B0BDE8F08F514618
:106DB000204600F010FDCDE72E22E5E751462046A3
:106DC00000F009FDE4E700BF90A402008CA40200DB
:106DD00086A402008EA4020092A402001FB5002126
:106DE000039001AA44F20100CDE9011100F004F87A
:106DF00005B05DF804FB000038B572B6FFF7B6FECB
:106E0000FFF71CFD0028FBD1104B114C114D12490E
:106E1000E41AE408240444F00100FFF75BFED5F80F
:106E2000F030DB0700D500BE0C4944F00200FFF74C
:106E300051FEBFF34F8FEA68094B02F4E06213433F
:106E4000EB60BFF34F8F00BFFDE700BF2CA3020034
:106E50005CA3020000ED00E023A502002FA50200C4
:106E60000400FA0510B5D0E90243D1E90202A042BC
:106E700072EB03032CBF0120002010BD08B50A48A7
:106E800000F05FFB094AD2E90031C018084BD3E992
:106E9000002341F10001904271EB030303D210F192
:106EA000807041F1000108BDEC180020C81F0020CF
:106EB0004020002037B505460C460A4801A900F0DD
:106EC00074FB60B10570446001A9064800F097FBAF
:106ED00018B1054800F03AFB002003B030BD042093
:106EE000FBE700BF2C200020EC180020294B73B5D5
:106EF0001E7804461EB90026304602B070BD002838
:106F0000F9D0FFF7BBFFD4E902239042994139D36E
:106F100000230DF107008DF8073000F0BBF923695D
:106F20002BB94FF0FF324FF0FF33C4E902239DF835
:106F3000070000F0D3F9D4E90530984700250DF19A
:106F400007008DF8075000F0A5F92369C3B1D4E913
:106F50000212B2F1FF3F08BFB1F1FF3F05D05B184D
:106F600042F10002C4E9023235469DF8070000F004
:106F7000B5F9002DBFD00848214600F004FFBBE75B
:106F80001D46F2E7B3F1FF3F08BFB2F1FF3FB2D0B9
:106F9000F1E700BFD01F00204CA5020013B5114B34
:106FA00011491868019008231048582200F0EAFAA5
:106FB000044698B90E4A0F4801A900F0B3F90446F7
:106FC00060B90C48012100F09FFA01230A4A0948E0
:106FD000194600F001FA094B01221A70204602B04E
:106FE00010BD00BF46A50200D41F00202C200020A9
:106FF000DD700200EC180020FFFF7F00D01F002092
:1070000030B56AB103684FF0FF344FF0FF355A6175
:107010004A1E5142C3E9024551411961002030BD69
:107020000720FCE7F7B5044600250DF107001746D9
:107030000E468DF8075000F02DF9D4E90223B3F184
:10704000FF3F08BFB2F1FF3F07D1FFF717FF30182E
:1070500041F10001C4E9020101259DF8070000F09B
:107060003DF955B12369A76103B12661214600208E
:1070700003B0BDE8F040FFF71DBF284603B0F0BDE8
:1070800037B5054600240DF107008DF8074000F0E4
:1070900001F9D5E90223B3F1FF3F08BFB2F1FF3F89
:1070A0001FBF4FF0FF324FF0FF33C5E90223012429
:1070B0009DF8070000F012F934B12946012003B011
:1070C000BDE83040FFF7F6BE204603B030BD0000FB
:1070D000014800F036BA00BFEC1800202DE9F74354
:1070E000064600F019FA40B1624AD2E9003113F1C4
:1070F000807341F10001C2E900310021304600F007
:107100001AFA38B15C4C236823B12068FFF7EEFE11
:10711000002323600121304600F00DFA20B1FFF773
:10712000ADFE564BC3E900015548534C01A900F090
:1071300076FA4FF0FF384FF0FF39A0B9DFF84481FD
:107140004D4D404600F035FE002800F08580D0E926
:107150000223B3F1FF3F08BFB2F1FF3F32D14046F7
:1071600000F021FEEDE70378012B20D0022B08D19F
:10717000444D284600F017FE002877D0C0E9028968
:10718000F7E75BB94168D1E90223B3F1FF3F08BFDC
:10719000B2F1FF3F02D03B4800F0F5FD01A93848AD
:1071A00000F068FA01A9364800F039FAC5E74168ED
:1071B0002368994202D100232360EFE7314800F0B1
:1071C000FBFDEBE7296891B12968D1E90201824210
:1071D0008B412FD22B68D3E90223B3F1FF3F08BFC5
:1071E000B2F1FF3F03D02968404600F0CCFD404695
:1071F00000F0D9FDD0E902490746FFF73FFE201A0B
:1072000069EB0109012879F1000318DBB0F5350FAE
:1072100013D3FFF75DFF1C4A02441C484FF496034A
:10722000002100F0F9F890B92B6813B9304600F04E
:10723000CBF82F6003B0BDE8F0832246EDE713489A
:10724000002100F06EF93846FFF750FE01E00D28EE
:10725000F9D000232B6074E7074B1B68002BE9D1A2
:10726000304603B0BDE8F04300F0B2B8084B01224D
:107270001A7093E7C81F00204820002040200020FB
:107280002C2000204CA50200FFFFB400EC180020C9
:10729000D01F002070B5EFF3108672B60C4A9468C8
:1072A00001239CB993600B4B0B4DD3F88010294000
:1072B0001160C3F88050D3F8841051604FF0FF3252
:1072C000C3F88420047006B962B670BD0370FAE793
:1072D0004C20002000E100E0FC06FFBD084B9A684E
:1072E00010B55AB150B9EFF3108172B6054A1C6857
:1072F00014605C685460986001B962B610BD00BF4C
:107300004C20002000E100E0435882B03BB1002354
:10731000435043580193019B012002B07047184627
:10732000FBE70000F8B5204B4479204E43F82420B9
:107330001F4A204B06EBC4049B1A2279DB081B046E
:1073400032B143F002001C49FFF7C4FB0820F8BD2E
:1073500002680C88C2F8084590F904508A780479CC
:107360005201002DD2B219DB14494F1987F80023BE
:1073700001226D0904F01F0402FA04F441F82540CB
:10738000427906EBC201012446F832000C7143F049
:1073900003000B49FFF79EFB0020D8E7094904F0E2
:1073A0000F040A55ECE700BF6020002058200020A1
:1073B0002CA302006CA3020058A5020000E100E02B
:1073C0007AA5020014ED00E0036801221A607047FC
:1073D000036801225A60704773B501F15005AD0092
:1073E0000068ADB24FF480348C400026C0F80843EA
:1073F000C0F84843465101F5A8714559019522F05E
:107400007F42019D40F82120C0F844430BB1C0F8F1
:10741000044302B070BD00002DE9F74F0D4622F085
:107420007F4402684FF4803705F150068F40804654
:10743000B60002EB8500C2F84873B6B2C2F8087312
:10744000D2F8041599464FF0000BD0F84035C0F83B
:10745000401542F806B05B1A9259009223F07F4320
:10746000012B009A4FEA850A0CD1264B4FF480601D
:1074700043F001039847D8F8003043F806B09B5911
:107480000193019BD8F80010D1F80465C1F844734A
:10749000A31B23F07F43012B1CD11A4B05F5A875C4
:1074A000013443F0010341F825404FF480609847D0
:1074B000D8F80030D3F804359E4209D1D8F800300E
:1074C0000020C3F84473C3F8047303B0BDE8F08F21
:1074D0000D20FAE78A44C9F1FF13CAF84045D1F8F4
:1074E0000405221A013A22F07F4203F57F439342BA
:1074F000EED3002AE2D10134CAF84045D1F8043570
:107500009842DAE790A5020003680222C3F84423F8
:1075100009B1C3F80423704700684FF48271FFF784
:10752000F3BE4FF4803303FA01F10368C3F8481344
:10753000C3F80813704750318900006889B2FFF71B
:10754000E3BE0368D3F804057047000090F90430E7
:10755000002B09DB5A09012103F01F0301FA03F391
:107560004032024941F82230704700BF00E100E09C
:10757000024B034A1B681068184700BF60200020B8
:107580005820002010B561B1B2FBF3F403FB1424C2
:10759000A4B244B9C0E9001484608281C38120464A
:1075A00010BD0E20FCE70920FAE737B550E8013F8F
:1075B0009DB2C48925448489A54228BF2D1B048916
:1075C000A54202BFBFF32F8F002207E0C5EA0305E3
:1075D00040E80154002CE9D14FF001028DF803205E
:1075E0000193019A0A609DF8031001F0FF0321B195
:1075F000006810FA82F003B030BD1846FBE70A8835
:107600004B889A4209D150E8012FC2EA024240E871
:107610000123002BF7D1012070470020704737B5B8
:1076200050E8023F1FFAA3F5C488A54202BFBFF38A
:107630002F8F00220DE0C48925448489A54228BFEC
:107640002D1BC3EA054540E80254002CE8D14FF059
:1076500001028DF803200193019A0A609DF803103E
:1076600001F0FF0321B1006800EB124003B030BD10
:107670001846FBE70A884B889A4209D150E8022F46
:10768000C2EA224240E80223002BF7D101207047D2
:107690000020704710B5034653E8000F0A4643E840
:1076A000002494F0000FF7D110BD10B5034653E845
:1076B000002F42EA010043E8000494F0000FF6D1E5
:1076C00010BD10B5034653E8000F00EA010243E87D
:1076D000002494F0000FF6D110BD10B5034653E816
:1076E000002F02EB010043E8000494F0000FF6D1F4
:1076F00010BD10B5034653E8002FA2EB010043E88C
:10770000000494F0000FF6D110BD0121FFF7CDBFAA
:107710000021FFF7D6BF10B590B1D0E90123016871
:107720009B1ADBB20A60013BDBB2FF2B026802D17D
:107730000020107110BD11684C1C14600B70F2E732
:107740000E20F7E737B5054600240DF107008DF848
:107750000740FFF79FFD2A686B68116899420ED9B0
:10776000481E106011F8013CEC68298A01FB0344B3
:10777000AB6811791B1ADBB2994238BF13719DF8BF
:107780000700FFF7ABFD204603B030BD37B5054617
:1077900000230DF107000C468DF80730FFF77AFD46
:1077A0002A681368591C1160E968641A298AB4FBB5
:1077B000F1F41C709DF80700FFF790FD03B030BD99
:1077C000826810B504462AB1436901680069984788
:1077D0000023A36010BD0EB403B5039921B104AB1F
:1077E00001AA019300F076F802B05DF804EB03B053
:1077F00070470A2938B504460D4602D10D21FFF71E
:10780000F8FFA3682268591CA160D554D4E901325D
:107810009A4204D32046BDE83840FFF7D1BF38BDB7
:107820002DE9F84F9846DDE90A43154682460F4692
:107830000A464FF00109AA420FD2C14538BFC146DE
:1078400013F0010B01D16CB900240126B8F1010F2E
:107850001BD908F1FF386E43F8E709F10109B2FBC3
:10786000F5F2E8E79B070ED5B8F1000F0CBF302604
:107870002026A145E9D2013C31465046FFF7B9FF29
:10788000002CF6D1E0E72026F3E7B7FBF6F39D42A4
:10789000E1D9DFF83C80B7FBF6F3504618F8031047
:1078A00006FB1377FFF7A5FF3346AB42B6FBF5F6B1
:1078B000F1D2BBF1000F02D00CB1A14501D3BDE85C
:1078C000F88F20215046013CFFF793FFF4E700BFFB
:1078D00096A502002DE9F74F054617468846002970
:1078E00000F03E8118F8011B49B92B7B002B00F0FA
:1078F0003781284603B0BDE8F04FFFF761BF252967
:1079000040F0B780002698F800302D2B424608F151
:10791000010823D0302B24D02B2B25D000242A2B58
:1079200002F1010123D13B681A1D1B683A601C4417
:107930000A4613782E2B26D101324FF0000A10464A
:1079400010F8011BA1F1300CBCF1090F1DD80A235E
:1079500003FB0A13A3F1300A0246F0E746F00106E2
:10796000D1E746F00206CEE746F00406CBE711F871
:10797000013CA3F130000928DBD80A2202FB0434C1
:10798000303C0A46CBE74FF0000A12F8011B01F029
:10799000FB0068289046F8D0782909D86F290CD8C0
:1079A000632962D022D8252963D0582900F0888025
:1079B00098F80030002B95D197E770390829F7D84F
:1079C00001A353F821F000BF3B7B0200B179020014
:1079D000B1790200D17A0200B1790200AF7A0200D7
:1079E000B1790200B1790200C17A0200642901D0A4
:1079F0006929DDD13A68D2F80090111D89EAE9724F
:107A00003960A2EBE9724FF0010B092A35DCD3454E
:107A100038BFD3462CB1B9F1000F01DB720700D596
:107A2000013CB30702D5BAF1000F03D0F00701D42F
:107A30004CBB0024B9F1000F2DDAC9F100092D214A
:107A40002846FFF7D6FE06F00302022A04D1BAF157
:107A5000000F01D11CBB0024CDE9004653460A2289
:107A600049462846FFF7DCFEA2E73B681A1D197855
:107A70003A602846FFF7BDFE9AE70A230BF1010B97
:107A8000B2FBF3F2C1E7A345D4D220212846013C42
:107A9000FFF7AFFECCE77107D5D52B21D0E7A34583
:107AA000DAD230212846013CFFF7A3FED2E739683D
:107AB000CDE900460A1D3A6053460A220968D0E71C
:107AC00039680A1D3A60CDE9004653461022F5E7B1
:107AD0003B681A1D3A6016F00106D3F8009024D1D5
:107AE000B9F1000F03D0484602F0CEFB0646B4427F
:107AF0001DD809F1FF3919F8011F00293FF458AFCB
:107B00002846FFF776FEF6E728460136FFF771FEB6
:107B100019F806100029F7D1A642BFF449AF202179
:107B20002846013CFFF765FEF6E70026F0E7202136
:107B30002846013CFFF75DFED9E73B681A1D3A6015
:107B4000302128461C68FFF754FE78212846FFF7AD
:107B500050FE00220823CDE900322146102280E7A2
:107B600003B0BDE8F08F00BF2DE9F84FB0F806A0D4
:107B70004579D2F800B09DF828900AFB05F5043D40
:107B800088460BEB0301A94203F1040488BFA5EB6F
:107B9000030BB4FBFAF607460AFB1644C2F800B022
:107BA0004EB9AAEB04055D4528BF5D46BBF1000F49
:107BB00004D1BDE8F88F3F68013EF1E7043408EBDB
:107BC00006003C442A46B9F1000F0DD02146ABEB2C
:107BD000050B02F0DBFADA452E443F6855464FF0BC
:107BE000000428BF5D46E1E701462046EFE7FFF7C6
:107BF00092BDF8B546790146721E054600239342B0
:107C00002D6803D30024A64202D8F8BD0133F6E75D
:107C10000F682846FFF7BAFD01343946F3E72DE92E
:107C2000F843068ACD1C0746FFF78CFD043E354419
:107C30000446B5FBF6F5F0B14FF48073EDB28380E6
:107C4000C680013D076081464FF00008A84512D26A
:107C50003846FFF777FD064648B163790133637113
:107C600008F10108C9F8000007608146EEE72046E8
:107C7000FFF7BFFF34462046BDE8F88301210430FA
:107C8000FFF72BBD10B5012104460430FFF731FD8D
:107C9000C0B220B92046BDE81040FFF7AABF10BD12
:107CA0001FB503920022009203AAFFF75DFF05B003
:107CB0005DF804FB1FB503920122009203AAFFF7AF
:107CC00053FF05B05DF804FB41DF7047064B10B56C
:107CD00000241C70054B1C60BFF35F8F04490548EE
:107CE00000F03BF8204610BD6C20002070200020E2
:107CF000B0A502006420002007B500230DF10700A5
:107D00008DF80730FFF7C6FAF1EE103A23F09F0323
:107D1000E1EE103ABFF35F8F0A4B4022C3F8842193
:107D20009DF80700FFF7DAFA01F0D6FF20B103B0A3
:107D30005DF804EBFFF7C8BF20BF40BF20BF03B012
:107D40005DF804FB00E100E0836800225A60C3E9AB
:107D500004229A60DA601A6070470B684A684360D0
:107D6000934208BF0023016008BF43607047436827
:107D700043B10268916852680B449342436004BF68
:107D800000234360704770B5446806460D4620687E
:107D900018B1B3682946984718B923682B60256045
:107DA00070BD2468F3E74368186808B102681A6078
:107DB00070474368186870474368186800B970478F
:107DC000884203D102681A600120704703460068A8
:107DD000F4E7000010B50D49A1F59472914201D865
:107DE00000200FE08C1AE30F03EBE4035B1002EBBF
:107DF000C30452F83330834205D802D204F108029A
:107E0000ECE7606810BD2146E8E700BFBCAA0200AD
:107E100008B5FFF7DFFF024B002808BF184608BD72
:107E20007FA902004FF08053D3F83001421C04BFF9
:107E30004FF0704393F8E00F831F5842584170474A
:107E40004FF0704393F8E02F062A09D1D3F8E83FAA
:107E5000C3F30313033B042B02D8024AD05C7047E0
:107E600000207047CBAA0200024AD2F80034002B4F
:107E7000FBD0704700E0014010B5FFF7D3FF40B1E1
:107E80004FF08053944AD3F82433C3F30423C2F849
:107E90004035FFF7D5FF10B1904B914A5A67FFF775
:107EA000C1FF48B14FF080534FF08042D3F84432C5
:107EB000C3F34233C2F83C35FFF7C2FF30B1894A01
:107EC000D2F8FC3023F08073C2F8FC30FFF7AAFF31
:107ED00040B14FF080430022C3F80C21C3F81021B9
:107EE000C3F83825FFF7ACFF20B14FF080430322E1
:107EF000C3F8A025FFF7A4FF60B17B4B0522C3F8B0
:107F000010260122C3F888260022C3F818263F2233
:107F1000C3F814264FF08053D3F83021511C09BF09
:107F20004FF07043D3F8343193F8E02FD3F8E83FA3
:107F300008BFC3F30313062A4DD1033B042B03D818
:107F40006A4AD35C002B46D04FF08052684BD2F87F
:107F50000414C3F82015D2F80814C3F82415D2F875
:107F60000C14C3F82815D2F81014C3F82C15D2F845
:107F70001414C3F83015D2F81814C3F83415D2F815
:107F80001C14C3F84015D2F82014C3F84415D2F8D5
:107F90002414C3F84815D2F82814C3F84C15D2F8A5
:107FA0002C14C3F85015D2F83014C3F85415D2F875
:107FB0003414C3F86015D2F83814C3F86415D2F835
:107FC0003C14C3F86815D2F84014C3F86C15D2F805
:107FD0004424C3F87025FFF725FF48B14FF08053C4
:107FE0004FF08042D3F8583203F04F03C2F8E43E1A
:107FF000FFF718FF48B14FF08043D3F80024D207B1
:1080000044BF6FF00102C3F800244FF08053D3F84F
:108010003021062A0ED1D3F83431033B042B02D889
:10802000344AD35C33B1344AD2F83C3743F48063EA
:10803000C2F83C372B4AD2F8883043F47003C2F8B8
:108040008830BFF34F8FBFF36F8F4FF08053D3F85B
:108050003021062A0FD1D3F83431033B042B02D848
:10806000264AD35C3BB14FF01023D3F808224FF0DF
:108070008043C3F858254FF01023D3F80022002A7C
:1080800003DBD3F80432002B22DA1D4901234FF021
:108090001020C1F804351524FFF7E6FEC0F80042B1
:1080A000FFF7E2FEC0F80442FFF7DEFE0023C1F84E
:1080B0000435FFF7D9FEBFF34F8F0A49114BCA6849
:1080C00002F4E0621343CB60BFF34F8F00BFFDE7C4
:1080D0000D4B0E4A1A6010BD0030014000C0074031
:1080E0000DF0ADBA00ED00E000500040BCAA020067
:1080F00000C00040C1AA020000100040C6AA020051
:1081000000E001400400FA05F41800200090D003BC
:10811000054A4FF0A043105CD3F8043523FA00F071
:10812000C04300F001007047D0AA0200044B1A5C63
:10813000012393404FF0A042C2F80C35704700BFB6
:10814000D0AA0200044B1A5C012393404FF0A042D6
:10815000C2F80835704700BFD0AA020008B5002059
:10816000FFF7F0FF0120FFF7EDFF0220FFF7EAFF26
:10817000BDE808400320FFF7E5BF08B50020FFF782
:10818000D5FF0120FFF7D2FF0220FFF7CFFFBDE8A8
:1081900008400320FFF7CABF074A4FF0A041105C18
:1081A000D1F804350122824022EA03001340C1F8CD
:1081B0000805C1F80C357047D0AA020038B5074C45
:1081C000051E04F1080318BF1C4623682BB11A686A
:1081D00022605B6828469847F7E738BD7C2000207E
:1081E00020B9054B01225A70FFF7E8BF012802D1E0
:1081F000014A9070F8E770477420002020B9034BC3
:1082000001225A70FFF7DABF704700BF74200020C8
:1082100038B50E4C2378B3B90D486360A360236171
:10822000E36000F01BF9054601F056FD08B900F0C7
:1082300021F901232370074BD3F800340BB101233C
:10824000A370284638BD8525F5E700BF74200020BF
:10825000E18102000000014037B5184CA3780546C3
:1082600003F0FF029BB110B143680120984700233F
:108270000DF107008DF80730FFF70CF8E3689DF863
:1082800007000133E360FFF729F803B030BD0DF1BB
:1082900007008DF80720FEF7FDFF25B12269134680
:1082A0003BB92A602561E368002BE7D100F0F4F8C0
:1082B000E4E79D42F7D01B68F2E700BF742000207E
:1082C00037B50D4C00230DF107008DF80730FEF790
:1082D000E1FFE368013BE360E36833B9074BD3F8A0
:1082E000005415B900F000F9A5709DF80700FEF7DD
:1082F000F5FF03B030BD00BF742000200000014036
:10830000012813B50CD0032820D038B9134B012213
:10831000C3F88020BFF34F8FBFF36F8F02B010BD43
:108320000F4C00230DF107008DF80730FEF7B2FF68
:1083300023780BB9FFF76CFFE3689DF80700013362
:10834000E3600123A370FEF7C9FFE7E700F092F8AE
:1083500002B0BDE81040FFF7B3BF00BF00E100E08E
:10836000742000201FB503788DF800304368019316
:1083700083688DF80830C368054A0393054B684647
:1083800053F8213052F82110984705B05DF804FBEE
:10839000882000208C2000201FB503788DF8003045
:1083A0004368019383688DF80830C368054A0393D6
:1083B000054B684653F8213052F82110984705B014
:1083C0005DF804FB882000208C200020F0B5194BBC
:1083D00090F800C091F81DE043F82C20164B16468B
:1083E0000A6943F82C20154B03F80CE00C460746AD
:1083F0000FCC89B06D460FC594E80F0085E80F00DB
:10840000CDF810C0BEF1000F09D0002E0C4A69460D
:1084100008BF3246381D00F093FC09B0F0BD002EB5
:10842000084A694608BF324607F10C0000F06AFAB4
:10843000F3E700BF8C20002088200020902000203F
:10844000658302009983020000F18040002382B01E
:10845000036003680193019B02B07047044A1379DB
:1084600023B901211060918018467047852070471C
:1084700094200020074B1A68D20704D4C02283F846
:10848000002301221A604FF080430122C3F818250F
:10849000704700BF00E100E038B54FF48270FFF78D
:1084A000D3FF4FF080430222C3F804230C4AD2F8D2
:1084B000FC0040F08073C2F8FC300A4B1C6844F0AA
:1084C000010119605D685968491BB1F50A5FFAD36B
:1084D0001C604FF08043C2F8FC0001229A6038BD56
:1084E00000ED00E0001000E04FF0804208B50223EC
:1084F000C2F808334FF48270FFF7A6FF0123D36060
:10850000D2F81834DB03FBD408BD00004FF08041E3
:1085100010B5D1F8003163B14FF48070FFF794FFCC
:108520000D4B58790122C1F8082310B95A711B6804
:1085300098474FF08042D2F8043163B14FF4827013
:10854000FFF782FF0223C2F80833034BBDE8104057
:108550001B680120184710BD9420002000F18040C6
:1085600000F5C040002382B0036003680193019BC3
:1085700002B07047800000F1A040D0F8002722F43C
:108580004032C0F80027D0F8003743EA0141C0F874
:10859000001770472DE9F74F00244E4D01944FF41A
:1085A0008072012102F1804303F5C04390B21B6841
:1085B000012B06D1D5F804330B4202D0FFF7CEFFD2
:1085C0000C430432B2F5907F4FEA4101EAD1414BAE
:1085D000D3F87C31012B0CD14FF4BE70FFF7BEFFF6
:1085E0004FF0A04344F00044D3F820250192C3F893
:1085F0002025E3B2D3B1384F00250126344210D0F4
:10860000AB0003F1804303F5C043D3F81005D3F862
:10861000101557F8253023B1C1F30141C0F30420F0
:1086200098470135082D4FEA4606E7D1002C48DA75
:10863000294D4FF0A048294E4FF00009012716F9A7
:10864000013B5A1C31D0C3F3C20208326A44DCB287
:1086500012F8042C03F03F0A03F0070307FA03F3B0
:108660001A4222D00AF5E073504658F82330C3F37B
:10867000014BBBF1020F0CBF03210221FFF77AFF70
:1086800007FA0AF3C8F8203505EB0A0393F93030EE
:1086900055F823304BB1A109032904D0BBF1020FD7
:1086A00012D1012901D15046984709F10109B9F1C8
:1086B000040FC4D1D8F820350193C8F82035002B19
:1086C000B9D103B0BDE8F08FBBF1030FEDD10229A2
:1086D000E8E700BF006000409C200020EC20002064
:1086E000014B1B68184700BFF82000200E4B984232
:1086F00037B50C4602D0002003B030BD00230DF189
:1087000007008DF80730FEF7C5FD084B1D7915B938
:1087100001221C601A719DF80700FEF7DFFD002D95
:10872000E9D01120E8E700BF00200040F820002039
:10873000034B984201BF034B00221A601A71704725
:1087400000200040F82000200023435082B043580E
:108750000193019B02B070470A4610B54FF48E7129
:10876000FFF7F2FF136A9168C95C136A0133136261
:10877000C0F81C1510BD8B690A4610B54FF4847102
:1087800023B9FFF7E1FFD0F8183510BDFFF7DCFF84
:10879000536AD168D0F81805C854536A013353623C
:1087A000F3E700001FB501238DF80030044BCDE93D
:1087B0000110D3E900126846904705B05DF804FB4C
:1087C0000021002030B54D4DD5F804339A0585B011
:1087D00051D5D5F82431002B4DD04FF49271284655
:1087E000FFF7B2FF4FF40173C5F80833444B93F819
:1087F00029200AB901226A60404902228DF800202E
:10880000D1F88024C1F8802403929A690292DA6830
:1088100001920022C3E906226846D3E9001290477C
:108820003648D0F81C315BB1354A5169136A994218
:108830004DD992F82830002B49D11146FFF78CFF13
:108840002E48D0F84431002B56D04FF4A271FFF7D8
:108850007BFF2B4B93F829200AB1012202609A6911
:10886000002A49D0586AD96800229A6105B0BDE84B
:108870003040FFF797BFD5F804335B07D0D5D5F864
:108880000831002BCCD01E4C1C482146FFF773FF4B
:10889000636AA2699A42C3D1E369E1684BB1A361FB
:1088A0002369E3600023606AE3616362FFF77AFF94
:1088B000B6E794F829300BB901236B600F4B4FF4E6
:1088C0000172C3F808230023606AA361EEE70B4836
:1088D0004FF48E71FFF738FF5369002BB0D0516908
:1088E0000291002391688DF8003001915361684630
:1088F000D2E900139847A3E705B030BD002000403F
:10890000002100202DE9F843534D90F804802C23DA
:1089100003FB0853064693F82A300C469146002B79
:1089200040F096804D490068FFF7E0FE07460028BA
:1089300040F0908022683068511C0BD04FF0A0416D
:1089400001239340C1F8083502F5E0734FF0030CA2
:1089500041F823C061684B1C1FBF01F5E0734FF065
:10896000A04C4FF0000E4CF823E0A369C0F824356A
:1089700094F814C0637DBCF1010F4CEA0303C0F806
:108980006C35C0F81415C0F80C251DD1A268531C15
:108990001FBF02F5E0734FF0A0414FF0000C41F80B
:1089A00023C0E368591C0BD04FF0A04C0121994023
:1089B000CCF8081503F5E0714FF0030E4CF821E0F8
:1089C000C0F80835C0F810252C2202FB08F2AB18BD
:1089D000C3F804902369AB50B9F1000F20D04FF4D5
:1089E0008E71247FFFF7B0FE4FF4A2713068FFF75D
:1089F000ABFE32681A4BC2F80433130B42F3073252
:108A00006101002AC9B21EDB1648841884F80013DD
:108A10000121520903F01F0301FA03F340F8223049
:108A200033680422C3F800252C2303FB08530022DB
:108A3000C3E9062283F829205A61012283F82A20FB
:108A40003846BDE8F883084A03F00F03D154E7E73E
:108A50000827F5E71127F3E700210020C58702006A
:108A60008000020000E100E014ED00E0F8B50368CA
:108A70000579304C0022C3F800252C2202FB054268
:108A80005268A2B12C4AC3F808231A0B43F30733E8
:108A9000002B0CDB02F01F015B0901228A4020330E
:108AA000264941F82320BFF34F8FBFF36F8F006833
:108AB000D0F80C65D0F81415D0F80835D0F810258A
:108AC0004FF0FF37BE42C0F8147518BF06F5E076C8
:108AD000C0F80C75C0F80875C0F810751EBF4FF0CF
:108AE000A0474FF0020C47F826C04E1C1FBF4FF0A6
:108AF000A04601F5E071022746F82170511C1FBF06
:108B00004FF0A04102F5E072022641F822605A1CA3
:108B10001FBF03F5E0734FF0A042022142F823107B
:108B2000FFF706FE2C2303FB0544002384F82A30BC
:108B30006360F8BD002100208402020000E100E033
:108B40000279044B2C2101FB02335869003818BF0D
:108B500001207047002100202DE9F84F064690F8CB
:108B6000048089469246FFF7EBFF044600283CD17B
:108B7000204F2C2508FB057B4FF48E71CBF814A0F9
:108B8000CBF80890CBF820008BF828003068FFF76E
:108B9000DBFD3068012383605946FFF7DDFDDBF81C
:108BA00004305D461BBB3068DBF814402B6A9C42E6
:108BB00011D83368D3F81C21002AFBD00122DA60D7
:108BC00000202C2303FB087700237B61BDE8F88F8E
:108BD00095F828303BB9D0F81C31002BF8D0594615
:108BE000FFF7BAFDE2E70F20EBE71120EEE72046A2
:108BF000ECE700BF002100200023435082B043581F
:108C00000193019B02B070471FB501238DF800301E
:108C1000044BCDE90110D3E900126846904705B036
:108C20005DF804FB2C2100207FB5434AD2F8246173
:108C3000002E60D010464FF49271FFF7DDFF022343
:108C40008DF80030D2F88034C2F880340393D2F823
:108C50003C350293394BDA6801920022C3E90622BF
:108C60006846D3E9001290473348D0F8443173B1D5
:108C70004FF4A271FFF7C0FF304B9A693AB100225E
:108C8000C3E90622D968D0F83C05FFF7BDFF2A48A2
:108C9000D0F82031ABB14FF49071FFF7ADFF012355
:108CA000C360264B5A6962B1D0F84C15029100227C
:108CB00099688DF8002001915A616846D3E9001245
:108CC00090471D48D0F858319BB14FF4AC71FFF775
:108CD00093FF1A4B5A6962B1D0F84C1502910022E9
:108CE00099688DF8002001915A616846D3E9001215
:108CF000904704B070BDD2F81031002BB4D04FF4BF
:108D000088711046FFF778FF0C4BD2F83C05996943
:108D10008842A9D1DC69D96864B1D2F8005225F043
:108D20002005C2F800521A699C61DA60DE61FFF723
:108D30006BFF99E79C61FAE7002000402C2100209E
:108D40002DE9F8435A4E90F80480242303FB08636E
:108D5000044693F820300D469146002B40F0A38046
:108D600054490068FFF7C2FC0746002840F09D8088
:108D70002A682068511C0BD04FF0A041012393407A
:108D8000C1F8083502F5E0734FF0030C41F823C039
:108D900069684B1C1FBF01F5E0734FF0A04C4FF00A
:108DA000000E4CF823E0AB69C0F8243595F814C0E8
:108DB0006B7DBCF1010F4CEA0303C0F86C35C0F8C1
:108DC0000C25C0F814151DD1AA68531C1FBF02F54D
:108DD000E0734FF0A0414FF0000C41F823C0EB6866
:108DE000591C0BD04FF0A04C01219940CCF808152C
:108DF00003F5E0714FF0030E4CF821E0C0F80835A0
:108E0000C0F81025242202FB08F2B318C3F804901E
:108E10002B69B350B9F1000F2FD04FF488712A7F1E
:108E2000FFF7EAFE20684FF49071FFF7E5FE206837
:108E30004FF49271FFF7E0FE20684FF4A271FFF744
:108E4000DBFE4FF4AC712068FFF7D6FE23681A49A9
:108E5000C3F80413190B43F307335201002BD2B2AA
:108E60001CDB1648C51885F8002301225B0901F0B8
:108E70001F0102FA01F140F8231023680822C3F809
:108E80000025242303FB08660023C6E9063373612B
:108E9000012386F820303846BDE8F883084B01F0FE
:108EA0000F015A54E9E70827F5E71127F3E700BF58
:108EB0002C210020298C02001003420000E100E078
:108EC00014ED00E0F8B5444C0579242303FB054379
:108ED00002465B680068ABB1404BC0F8083340F312
:108EE0000733002B4FEA10310CDB01F01F065B0942
:108EF0000121B14020333A4E46F82310BFF34F8F83
:108F0000BFF36F8FD0F8003223F02003C0F8003297
:108F1000242303FB05439B692BB14FF4A271FFF798
:108F20006BFE012343604FF4AC71FFF765FE012334
:108F3000C360242303FB0543D0F858110029FBD05C
:108F4000996919B1D0F844110029F5D00023C0F86F
:108F500000351368D3F80C75D3F81465D3F80825D9
:108F6000D3F810154FF0FF3C6745C3F80CC518BF88
:108F700007F5E077C3F814C5C3F808C5C3F810C5F2
:108F80001EBF4FF0A0434FF0020C43F827C0771CE0
:108F90001FBF4FF0A04306F5E076022743F8267086
:108FA0004E1C1FBF01F5E0714FF0A043022643F8AD
:108FB0002160531C1FBF4FF0A04302F5E072022155
:108FC00043F82210FFF7B4FB242303FB05440023DE
:108FD00084F820306360F8BD2C210020100342008B
:108FE00000E100E00279044B242101FB02335869BF
:108FF000003818BF012070472C21002001F0604389
:10900000B3F1005F2DE9F0470646884692463BD112
:1090100090F80490FFF7E6FF0446002836D11D4F74
:109020003068242505FB09754FF49071C5F814A02C
:10903000C5F80880FFF7E0FD4FF4AC713068FFF72A
:10904000DBFD33686A69A968C3F84415C3F848258D
:1090500001229A606A68DAB9D3F82021D3F858015E
:109060001AB90028F8D00F2007E00028FBD1012210
:10907000DA60D3F85821002AFBD0242303FB0977B8
:1090800000237B61BDE8F0871020FBE71120F9E7A2
:109090002046F7E72C21002000F1804000F5E04059
:1090A000002382B0036003680193019B02B0704704
:1090B000F0B5524B524CD3F8043185B0002B3DD063
:1090C00094F82E204FF48270FFF7E6FF2AB394F84D
:1090D0002F3013BB494AD2F80031002B32D04FF465
:1090E0008070FFF7D9FF638B94F82D00834250D92D
:1090F00021891B1A9BB289B26383CB1A616801EB89
:109100004303C2F82C36C2F830064FF48270FFF7E2
:10911000C3FF3A4B01225A6014E06368029323892B
:10912000ADF80C30E36800218DF8041033BB2374D4
:10913000236801A89847002384F82F3094F82E3034
:10914000002BC7D12D4BD3F810315BB14FF4887091
:10915000FFF7A2FF0023237402238DF8043001A837
:1091600023689847254BD3F81431EBB14FF48A703C
:10917000FFF792FF0023237405B0F0BD208B6083BE
:1091800063602081E160002AD2D11C4B01221A6069
:10919000CEE7BAD1E368012184F82F1013B1002182
:1091A0006183AEE76383B0E766694FF0004701254E
:1091B000002EE1D0B6FA86F227FA02F34632920088
:1091C00026EA030602F1804303F5E0431B68002B07
:1091D000EED01046A2F58C72FFF75EFFD30882F046
:1091E0000402C2F380028DF808308DF80450236821
:1091F0008DF8092001A89847DAE700BF0070004009
:109200005021002038B5204A92F82C300446002B1B
:1092100037D111601D490078C1F8F0056078C1F8B8
:10922000F4050125E078137482F82D30536182F83B
:109230002F306FF0004382F82E0082F82C504FF44C
:109240008270C1F80833FFF727FF4FF48070FFF7F3
:1092500023FF4FF48A70FFF71FFFA3780C485B01D0
:10926000DBB280F80733802303600223C1F80433A4
:1092700092F82E300BB1C1F80453C1F8005500200C
:1092800038BD0820FCE700BF5021002000700040DE
:1092900000E100E070B52A4B1A7C02F0FF05002ABD
:1092A0004BD10A79012A9CBF264CC4F8005500F125
:1092B0000C0503EB4504247924B993F82D400134BF
:1092C00083F82D4003EB4503CC790D7A8E781C7121
:1092D0005D714B7836021B0106F4E06603F0300343
:1092E00033430E7806F003063343CE78360306F494
:1092F00080563343160406F4E02633434E798979C9
:10930000360506F480160906334301F080710B43DD
:109310000C4901EB0016000100F1804000F5E0402F
:10932000012AC6F81835C0F81455C0F8104502D8FF
:109330000123C1F80035002000E0112070BD00BFFE
:10934000502100200070004070B5264A264B05468B
:109350001220C2F808031C7C022C03D1C2F80403BB
:10936000112070BD187C01281CD1D86818B10223C7
:10937000C2F80433F4E7DD60198393F82E305BB94B
:10938000D2F80031002BFBD04FF48070FFF784FE41
:10939000C2F82C56C2F83016124B0222C3F804232E
:1093A0000020DEE7022093F82E40C2F804030126D5
:1093B00000201E745D601981D8603CB1598393F818
:1093C0002D30C2F82C56C2F83036CAE7C2F82C56F7
:1093D0004FF48070C2F83016FFF75EFE166020462C
:1093E000BFE700BF007000405021002008B5094BC6
:1093F0001B7853B10020FEF7A5FE0120FEF7A2FE68
:10940000BDE808400320FEF79DBEBDE80840FEF71A
:10941000A5BE00BF80210020F8B57A4C2378054610
:109420001BB100232370FFF7E1FF172D00F28780A7
:10943000DFE805F00C1717425364757F878C878C23
:10944000949999999999C3C8D0D8E3E3FFF7CEFFCF
:109450006D48FDF715FE6D4B002204461A7020463C
:10946000F8BD0020FEF754FEF0B10020FEF76AFEC2
:10947000022D0CBF4FF4E1644FF47A64634B1D700E
:1094800000254FF400464FF47A7029464FF4FA62F3
:109490000023E4FB060100F075FD2A460146BDE805
:1094A000F8405948FDF7BEBDFEF740FE022D0CBF47
:1094B000C8244FF4C874E1E70020FEF729FE40B14C
:1094C0000020FEF73FFE4FF44874504B03221A7001
:1094D000D6E7FEF72BFEC824F7E70020FEF718FEBC
:1094E00038B10020FEF72EFE4FF47A64474B042279
:1094F000EDE7FEF71BFE4FF4C874F7E70020FEF718
:1095000007FE48B10020FEF71DFE404B05221A70F1
:1095100040F6CD410022C2E7FEF708FEF5E7002045
:10952000FEF73AFE394B06221A70002240F26661BD
:10953000B5E70020FEF7FAFD344B07221A7000242D
:109540008DE701202070FEF727FEEEE70120207056
:10955000FEF722FE00224FF40051A0E7FEF70DFEB9
:109560002A4B0C22EAE72A482A4EFDF789FDD5F15D
:10957000110504461CD0D8B9012D13D0C82045438D
:1095800021464FF400474FF47A704FF4FA620023FB
:10959000C5FB070100F0F6FC224601461C48FDF71A
:1095A00041FD04460220FEF7C1FD0123337056E75A
:1095B0000220FEF7C7FD0023F8E7FFF717FF134B64
:1095C0001222BBE7FFF712FF0020FEF7AFFD0F4BA3
:1095D0001322B3E7FFF70AFF0120FEF7A7FD0B4BAD
:1095E0001422ABE7FFF702FF0020FEF79FFD0120EA
:1095F000FEF79CFD054B1522A0E7FEF7BEFD034BD1
:109600001D709CE788210020181900208921002066
:10961000F818002080210020044B1B6813F0010380
:1096200001D0FFF7F9BE1846704700BF8421002023
:109630006CDF704772DF704773DF704743DF70473E
:10964000704700002DE9FF41254B264C00221A707F
:10965000254B0FCB6E4686E80F00244B2449E41AB5
:10966000E408240444F005042046FDF733FAFDF72E
:10967000E5F80028FBD11F4FDFF88880054617F872
:10968000012B41462046FDF729FAFDF7D7F80028BF
:10969000FBD101351F2DF2D117492046FDF71AFAEB
:1096A000FDF7CCF801460028FAD1144B18221846D1
:1096B00000F095FD052202704FF4486282604FF47D
:1096C0007A72828101224275314602460C48FFF7C8
:1096D000B1FF08B1FDF782FB04B0BDE8F08100BF27
:1096E000B82100205CA302008CAB02002CA3020076
:1096F000FCAA02005919002072A402008C2100204B
:109700005819002020AB020008B5084B0121187839
:10971000FFF792FF08B1FDF761FB0220FFF77CFF26
:1097200018B1BDE80840FDF759BB08BD5819002025
:1097300008B5037A012B0AD1054800224FF4A03165
:10974000FDF770FC18B1BDE80840FDF747BB08BD48
:109750003819002010B5037804462BBB406805215A
:10976000FFF7F2FD08B1FDF739FB61680022881EA2
:1097700040F6E444083130F8023F13FB04F39B1237
:10978000002BC8BF1A468142F5D10848084B094949
:10979000C01AC008000492B240F00500FDF79EF91F
:1097A000FDF74CF80028FBD110BD00BF5CA3020000
:1097B0002CA3020026AB020007B50368CDF80130E8
:1097C0008388ADF805309DF8003068466FF3470395
:1097D0008DF80030FFF72CFF08B1FDF7FFFA03B05A
:1097E0005DF804FB1FB50D4B0D4C0E49E41A0378D0
:1097F00003934378029383780193C3780093E4083A
:1098000024040379427944F00500FDF77AF9FDF765
:1098100015F80028FBD104B010BD00BF2CA3020036
:109820005CA3020038AB020010B5084A831D00F1AA
:109830001A0153F8044B42F8044B8B42F9D11B88B0
:1098400013800378024A9B09537710BD60190020EA
:10985000591900201FB500F08DF8FDF79FFB08B1E6
:10986000FDF7BCFAFEF7D4FC08B1FDF7B7FA00200B
:10987000FEF7F2FCFFF7E2FE344A10695169127EEE
:1098800001AB03C3324933481A70FFF7BBFC08B180
:10989000FDF7A4FA01A90020FFF7FCFC08B1FDF7D1
:1098A0009DFA2D480521FFF74FFD08B1FDF796FA07
:1098B000FEF70CFA08B1FDF791FA00F00DFA08B1C5
:1098C00000F0DAF900F09AF908B1FDF787FA002301
:1098D00001A90120019300F04DFA08B1FDF77EFACD
:1098E00001A800F0E1FA08B1FDF778FA694601AA8B
:1098F0001A4800F05FF80098FFF75EFF0098FFF746
:1099000071FF1648FFF790FFFFF79CFE1448154BB8
:109910001549C01AC008000440F00500FDF7DAF848
:10992000FCF78CFF04460028FAD1FFF7EDFE0F4A42
:109930000F482146FDF764FB08B1FDF74FFAFCF72D
:109940007DFF0028FBD1FEF7D7F9F8E78CAB0200CA
:1099500055970200ACAB0200A4210020781900202A
:109960005CA302002CA302006BAB02004196020034
:10997000A8AB020008B54FF480410020FCF70CFFB3
:1099800008B1FDF72BFABDE80840FCF737BE000030
:109990000278074B62F03F025A7142781A7182785E
:1099A000DA70C2789A7002795A7042791A707047E8
:1099B0009419002010B5FFF7EBFF06200C4600F0CD
:1099C0009FFB044A206003461068928818609A80C2
:1099D00010BD00BF941900200369C26893429CBF68
:1099E00080681B18013B981A70472DE9F843D0E9AD
:1099F00002940546A9EB04084068904520440F46B0
:109A0000144404D900F0C2FBEC60BDE8F883424680
:109A1000A4EB090400F0BAFB6868224607EB0801D2
:109A2000F0E72DE9F843C5680646894617464FF02A
:109A300000083469B3687068A54228BFE418013C87
:109A4000621B5C1BBC4228BF3C46944228BF1446A4
:109A500049462844224600F099FBB3682544AB42AE
:109A600008BF00253F1BA044A144F560E1D140465A
:109A7000BDE8F88310B5114C114AA2610223C4E974
:109A80000433104BE361A2644FF400730E4A0F4994
:109A90002362E26400231022E01DA3626362E3629A
:109AA000A3656365E365226500F0CCFB08492046A9
:109AB00000F0C8FB2023A37110BD00BFBC21002013
:109AC000B0AB02004422002034220020B9AB0200D7
:109AD000BDAB020070B5164B182400FB04451D44B5
:109AE00004FB00331646DC6A012C0ED0022C18D081
:109AF000E4B92846FFF770FF864204D8324628466C
:109B0000FFF773FF3446204670BD2846FFF764FF19
:109B10008642344628BF044622462846FFF765FFA2
:109B2000F1E72846BDE87040FFF77BBF0024EAE775
:109B3000BC210020FFF79EBF10DF704711DF704788
:109B400013B5044609496846FEF707F9019808B9B4
:109B500002B010BDD0E900212046904718B16846F8
:109B6000FEF705F9F2E71120F2E700BFD0AB0200E3
:109B700013B5044607496846FEF7EFF8019B0BB999
:109B800002B010BD2046D3E9002190476846FEF799
:109B9000EEF8F3E7E8AB0200084B9A6822B11A68C6
:109BA00022F480021A607047054B4FF48002C3F81C
:109BB0008020BFF34F8FBFF36F8F70474C20002082
:109BC00000E100E00B4991F816335A09EC231341E8
:109BD000DB0706D5084B9A683AB94FF480030B604F
:109BE000704742F20200FDF7F9B81A6842F48002A9
:109BF0001A60704700E100E04C200020F7B5194FD3
:109C00003C7864BB184E012520463570FFF798FF5D
:109C1000112821D02046FFF7ABFF144B8DF80340ED
:109C2000186801900DF10300FDF734FB104901A8FD
:109C3000FFF782FF0446B0FA80F0400938709DF8C3
:109C40000300FDF74BFB3CB90A4B34701C70FFF767
:109C5000B9FF2846FFF78CFF204603B0F0BD08246B
:109C6000FAE700BF4524002044240020CCAB0200CA
:109C7000F96D020046240020F7B5154F3B781BB361
:109C8000144E01203070FFF75BFF11284FF00005E4
:109C90001CD00220FFF76CFF0DF107008DF8075074
:109CA000FDF7F8FAFFF74AFF04469DF807003D70FC
:109CB000FDF714FB2CB903203470FFF76DFFFFF79D
:109CC00057FF204603B0F0BD0824FAE72C46F8E71A
:109CD0004524002044240020014B1878704700BF21
:109CE0004524002007B508496846FEF736F8019B71
:109CF00013B903B05DF804FBD3E900209047684630
:109D0000FEF735F8F3E700BFDCAB0200FFF7EABF70
:109D100060DF704769DF704761DF704730B5134B14
:109D20001B7891B0FBB1124D34240DF1020103A850
:109D3000ADF80240FFF7F0FF70B9294601A8FEF721
:109D40000CF8029B002BF0D003A8D3E90021904728
:109D500001A8FEF70CF8F4E7052804D011B0BDE81F
:109D60003040FDF73BB811B030BD00BF47240020A4
:109D70002CAE020030B50C4685B0002900F0828080
:109D80000023CDE90133404A039301230A608DF893
:109D900004008DF8063001A906232020ADF8083014
:109DA000FFF7B8FF60B1FEF733F8384B3849024689
:109DB00038481B1ADB081B0443F00100FCF78EFE39
:109DC00000232268039301A94020CDE90133FFF766
:109DD000A1FF60B1FEF71CF82C4B2F4902462D481D
:109DE0001B1ADB081B0443F00100FCF777FE00237D
:109DF0002268039301A90120CDE90133FFF78AFF0F
:109E000060B1FEF705F8214B2449024621481B1A90
:109E1000DB081B0443F00100FCF760FE0023CDE9E2
:109E200002332268F82301A9A1200193FFF772FFF2
:109E300060B1FDF7EDFF154B1949024615481B1A95
:109E4000DB081B0443F00100FCF748FE00252268F4
:109E5000039501A9A020CDE90155FFF75BFF03465B
:109E600068B1FDF7D5FF094B0E49024609481B1A98
:109E7000DB081B0443F00100FCF730FE2B461846BC
:109E800005B030BD0E23FAE7C818002084A30200F5
:109E9000F4AB02002CA302003AAC020086AC020034
:109EA000D2AC020023AD020073B505460668FFF789
:109EB0002FFF2B68B34204461DD91A481A4B1B4981
:109EC0001B1ADB081B0443F002000190FCF702FEA2
:109ED0002B68174901983246FCF709FE4FF0805372
:109EE0002A68D3F80C31134901989B0203F10053FF
:109EF0009A1AFCF7F3FD2CB90F4B01221A70204679
:109F000002B070BD2046FDF783FF074B0B490246A8
:109F100004481B1ADB081B0443F00100FCF7DEFDBC
:109F2000EDE700BF2CA3020084A3020076AD02007F
:109F3000A5AD0200D6AD02004724002000AE02000D
:109F40004BDF70471FB50E4C01A8FFF7F9FF70B942
:109F5000214602A8FDF701FF039B002BF4D00198D6
:109F6000D3E90021904702A8FDF701FFF4E7052897
:109F700004D004B0BDE81040FCF730BF04B010BD01
:109F800044AE020053EA020C61D02DE9F04BB3FA63
:109F900083F51E0007BFB2FA82F502FA05F403FA50
:109FA00005F41646C5F120051EBF22FA05F73C430D
:109FB000203556EA044C4FEA144418BF0134A34636
:109FC0004FF00009C846904271EB030C39D30942A7
:109FD00007BFB0FA80F700FA07F6B1FA81F701FA85
:109FE00007F6C7F120071EBF20FA07FC46EA0C0659
:109FF0002037B6FBFBFC7F1B103F07F01F04C4F1AA
:10A0000020060CFA04F42CFA06F644BF3446002667
:10A01000202FA4BF2646002454EA060C08BF0124C2
:10A0200018EB040849EB0609A4FB027CC01B06FBE5
:10A0300002CC04FB03CC71EB0C01904271EB030CDE
:10A04000C5D20B46024649464046BDE8F08BB2FBFE
:10A05000F3F200007F2805D8034A044B105C5B5CD8
:10A0600018407047002070475CAE0200DCAE020072
:10A07000A0F16103192B98BF20387047A0F141036C
:10A08000192B98BF203070477F299ABF017001209B
:10A090006FF02E00704700BF5AB10A787F2A0AD8A5
:10A0A00000B102600021501AC3E9001118BF01205D
:10A0B0007047104670476FF02E007047A0F16103A3
:10A0C000192B98BF20387047A0F14103192B98BF76
:10A0D000203070477F2805D8034A044B105C5B5C36
:10A0E00018407047002070475CAE0200DCAE0200F2
:10A0F000024B5B689B6809211B6818479C1900206C
:10A100001F4B204A9B1A102B70B530D91E4E0446A7
:10A1100000F0EAF8306804F1130222F00F0258B39D
:10A1200000254FF0FF34294608E003D9A3423CBF85
:10A1300005461C46036801466BB1184643689342C6
:10A14000F3D10368B1B10B60044644F8042B00F06E
:10A15000CDF8204670BD7DB16968A31A891AEC1844
:10A1600069600434EA5000F0C1F8204670BD002454
:10A17000204670BD3360E7E700F0B8F80024E8E758
:10A180004844002048240020B0190020844640EABA
:10A19000010313F0030F18D18446202A0BD32DE9B5
:10A1A000F007B1E8F807A0E8F807A2F12002202A9A
:10A1B000F7D2BDE8F007042A07D351F8043B40F872
:10A1C000043BA2F10402042AF7D2002A05D011F8B8
:10A1D000013B00F8013B013AF9D1604670478446E3
:10A1E000002A2DD010F0030F04D000F8011B013A13
:10A1F00026D0F7E7C9B241EA012141EA0141202A0C
:10A2000012D3A2F120022DE9F0030B460C460D46B5
:10A210000E460F4688468946A0E8FA03203AFBD24C
:10A22000BDE8F00320320BD0042A05D340F8041B0C
:10A23000043A05D0042AF9D200F8011B013AFBD1F7
:10A2400060467047024610F0030F16D111F0030F5D
:10A2500013D12DE9F0004FF001374FF0803351F862
:10A26000044BA4EB070525EA04051D4002D142F882
:10A27000044BF4E7A1F10401F0BC11F8013B02F832
:10A28000013B002BF9D1704700F1010110F0030FE1
:10A2900011D010F8012B002A23D010F0030F0AD0A0
:10A2A00010F8012B002A1CD010F0030F03D010F877
:10A2B000012B002A15D02DE970004FF001324FF02C
:10A2C000803350F8044BA4EB020525EA04051D4039
:10A2D00000D1F6E7A0F1040070BC10F8012B002AB1
:10A2E000FBD1A0EB01007047704700BF704700BF73
:08A2F000FD81020000000000E6
:08A2F800319702000000000094
:08A300000183020000000000CF
:10A308001D9D020000000000459F020000000000A3
:10A31800381A0020001B0020081B0020401A0020CB
:04A328001800000019
:10A32C00DAAA020000000000E0AA0200000000000F
:10A33C00E7AA020000000000F6AA020000000000DC
:10A34C00EBAA020000000000F0AA020000000000CE
:10A35C0042A402000000030318A502000000000044
:10A36C003CA5020000000000D4AA0200000000007E
:10A37C00C4AB0200000003031DAE02000000030387
:10A38C0038AE020000000303A6A502000000000086
:08A39C00BCA502000000000056
:10A3A400D8A302000000000021A40200DC18002051
:10A3B40004A402000000000010A40200E41800201D
:10A3C4000000000000000000000000000338FDD879
:10A3D40070470000D563020041640200D1630200AB
:10A3E400FFFFFFFFFFFFFFFFFFFFFFFFFFFFFFFF79
:10A3F40000000000000000000000D601060100007B
:10A4040065650200C9650200156502007561727414
:10A414005F6C6F675F6261636B656E640072747416
:10A424005F6C6F675F6261636B656E64004261635A
:10A434006B656E647320666C757368656400617027
:10A4440070000000281F00207F000000A81F0020CB
:10A454001B5B313B33316D0025734C6F6773206494
:10A46400726F70706564202825642925730D0A00B5
:10A474001B5B306D002573003C25733E2025733A29
:10A484002000202530327800202020007C00256325
:10A49400001B5B313B33306D001B5B313B33326D52
:10A4A400001B5B313B33336D001B5B313B33346D3D
:10A4B400001B5B313B33356D001B5B313B33366D29
:10A4C400001B5B313B33376D007761726E696E67D9
:10A4D40000696E666F0064656275670074A40200AB
:10A4E40095A4020054A402009DA40200A5A40200A5
:10A4F400ADA40200B5A40200BDA40200C5A40200DC
:10A504000000000029A50200CDA40200D5A4020089
:10A51400DAA402006170705F627574746F6E004635
:10A524006174616C206572726F7200537973746523
:10A534006D207265736574006170705F74696D6518
:10A54400720001000600000000000000C01F00208F
:10A55400656E020052544320696E7374616E6365C4
:10A5640020616C726561647920696E697469616CDB
:10A57400697A65642E005254433A20696E6974699D
:10A58400616C697A65642E00000000000338FDD810
:10A5940070473031323334353637383941424344E9
:10A5A40045467077725F6D676D74000000A302000A
:10A5B40000A3020004000000736F72746C6973746A
:10A5C400004E52465F53554343455353004E524643
:10A5D4005F4552524F525F5356435F48414E444C7D
:10A5E40045525F4D495353494E47004E52465F45CD
:10A5F40052524F525F534F46544445564943455F68
:10A604004E4F545F454E41424C4544004E52465FC6
:10A614004552524F525F494E5445524E414C004EA2
:10A6240052465F4552524F525F4E4F5F4D454D006B
:10A634004E52465F4552524F525F4E4F545F464F03
:10A64400554E44004E52465F4552524F525F4E4F54
:10A65400545F535550504F52544544004E52465F38
:10A664004552524F525F494E56414C49445F504106
:10A6740052414D004E52465F4552524F525F494E31
:10A6840056414C49445F5354415445004E52465F31
:10A694004552524F525F494E56414C49445F4C45D6
:10A6A4004E475448004E52465F4552524F525F49FE
:10A6B4004E56414C49445F464C414753004E524626
:10A6C4005F4552524F525F494E56414C49445F4494
:10A6D400415441004E52465F4552524F525F4441ED
:10A6E40054415F53495A45004E52465F4552524FBA
:10A6F400525F54494D454F5554004E52465F4552A2
:10A70400524F525F4E554C4C004E52465F4552528A
:10A714004F525F464F5242494444454E004E5246C2
:10A724005F4552524F525F494E56414C49445F4136
:10A73400444452004E52465F4552524F525F425576
:10A744005359004E52465F4552524F525F434F4E4B
:10A754004E5F434F554E54004E52465F4552524F42
:10A76400525F5245534F5552434553004E52465F34
:10A774004552524F525F4D4F44554C455F4E4F54D6
:10A784005F494E495449414C495A4544004E52464A
:10A794005F4552524F525F4D555445585F494E499B
:10A7A400545F4641494C4544004E52465F4552521F
:10A7B4004F525F4D555445585F4C4F434B5F464194
:10A7C400494C4544004E52465F4552524F525F4DEC
:10A7D400555445585F554E4C4F434B5F4641494C89
:10A7E4004544004E52465F4552524F525F4D5554B8
:10A7F40045585F434F4E445F494E49545F46414973
:10A804004C4544004E52465F4552524F525F4D4FA5
:10A8140044554C455F414C52454144595F494E496A
:10A824005449414C495A4544004E52465F455252A0
:10A834004F525F53544F524147455F46554C4C006D
:10A844004E52465F4552524F525F4150495F4E4F00
:10A85400545F494D504C454D454E544544004E526D
:10A86400465F4552524F525F464541545552455FEB
:10A874004E4F545F454E41424C4544004E52465F54
:10A884004552524F525F494F5F50454E44494E47DF
:10A89400004E52465F4552524F525F4452565F54E7
:10A8A40057495F4552525F4F56455252554E004EDE
:10A8B40052465F4552524F525F4452565F54574975
:10A8C4005F4552525F414E41434B004E52465F45F5
:10A8D40052524F525F4452565F5457495F45525249
:10A8E4005F444E41434B004E52465F4552524F52D5
:10A8F4005F424C455F495053505F52585F504B5430
:10A904005F5452554E4341544544004E52465F45B0
:10A9140052524F525F424C455F495053505F434837
:10A92400414E4E454C5F414C52454144595F455858
:10A9340049535453004E52465F4552524F525F4260
:10A944004C455F495053505F4C494E4B5F4449530B
:10A95400434F4E4E4543544544004E52465F455284
:10A96400524F525F424C455F495053505F504545EA
:10A97400525F52454A454354454400556E6B6E6FD1
:10A98400776E206572726F7220636F6465000000D9
:10A9940000000000C5A5020001000000D1A50200CE
:10A9A40002000000EFA502000300000010A6020050
:10A9B4000400000023A602000500000034A60200E3
:10A9C4000600000048A602000700000060A602007E
:10A9D4000800000078A602000900000090A602000A
:10A9E4000A000000A9A602000B000000C1A6020094
:10A9F4000C000000D8A602000D000000ECA6020026
:10AA04000E000000FEA602000F0000000DA70200C9
:10AA14001000000021A702001100000038A7020066
:10AA24001200000047A70200130000005CA7020008
:10AA34008000000070A702008100000091A70200BE
:10AA440082000000ADA7020083000000C9A7020035
:10AA540084000000E7A702008500000008A80200A7
:10AA6400860000002DA802009000000044A8020007
:10AA74009100000062A802009200000080A8020079
:10AA84000082000095A8020001820000B3A8020021
:10AA940002820000CFA8020000840000EBA802009C
:10AAA400018400000FA902000284000039A90200F9
:10AAB400038400005EA902000000010101000000FF
:10AAC4000101000000000101000000001112131434
:10AAD400636C6F636B00434C4F434B004750494FCB
:10AAE400544500505253005541525400554152545C
:10AAF40045005341414443005B4D41494E5D205361
:10AB0400657474696E6720616476657274697369CB
:10AB14006E6720646174612E2E2E0A00253032582F
:10AB240020005B4D41494E5D205B764261745D209F
:10AB340025640A005B4D41494E5D20424C4520414D
:10AB44006464726573733A20253032583A25303282
:10AB5400583A253032583A253032583A253032584E
:10AB64003A253032580A005B4D41494E5D2042651A
:10AB740061636F6E206578616D706C6520737461BC
:10AB8400727465642E0A0000591900201F00000029
:10AB940000000000000000000000000002000009A6
:10ABA4000000000038190020010006005465726D91
:10ABB400696E616C00525454005345474745520036
:10ABC4006E72665F736468000100000700A30200F0
:10ABD40000A302000800000008A3020018A302005A
:10ABE4000800000000A3020008A3020008000000FF
:10ABF40073645F626C655F6366675F73657428295D
:10AC04002072657475726E6564202573207768659B
:10AC14006E20617474656D7074696E6720746F2042
:10AC240073657420424C455F434F4E4E5F43464725
:10AC34005F4741502E0073645F626C655F636667B3
:10AC44005F73657428292072657475726E6564205B
:10AC54002573207768656E20617474656D707469FE
:10AC64006E6720746F2073657420424C455F4741C2
:10AC7400505F4346475F524F4C455F434F554E54D8
:10AC84002E0073645F626C655F6366675F736574EF
:10AC940028292072657475726E6564202573207787
:10ACA40068656E20617474656D7074696E67207474
:10ACB4006F2073657420424C455F434F4D4D4F4E9A
:10ACC4005F4346475F56535F555549442E007364AE
:10ACD4005F626C655F6366675F73657428292072C1
:10ACE400657475726E6564202573207768656E20BF
:10ACF400617474656D7074696E6720746F20736518
:10AD04007420424C455F47415454535F4346475F68
:10AD1400415454525F5441425F53495A452E007383
:10AD2400645F626C655F6366675F7365742829207E
:10AD340072657475726E6564202573207768656E1C
:10AD440020617474656D7074696E6720746F20730C
:10AD5400657420424C455F47415454535F43464712
:10AD64005F534552564943455F4348414E47454426
:10AD74002E00496E73756666696369656E74205248
:10AD8400414D20616C6C6F636174656420666F7201
:10AD94002074686520536F66744465766963652E14
:10ADA400004368616E6765207468652052414D20D8
:10ADB4007374617274206C6F636174696F6E206662
:10ADC400726F6D203078257820746F203078257864
:10ADD4002E004D6178696D756D2052414D20736967
:10ADE4007A6520666F72206170706C696361746942
:10ADF4006F6E20697320307825782E0073645F624B
:10AE04006C655F656E61626C652829207265747576
:10AE1400726E65642025732E006E72665F736468BB
:10AE24005F626C6500000000F8A2020000A302004B
:10AE3400080000006E72665F7364685F736F63007E
:10AE4400F0A20200F8A20200080000004300000083
:10AE5400504F53495800000020202020202020205B
:10AE64002068282828282020202020202020202076
:10AE74002020202020202020481010101010101016
:10AE8400101010101010101084848484848484841E
:10AE9400848410101010101010818181818181012F
:10AEA400010101010101010101010101010101018E
:10AEB400010101101010101010828282828282021D
:10AEC400020202020202020202020202020202025E
:10AED40002020210101010200007032004170201C0
:10AEE400085710408000000050AE020054AF02002A
:10AEF40068B0020053756E004D6F6E0054756500A6
:10AF040057656400546875004672690053617400A3
:10AF1400000000004A616E00466562004D617200E7
:10AF2400417072004D6179004A756E004A756C007B
:10AF340041756700536570004F6374004E6F76006F
:10AF44004465630000000000414D00504D000000C6
:10AF54008CB0020088B0020088B0020088B0020001
:10AF640088B0020088B0020088B0020088B00200F5
:10AF740088B0020088B00200FFFFFFFFFFFFFFFF61
:10AF8400FFFFFFFFFFFF0000C8AF0200F8AE0200A2
:10AF940004B0020018AF02004CAF0200ACAF0200D4
:10AFA4005CB00200B8AF0200256D2F25642F25790F
:10AFB40000000000256120256220256520255420FD
:10AFC4002559000053756E646179004D6F6E64619C
:10AFD400790054756573646179005765646E6573AF
:10AFE40064617900546875727364617900467269AA
:10AFF40064617900536174757264617900000000C2
:10B004004A616E7561727900466562727561727922
:10B01400004D6172636800417072696C004D617922
:10B02400004A756E65004A756C79004175677573E1
:10B03400740053657074656D626572004F63746F5C
:10B04400626572004E6F76656D6265720044656379
:10B05400656D62657200000025483A254D3A255316
:10B064000000000055A0020071A002007DA00200B3
:10B07400D5A00200BDA00200C9A0020089A0020060
:0CB0840099A00200000000002E00000057
:10B0900000000000002000400000000000200040F0
:10B0A0000000000000000000FF00000000000000A1
:10B0B000FF00000000100140110004000090D003C8
:10B0C0000000000000000000FFFFFFFFFFFFFFFF88
:10B0D0000000000000000000000000000000000070
:10B0E0000000000000000000FFFFFFFFFFFFFFFF68
:10B0F0000000000000000000000000000000000050
:10B100000000000000000000FFFFFFFFFFFFFFFF47
:10B11000000000000000000000000000000000002F
:10B12000FF1EFF4C001219F100000000000000009B
:10B13000000000000000000000000000000000000F
:10B140002C4D2F8C515658B2234B84BD9FE735BFF1
:10B150003BE78C4D02D556D0E83039F1FFBBCCDD52
:10B16000EEFF0000ECAE0200ECAE0200ECAE02001E
:0CB17000ECAE0200ECAE0200482400200F
:040000032000637501
:00000001FF
