:020000021000EC
:1090000000600020759301005D9301005F930100F3
:10901000619301006393010065930100000000006B
:109020000000000000000000000000006793010045
:1090300069930100000000006B9301006D93010033
:1090400065DD01006F930100E9E201006F9301000B
:109050006F93010000000000E5E10100F1E501006F
:109060006F9301006F9301006F9301006F930100F4
:109070006F9301006F9301006F9301006F930100E4
:10908000D9ED010031B901006F9301006F93010028
:109090006F9301006F930100411002006F93010074
:1090A0006F9301006F9301000000000000000000BA
:1090B0006F9301006F9301000000000000000000AA
:1090C00000000000000000000000000000000000A0
:1090D0000000000000000000000000000000000090
:1090E0000000000000000000000000000000000080
:1090F0000000000000000000000000000000000070
:10910000000000000000000000000000000000005F
:10911000000000000000000000000000000000004F
:10912000000000000000000000000000000000003F
:10913000000000000000000000000000000000002F
:10914000000000000000000000000000000000001F
:10915000000000000000000000000000000000000F
:1091600000000000000000000000000000000000FF
:1091700000000000000000000000000000000000EF
:1091800000000000000000000000000000000000DF
:1091900000000000000000000000000000000000CF
:1091A00000000000000000000000000000000000BF
:1091B00000000000000000000000000000000000AF
:1091C000000000000000000000000000000000009F
:1091D000000000000000000000000000000000008F
:1091E000000000000000000000000000000000007F
:1091F000000000000000000000000000000000006F
:10920000354936480A1A02D0072291438D4634491F
:1092100034480A1A06D00722914381F309880222B2
:1092200082F3148830483149314A00F044F831481B
:109230003149324A00F03FF831483249324A00F0B1
:109240003AF832483249334A00F035F83248334967
:10925000334A00F030F833483349344A00F02BF8F1
:1092600033483449344A00F026F83448344900225F
:1092700000F02CF833483449002200F027F8334836
:109280003349091A082902DB002202604160314A91
:1092900090471F481F49884205D00268043003B434
:1092A000904703BCF7E700208646EC4600200021EB
:1092B000294A9047FEE7884207D0521A05D0037822
:1092C00001300B700131013AF9D17047884202D068
:1092D00002700130FAE7704700600020005800205B
:1092E00000600020006000205832020018110020A9
:1092F00050120020BC930100BC930100B41702007F
:1093000058320200181100201811002078180200AD
:109310007818020078180200781802007818020005
:1093200078180200781802007818020058320200FB
:1093300090330200501200205012002050120020E2
:10934000C81C0020C81C0020C81C0020C81C00200D
:10935000C82400208B930100F5FC0100FEE7FEE726
:10936000FEE7FEE7FEE7FEE7FEE7FEE7FEE7FEE7D5
:1093700000F002B8FFF7FCBF0B484FF0070188432D
:1093800085460A488047FFF73BBF094809490A4A12
:10939000884207D0521A05D0037801300B70013192
:1093A000013AF9D1704700000060002011D101009E
:0C93B0007818020018110020181100208D
:1093BC0000B585B00190019B002B0AD0074B43F000
:1093CC0001030393019B9B010293039B0298984713
:1093DC0000E000BF05B05DF804FB00BF9018020070
:1093EC0000B583B00190019B002B0AD04FF47A702A
:1093FC00FFF7DEFF019B013B0193019B002BF5D195
:10940C0000E000BF03B05DF804FB08B506F0C4FE35
:10941C0000BF08BD00B589B0039002910192019B79
:10942C00002B33D00023079303230693029A079B48
:10943C001344019A1946002006F05EFE0590079A27
:10944C00059B13440793019A059BD31A0193059B23
:10945C00002B13D10F4B1B7883F00103DBB2002BD5
:10946C0013D10120FFF7BCFF069B013B0693069B23
:10947C00002B03D1074B00221A7007E0054B012289
:10948C001A70019B002BD1D100E000BF00BF09B0C6
:10949C005DF804FB5012002000B585B003900291DA
:1094AC00054B00934023054A0299039800F012F8EB
:1094BC0000BF05B05DF804FB21940100541200209C
:1094CC0082B0019000BF02B0704782B0019000BF23
:1094DC0002B0704700B5A1B00590049103920293BD
:1094EC00049803F031F9039B1593029B1693002308
:1094FC00179300238DF8603000231993229B1A9345
:10950C0000231F930FA91F9B0822049803F0F6F960
:10951C0008231F93119B1293BDF84030ADF84C30CB
:10952C00BDF84230ADF84E3000238DF851309DF827
:10953C003C3003F00303DBB2012B26D10F9BC3F3AA
:10954C0095231C939DF83C30C3F3C203DBB28DF81A
:10955C005030BDF83C30C3F38313DBB21B931B9B21
:10956C009A0009A91F9B049803F0C8F91B9B9B0048
:10957C001F9A13441F9312AA09A915AB0093134603
:10958C001B9A1C9800F0EAFE2FE09DF83C3003F08B
:10959C000303DBB2022B28D1BDF83E30C3F3891391
:1095AC009BB21E939DF83C30C3F3C203DBB28DF823
:1095BC0050301E9B082B28BF08231D9307A91F9B07
:1095CC001D9A049803F09AF91F9A1D9B13441F933C
:1095DC001E9A1D9BD31A1E9315AB12AA07A81D9990
:1095EC0000F05EFF1E9B002BE3D1049803F0BBF848
:1095FC0000BF21B05DF804FB82B00190019BDB68D9
:10960C0001225A7100BF02B07047000000B583B050
:10961C004FF0FF330193FFF7F8FE0421084800F0E8
:10962C00B9FD0190019B002B03DA0649412006F09D
:10963C0089F80348FFF7E0FF00BF03B05DF804FBB7
:10964C0068180200A818020000B583B001900091C0
:10965C00019B1B681B6800990198984700BF03B0D9
:10966C005DF804FB00B583B00190019B1B685B683F
:10967C000198984700BF03B05DF804FB00B583B0B8
:10968C000190019B1B689B680198984700BF03B031
:10969C005DF804FB82B001900B468DF80330019B02
:1096AC00DB689DF803201A7100BF02B0704782B0CE
:1096BC000190019BDB681B79184602B0704782B0A1
:1096CC000190019BDB6801225A7100BF02B0704708
:1096DC0082B00190019BDB685B79184602B0704741
:1096EC0000B585B0019000910C4B00221A700C480B
:1096FC0002F08EFF0390039B002B01D0039B08E02C
:10970C00084803F06BF9084A084BD31ADB0802939C
:10971C000023184605B05DF804FB00BFFC130020C5
:10972C00DC1702000C19020068180200F017020086
:10973C00024A034BD31ADB0818467047681802001C
:10974C00F017020000B587B001900B468DF803307E
:10975C009DF80330002B1FD0FFF7EAFF0490002385
:10976C00059313E0059B9B000E4A13440393039B44
:10977C001B881A46019B1B689A4204D1019B059ACF
:10978C001A60002309E0059B01330593059A049B9D
:10979C009A42E7D3052300E00023184607B05DF892
:1097AC0004FB00BF1811002000B585B001900B46DA
:1097BC008DF803309DF8032001AB11461846FFF7D6
:1097CC00C1FF0346002B07D1019BDB00054A134464
:1097DC000393039B1B6800E00023184605B05DF85B
:1097EC0004FB00BFF017020084B001900B468DF80B
:1097FC000330019BDB00174A134402939DF803309E
:10980C00013B032B1CD801A252F823F0299801002C
:10981C0031980100399801004398010002238DF81A
:10982C000F3011E004238DF80F300DE0029B1B79F3
:10983C008DF80F3008E0029B5B798DF80F3003E058
:10984C0000238DF80F3000BF9DF80F30184604B080
:10985C00704700BFF017020084B001900091002304
:10986C008DF80F30019B1B7803F00403DBB2002B47
:10987C0024D0019B1B78C3F30103DBB2012B02D074
:10988C00022B0CD017E0009B1B68019A1288C2F3C4
:10989C008312D2B213449A1C009B1A600BE0009BFB
:1098AC001B68019A5288C2F3891292B213449A1C13
:1098BC00009B1A6000BF01238DF80F309DF80F300C
:1098CC00184604B07047000000B58BB00023ADF80B
:1098DC0026303E4802F0A8F93D4802F0A5F93D4B70
:1098EC009B6804933C4B1B680693049A069B13409D
:1098FC0002339B00374A13440433089304AB1946D4
:10990C000898FFF7A9FF0346002B09D0049A069B81
:10991C00134002339B002F4A134404330893EDE7A2
:10992C0000BF0023079311E0049B5A1C0492069A73
:10993C001340079A920001A90A44264902339B005E
:10994C000B445B681360079B01330793079B012B48
:10995C00EAD99DF80430C3F30103DBB2012B10D01C
:10996C00022B1CD1BDF80A30ADF82630BDF80630FC
:10997C00C3F389139BB203339A08049B13440493D7
:10998C0013E0BDF80A30ADF82630BDF80430C3F34F
:10999C008313DBB21A46049B1344049305E00F496E
:1099AC004FF4C27005F0CEFE00BF094802F048F932
:1099BC000590059B002B02D0049B064A9360BDF8D2
:1099CC00263018460BB05DF804FB00BF14180020BD
:1099DC0010180020FC130020201100201C1902007C
:1099EC0000B585B00021074802F0ACF80390039B4A
:1099FC000293029B83F310030193019B184605B05D
:109A0C005DF804FB1818002000B589B00390029192
:109A1C0001920093039B1B0C0793FFF7E1FF069049
:109A2C00FFF786FE0246079B934204D3214940F27E
:109A3C00A91005F087FE069B1904009B5A1C0A9B73
:109A4C001340079A0A431C4902339B000B445A608B
:109A5C00009A0A9B134002339B00174A13440433A9
:109A6C000593039B03F00703D9B2059A137861F3AE
:109A7C00C5031370019B03F00F03D9B2059A138829
:109A8C0061F389131380029BC3F31501059A1368C4
:109A9C0061F39F231360059A1378012161F301038D
:109AAC001370059A13786FF38203137000BF09B01B
:109ABC005DF804FB1C190200FC13002000BF70476A
:109ACC0000B58DB00390029113468DF80730039BBF
:109ADC0002330A9301238DF8273000238DF81B30B5
:109AEC000DF11B03184601F0F1FA404B5A68029B2A
:109AFC001A603F4B1A683D4B99683C4B5B68CB1A1C
:109B0C00134401330B9314E001213A4802F05EF840
:109B1C00FFF7DAFE07900799364802F057F8344BF6
:109B2C001A68324B9968314B5B68CB1A134401337A
:109B3C000B930A9A0B9B9A42E6D89DF82730002B80
:109B4C0048D0002305939DF80730002B17D09DF8C3
:109B5C001430012262F301038DF814309DF8143097
:109B6C0043F004038DF81430039B03F00F03DAB2B7
:109B7C00BDF8143062F38913ADF8143016E09DF87B
:109B8C001430022262F301038DF814309DF8143066
:109B9C0043F004038DF81430039BC3F309039AB20A
:109BAC00BDF8163062F38F13ADF816300F4B5A68B0
:109BBC000F4B1B68134002339B000C4A13440433B5
:109BCC000893059A089B1A60084B5A680A9B134421
:109BDC00064A53609DF81B30184601F08DFA9DF82B
:109BEC00273018460DB05DF804FB00BFFC130020B5
:109BFC00201100201818002000B58BB0059004919E
:109C0C0003920293204B1B68079306AB0122194663
:109C1C000298FFF755FF0346002B24D0069B023316
:109C2C0009930023089311E0089B9B00039A1A44A4
:109C3C00099B591C099107990B401268134902336F
:109C4C009B000B445A60089B01330893089A029BB3
:109C5C009A42E9D3069A079B00931346029A0499F9
:109C6C000598FFF7D1FE094B1B78002B05D000BFE0
:109C7C0000F086F80346002BFAD1FFF71FFF00BF58
:109C8C000BB05DF804FB00BF20110020FC1300207A
:109C9C0000B583B001900091002300220099019837
:109CAC00FFF7AAFF00BF03B05DF804FB00B587B057
:109CBC00039002910192019B059305AA012302993D
:109CCC000398FFF799FF00BF07B05DF804FB00B5E0
:109CDC0087B00390029101920093019B0493009B27
:109CEC00059304AA022302990398FFF785FF00BF8E
:109CFC0007B05DF804FB00B58BB0039002910192A4
:109D0C000093019B0593009B06930C9B07930D9B63
:109D1C0008930E9B099305AA052302990398FFF754
:109D2C006BFF00BF0BB05DF804FB00B58BB003906C
:109D3C00029101920093019B0493009B05930C9B51
:109D4C0006930D9B07930E9B08930F9B099304AAF4
:109D5C00062302990398FFF74FFF00BF0BB05DF885
:109D6C0004FB0000054B9A68044B5B689A420CBFDD
:109D7C0001230023DBB21846704700BFFC13002000
:109D8C0000B599B0FFF7EEFF0346002B01D000237E
:109D9C00C0E19B4B0022C3F81824BFF34F8F00BFC8
:109DAC00974B9B680493974B1B681093049A109BDA
:109DBC00134002339B00924A134404331193002343
:109DCC0017930023169300230F9304AB1946119895
:109DDC00FFF742FD0346002B19D0894BD3F81834FA
:109DEC00002B14D1864B5A68049B9A4205D8844B9D
:109DFC005B68834A936000238CE1049A109B1340A8
:109E0C0002339B007E4A134404331193DDE7002395
:109E1C00159311E0049B5A1C0492109A1340159A46
:109E2C00920001A90A44764902339B000B445B68FB
:109E3C001360159B01331593159B012BEAD99DF8E3
:109E4C00043003F00303DBB2022B40F09C80BDF81E
:109E5C000630C3F389139BB20D93BDF80630C3F3E0
:109E6C0089139BB2502B28BF50239BB20C930C9B95
:109E7C00C3F309039AB2BDF8063062F38F13ADF841
:109E8C0006300C9B08330B939DF80430C3F3C203CC
:109E9C00DBB20F930B995C4802F0C5FB1790179B34
:109EAC00002B00F0D380179802F04EFC01A9169BF2
:109EBC000822179802F004FD169B08331693049B96
:109ECC00DA43109B134001339B000A930C9A0A9BB4
:109EDC009A4242D90A9B002B08D0049A109B13403B
:109EEC0002339B00464A1344043300E0474B08936B
:109EFC000A9B002B02D00A9BDBB201E00C9BDBB26D
:109F0C008DF81F300A9B002B01D0404B00E0002342
:109F1C0006930A9B002B06D00C9BDAB20A9BDBB291
:109F2C00D31ADBB200E000238DF817309DF81F2008
:109F3C00169B0899179802F0C3FC9DF81F30169ACF
:109F4C0013441693069B002B16D09DF81720169BD6
:109F5C000699179802F0B4FC0EE0049A109B13407B
:109F6C0002339B00264A134404330993169B0C9A24
:109F7C000999179802F0A4FC0D9B03339A08049BD3
:109F8C001344049362E09DF8043003F00303DBB246
:109F9C00012B5BD1BDF80430C3F38313DBB2062B6A
:109FAC0028BF0623DAB2BDF8043062F38913ADF88A
:109FBC000430BDF80430C3F38313DBB202330E93C9
:109FCC009DF80430C3F3C203DBB20F930E9B9B00CE
:109FDC0019460D4802F027FB1790179B002B35D024
:109FEC00179802F0B1FB01A9169B0822179802F0F2
:109FFC0067FC169B08331693002315931DE000BFD6
:10A00C00FC13002020110020DC1702000814002093
:10A01C00049B5A1C0492109A134002339B003F4A33
:10A02C001344191D169B0422179802F049FC169B29
:10A03C0004331693159B01331593BDF80430C3F309
:10A04C008313DBB21A46159B9342E1D3179B002B6B
:10A05C0040D0324BD3F810341493304BD3F818341F
:10A06C00002B1BD0179802F07EFB4DE000238DF8DF
:10A07C004F301498FFF72CFB0346002B02D0012322
:10A08C008DF84F309DF84F30002B03D01799149852
:10A09C00FFF7DAFA149BDB681B681493149B002BF4
:10A0AC00E4D1179802F05FFB00238DF803300DF11B
:10A0BC000303184601F00AF8184BD3F81834002B98
:10A0CC0002D1049B154A93609DF80330184601F0A9
:10A0DC0013F819E0114BD3F81034129306E01298D0
:10A0EC00FFF7CCFA129BDB681B681293129B002BB8
:10A0FC00F5D10B4A0B4BD31ADB081B0443F00203BC
:10A10C0009491846FFF7C4FDFFF72CFE034683F000
:10A11C000103DBB2184619B05DF804FBFC130020F8
:10A12C0020180200F01702007819020000B585B063
:10A13C000023039323E0164BD3F81034029301232E
:10A14C008DF807300FE00298FFF7B1FA03461A4674
:10A15C00039B934203D100238DF8073006E0029B4A
:10A16C00DB681B680293029B002BECD19DF8073037
:10A17C00002B01D0039B07E0039B01330393039B4C
:10A18C00092BD8DD4FF0FF33184605B05DF804FB02
:10A19C00FC13002000B585B001900B468DF8033000
:10A1AC00FFF7C4FF0390039BB3F1FF3F01D1039B67
:10A1BC0022E0039BDBB219460198FFF76BFA104BB8
:10A1CC00D3F81034002B08D10D4A019BC2F810347F
:10A1DC00019BDB6800221A600DE0094BD3F81034A8
:10A1EC00DA68019BDB6812681A60054BD3F81034EF
:10A1FC00DB68019A1A60039B184605B05DF804FBF6
:10A20C00FC13002000B583B00C4BD3F81034019331
:10A21C000A4B01221A7009E00198FFF750FA0198D5
:10A22C00FFF720FA019BDB681B680193019B002B55
:10A23C00F2D100BF00BF03B05DF804FBFC1300209B
:10A24C0082B00190009100BF02B0704710B584B08D
:10A25C0003900291039BDB88002B0AD0039BDB88C5
:10A26C001A461F4B009313461E4A1F49029801F0D1
:10A27C0023FE039B1B7A052B2ED0039B5B7A002BB2
:10A28C0012D0039B9B881A46039B1B7A19461046D7
:10A29C00FFF7AAFA03461A46144B53F822301A4613
:10A2AC001349029801F008FE039B1B68194602989B
:10A2BC00FFF7C6FF039B1B7A1A460E4B53F822403E
:10A2CC00039B9B8800211846FFF76EFA0346224633
:10A2DC000949029801F0F0FD00BF04B010BD00BFA9
:10A2EC00AC190200BC190200F4190200381100204C
:10A2FC000C1A020024110020101A020000B585B0BF
:10A30C000390029113468DF80730039B1B7A052BA3
:10A31C000FD0039B5B7A002B06D00D4B1B681A46A3
:10A32C000C49029801F0C8FD0B49029801F0C4FDDC
:10A33C0007E09DF80730002B03D00749029801F085
:10A34C00BBFD029801F096FD00BF05B05DF804FB63
:10A35C00381100200C1A02001C1A020030B58BB008
:10A36C0007900691059204930E9B1B7B8DF827306A
:10A37C000E9B00221A730E990498FFF767FF059B3A
:10A38C00062B7FD801A252F823F000BFB5A3010021
:10A39C00BFA30100CFA30100E3A3010001A40100AE
:10A3AC0029A4010059A4010007990E9801F084FD1D
:10A3BC0069E0069B1B681A4607990E9801F07CFD14
:10A3CC0061E0069B1A68069B04331B6807990E987C
:10A3DC0001F072FD57E0069B1A68069B043319685E
:10A3EC00069B08331B6800930B4607990E9801F0E7
:10A3FC0063FD48E0069B1968069B04331868069BAE
:10A40C0008331B68069A0C321268019200930346BB
:10A41C000A4607990E9801F04FFD34E0069B186828
:10A42C00069B04331C68069B08331B68069A0C3287
:10A43C001268069910310968029101920093234623
:10A44C00024607990E9801F037FD1CE0069B1C682C
:10A45C00069B04331D68069B08331B68069A0C3256
:10A46C001268069910310968069814300068039038
:10A47C000291019200932B46224607990E9801F007
:10A48C001BFD00E000BF00220E990498FFF736FF79
:10A49C000E9B9DF827201A7300BF0BB030BD00BF78
:10A4AC0000B587B00390029101920093029B082B98
:10A4BC0060D8009B1B7B8DF81330009B00221A7315
:10A4CC0000990198FFF7C2FE0023059314E0059A4A
:10A4DC00029B9A4209D2039A059B13441B781A4695
:10A4EC002649009801F0E8FC03E02549009801F0AA
:10A4FC00E3FC059B01330593059B072BE7D9214909
:10A50C00009801F0D9FC0023059326E0059A029BE4
:10A51C009A421BD2039A059B13441B788DF8123078
:10A52C009DF812307E2B0AD89DF81230184607F091
:10A53C005DF80346002B02D09DF8123000E02E236C
:10A54C001A461149009801F0B7FC03E00F49009836
:10A55C0001F0B2FC059B01330593059B072BD5D964
:10A56C00012200990198FFF7C9FE009B9DF813206A
:10A57C001A7300E000BF07B05DF804FB201A02005C
:10A58C00281A02002C1A0200301A0200341A020097
:10A59C0086B003900291019201238DF817309DF83B
:10A5AC001730204A039B13601E4A029B53601D4ABE
:10A5BC00019B9360039B44F20102934212D0039BD4
:10A5CC0044F20202934220D1019B164AD360154BF0
:10A5DC00DB681B68134A9361124BDB685B68114A9A
:10A5EC00D36112E0019B0F4A13610E4B1B699B68F0
:10A5FC000C4A53610B4B1B691B680A4A9361094B4C
:10A60C001B695B68074AD36100BF72B600BF00BF0D
:10A61C009DF81730DBB2002BFAD162B600BF00BF39
:10A62C0006B070471C18002000B583B00290009152
:10A63C00019244F2010071466A4600F003F803B03F
:10A64C0000BD00BF30B58BB007900691059272B675
:10A65C0000BFFFF7D7FD00BFFFF792FB0346002BAF
:10A66C00FAD1079B44F2020293422FD0079B44F28B
:10A67C000202934269D8079B44F20102934237D0FD
:10A68C00079B44F2010293425FD8079B012B05D034
:10A69C00079B41F2010293420CD056E0394A3A4BE7
:10A6AC00D31ADB081B0443F0010338491846FFF7A3
:10A6BC00EFFA57E0334A344BD31ADB081B0443F050
:10A6CC00010333491846FFF7E3FA4BE0059B099366
:10A6DC002C4A2D4BD31ADB081B0443F00100099BB9
:10A6EC005B681A46099B1B682A49FFF7F0FA39E0A8
:10A6FC00059B0893234A244BD31ADB081B0443F015
:10A70C000104089B9D68089B9B68184602F086FA1A
:10A71C0003461846089B5B681946089B1B68069AFB
:10A72C0002920193009103462A461B492046FFF7EB
:10A73C00E2FA144A144BD31ADB081B0443F001034E
:10A74C0016491846FFF7A4FA0CE00E4A0E4BD31A22
:10A75C00DB081B0443F00103069A11491846FFF766
:10A76C00A5FA00BF0F4B1B6803F00103002B00D0B0
:10A77C0000BE059A06990798FFF70AFF00BF0BB0B9
:10A78C0030BD00BF20180200F0170200981A02001A
:10A79C00B81A0200DC1A0200F81A0200201B020090
:10A7AC00341B0200F0ED00E02DE9F04383B01448B7
:10A7BC0001F09DF8034600221C461546114BD3E9C7
:10A7CC00002314EB020845EB0309CDE900890E4B7D
:10A7DC00D3E90023DDE90001904271EB030307D2BA
:10A7EC00DDE9002312F1807643F10007CDE9006723
:10A7FC00DDE900231046194603B0BDE8F08300BF25
:10A80C005C110020481800205018002088B00190DE
:10A81C000091019B0793009B0693079BD3E90223AE
:10A82C00CDE90423069BD3E90223CDE90223DDE91C
:10A83C000423DDE90201904271EB03032CBF0123D9
:10A84C000023DBB2184608B070470000F0B585B0A5
:10A85C000190019B5B69002B03D14349A52004F0B7
:10A86C0071FF00238DF80F30404B1B78002B75D0F7
:10A87C00019B002B72D0FFF797FF019BD3E90223BA
:10A88C00904271EB030358D300238DF80D300DF17A
:10A89C000D03184600F01AFC019B1B69002B06D116
:10A8AC0001994FF0FF324FF0FF33C1E902239DF8BD
:10A8BC000D30184600F020FC019B5B69019A9269EF
:10A8CC001046984700238DF80C3003AB184600F067
:10A8DC00FDFB019B1B69002B1AD0019BD3E90223C2
:10A8EC00B3F1FF3F08BFB2F1FF3F11D0019BD3E999
:10A8FC0002230199096900200C460546161943EB01
:10A90C000507019BC3E9026701238DF80E3002E0B5
:10A91C0000238DF80E309DF80C30184600F0ECFB3F
:10A92C009DF80E30002B19D0019B1946104802F0EF
:10A93C00CFF801238DF80F3010E0019BD3E90223EF
:10A94C00B3F1FF3F08BFB2F1FF3F07D0019B19469F
:10A95C00074802F0BDF801238DF80F309DF80F3039
:10A96C00184605B0F0BD00BF581B0200401800206F
:10A97C00B01B020030B58BB0019000910D230993F0
:10A98C00009B00221A70019BD3E90223CDE9062318
:10A99C00FFF70AFFDDE90623141A63EB0105CDE985
:10A9AC000445DDE90423012A73F1000318DB049B41
:10A9BC00B3F5350F05D300F00BFB0246144B1344D3
:10A9CC0000E0069B03934FF49603039A0021114871
:10A9DC0000F080FE0990099B002B05D1012314E0A7
:10A9EC0000210C4800F04EFF099B0D2B07D101985C
:10A9FC00FFF72CFF03461A46009B1A7004E0064929
:10AA0C004FF4867004F09EFE002318460BB030BD48
:10AA1C00FFFFB4005C110020581B020000B583B08E
:10AA2C00044802F08FF80190019B184603B05DF8C2
:10AA3C0004FB00BFB01B020000B583B0044802F059
:10AA4C00A3F80190019B184603B05DF804FB00BF0E
:10AA5C00B01B020000B583B0FFF7E0FF0190019B33
:10AA6C00002B06D001994FF0FF324FF0FF33C1E9B4
:10AA7C000223019B002BEFD100BF00BF03B05DF898
:10AA8C0004FB0000054BD3E9002312F1807043F165
:10AA9C000001024BC3E9000100BF704748180020B9
:10AAAC0010B582B00190124B1B68002B1DD0019881
:10AABC0000F01DFF04460021019800F009FF034639
:10AACC001946204600F078FA0346B3F5960F04D3E6
:10AADC00084940F2411004F035FE054B1B6818463E
:10AAEC00FFF7B4FE024B00221A6000BF02B010BD8B
:10AAFC003C180020581B020000B583B00190FFF7F2
:10AB0C0053FE02460B460349C1E9002300BF03B0C4
:10AB1C005DF804FB5018002000B587B00190FFF7DA
:10AB2C008BFF049000238DF81730049B002B58D01A
:10AB3C00049BD3E90223B3F1FF3F08BFB2F1FF3FFF
:10AB4C0002D1FFF76BFF54E02E4B1B68002B03D197
:10AB5C0001238DF817301DE0049BD3E90201294B2A
:10AB6C001B68D3E90223904271EB030312D2012339
:10AB7C008DF81730234B1B68D3E90223B3F1FF3F49
:10AB8C0008BFB2F1FF3F05D01E4B1B6819461E488B
:10AB9C0001F09EFF9DF81730002B2BD0FFF73EFFE6
:10ABAC0004900DF10F0319460498FFF7E3FE0346DA
:10ABBC00002B12D0134B1B68002B02D1019800F014
:10ABCC0095FC104A049B13609DF80F3083F0010331
:10ABDC00DBB2002BA3D000BF0FE00A4B00221A609F
:10ABEC009DE7084B1B68002B06D1019800F094FCE4
:10ABFC0002E094E700BF00E000BF00BF07B05DF8C3
:10AC0C0004FB00BF3C180020B01B020000B587B04D
:10AC1C0001902B4A03AB1946104600F066FF0490D6
:10AC2C0045E0049B1B78022B2BD0022B2FDC002B36
:10AC3C0002D0012B11D02AE0049B5B68D3E90223DC
:10AC4C00B3F1FF3F08BFB2F1FF3F22D0049B5B681A
:10AC5C0019461C4801F03CFF1BE0049B5A681A4B38
:10AC6C001B689A4203D1184B00221A6012E0049B15
:10AC7C005B681946134801F09BFF03468DF81730AB
:10AC8C0008E0FFF7E7FE114B01221A7002E000BF4B
:10AC9C0000E000BF0A4A03AB1946104600F03EFF25
:10ACAC00074A03AB1946104600F01FFF0490049BA3
:10ACBC00002BB6D100BF00BF07B05DF804FB00BF8E
:10ACCC00B0180020B01B02003C18002040180020D7
:10ACDC0000B583B00190019800F0C7FD0346002B2E
:10ACEC0001D0FFF7CFFE0021019800F0DCFD0346F8
:10ACFC00002B02D00198FFF7D3FE0121019800F040
:10AD0C00D2FD0346002B02D00198FFF7F5FE019807
:10AD1C00FFF77CFF0198FFF7FFFE00BF03B05DF863
:10AD2C0004FB000008B5024800F0EEFD00BF08BDB2
:10AD3C005C11002000B585B0034600918DF80730FA
:10AD4C00114A02AB1946104600F0A2FE0390039B79
:10AD5C00002B13D0039B9DF807201A70039B009ABD
:10AD6C005A60094A02AB1946104600F0AAFE034687
:10AD7C00002B01D0FFF7D6FF002300E00423184678
:10AD8C0005B05DF804FB00BFB018002000B583B01F
:10AD9C00164B1B680093164808235822154900F0DF
:10ADAC0044FE0190019B002B01D0019B19E06B46E6
:10ADBC00114A1946114800F01BFB0190019B002B16
:10ADCC0001D0019B0DE001210C4800F03DFD012359
:10ADDC000B4A0121094800F0B5FB0A4B01221A70FD
:10ADEC00019B184603B05DF804FB00BFAC1B0200CE
:10ADFC00B018002058180020DDAC01005C110020B8
:10AE0C00FFFF7F004018002000B587B003900B4671
:10AE1C0001928DF80B30039B002B04D1164940F2A4
:10AE2C005A2004F08FFC019B002B04D1124940F2F4
:10AE3C005B2004F087FC019B002B01D1072317E05A
:10AE4C00039B1B68059305994FF0FF324FF0FF33BE
:10AE5C00C1E90223059B019A5A619DF80B30012B25
:10AE6C000CBF01230023DBB21A46059B1A61002399
:10AE7C00184607B05DF804FB581B0200F0B589B00A
:10AE8C00039002910192039B002B04D1264940F2BE
:10AE9C006B2004F057FC039B069300238DF81730AE
:10AEAC000DF11703184600F011F9069BD3E90223A4
:10AEBC00B3F1FF3F08BFB2F1FF3F11D1FFF774FCB4
:10AECC0002460B46029900200C460546161943EB28
:10AEDC000507069BC3E9026701238DF81F3002E0CA
:10AEEC0000238DF81F309DF81730184600F004F938
:10AEFC009DF81F3083F00103DBB2002B01D000233F
:10AF0C000EE0069B019A9A61069B1B69002B02D0EE
:10AF1C00069B029A1A6106990020FFF70BFF034665
:10AF2C00184609B0F0BD00BF581B020000B587B031
:10AF3C000190019B002B04D11E4940F2932004F098
:10AF4C0001FC019B049300238DF80F300DF10F03CE
:10AF5C00184600F0BBF8049BD3E90223B3F1FF3F82
:10AF6C0008BFB2F1FF3F03D100238DF8173009E081
:10AF7C0004994FF0FF324FF0FF33C1E90223012354
:10AF8C008DF817309DF80F30184600F0B5F89DF885
:10AF9C00173083F00103DBB2002B01D0002304E057
:10AFAC0004990120FFF7C6FE0346184607B05DF86A
:10AFBC0004FB00BF581B020082B001900091019A63
:10AFCC00009BD31A23F07F43184602B07047000051
:10AFDC0008B5034800F08BFC0346184608BD00BFBB
:10AFEC005C11002082B0EFF310830093009B01935F
:10AFFC0072B600BF019B184602B0704762B600BF24
:10B00C0000BF704700B585B00190FFF7EBFF0390D0
:10B01C00164B9B68002B1BD1144B01229A60144BCE
:10B02C00D3F88020134B1340104A1360104B114A75
:10B03C00C3F880200E4BD3F884300C4A53600C4B71
:10B04C004FF0FF32C3F88420019B00221A7002E0FB
:10B05C00019B01221A70039B002B01D1FFF7CEFF3D
:10B06C000023184605B05DF804FB00BFC41800208F
:10B07C0000E100E0FC06FFBD00B585B003468DF88D
:10B08C000730104B9B68002B16D09DF80730002B17
:10B09C0012D1FFF7A7FF03900B4A0A4B1B681360F2
:10B0AC00094A084B5B685360064B00229A60039B6D
:10B0BC00002B01D1FFF7A2FF0023184605B05DF865
:10B0CC0004FB00BFC418002000E100E000B583B011
:10B0DC00019000F02BF80346012B03D005494320C7
:10B0EC0004F030FB0198FFF78DFF00BF03B05DF853
:10B0FC0004FB00BFBC1B020000B583B003468DF8F7
:10B10C00073000F013F80346012B03D006495120F9
:10B11C0004F018FB9DF807301846FFF7ADFF00BF91
:10B12C0003B05DF804FB00BFBC1B020084B0EFF35E
:10B13C0005830193019BC3F308030393039B002B2B
:10B14C000DD1EFF314830093009B0293029B03F049
:10B15C000103002B0CBF01230023DBB200E0012311
:10B16C00184604B07047000082B003468DF80730D3
:10B17C009DF90730002B0CDB9DF8073003F01F0204
:10B18C0005499DF907305B09012000FA02F241F8EC
:10B19C00232000BF02B0704700E100E082B00346FC
:10B1AC008DF807309DF90730002B0DDB9DF807302B
:10B1BC0003F01F0206499DF907305B09012000FAD4
:10B1CC0002F2403341F8232000BF02B0704700BFA9
:10B1DC0000E100E082B0034600918DF807309DF944
:10B1EC000730002B0ADB009BDAB20C499DF90730C3
:10B1FC005201D2B20B4483F800230BE0009BDAB26D
:10B20C0007499DF8073003F00F03043B5201D2B2FB
:10B21C000B441A7600BF02B0704700BF00E100E09B
:10B22C0000ED00E000B583B003460A468DF8073008
:10B23C0013468DF806309DF80630012B03D99DF886
:10B24C000630032B0BD99DF80630042B03D99DF83F
:10B25C000630072B03D908496B2004F073FA9DF8CC
:10B26C0006209DF9073011461846FFF7B3FF00BFC3
:10B27C0003B05DF804FB00BF141C020000B583B0E2
:10B28C0003468DF807309DF907301846FFF76CFF21
:10B29C0000BF03B05DF804FB00B585B00190019BC5
:10B2AC00002B0AD0074B43F001030393019B9B0136
:10B2BC000293039B0298984700E000BF05B05DF82D
:10B2CC0004FB00BF101D020084B003900291019298
:10B2DC00039B029A02F5A872019943F8221000BF51
:10B2EC0004B0704782B001900091019B009A02F566
:10B2FC00A87253F82230184602B0704782B0019001
:10B30C000091019B009AC3F8042300BF02B0704760
:10B31C0082B001900091019B009AC3F8082300BFF2
:10B32C0002B0704782B001900B46ADF80230BDF808
:10B33C000230019A13441B68184602B0704784B05F
:10B34C0001900B46ADF80230BDF80230019A13445F
:10B35C0000221A60BDF80230019A13441B68039353
:10B36C00039B00BF04B0704782B00190019BD3F8DF
:10B37C000435184602B0704700B583B001900091B7
:10B38C00009BB3F5805F04D306494FF4BE7004F004
:10B39C00D9F9019B009AC3F8082500BF03B05DF8EA
:10B3AC0004FB00BF441C020082B001900B468DF8D8
:10B3BC0003309DF80320019B13441A4601231360AC
:10B3CC0000BF02B0704782B001900091019B009ABF
:10B3DC00C3F8442300BF02B0704782B001900091C3
:10B3EC00019B009AC3F8482300BF02B070470000CD
:10B3FC0000B587B0039002910192039B002B03D1FF
:10B40C003349552004F09EF9029B002B03D130499F
:10B41C00562004F097F9019B002B03D12C4957209F
:10B42C0004F090F9039B5B7919462A4A019B42F878
:10B43C002130039B5B79284ADB0013441B79002BDA
:10B44C000ED008230593254A254BD31ADB081B0481
:10B45C0043F0020323491846FEF71AFC059B32E021
:10B46C00039B1A68029B1B8819461046FFF784FF42
:10B47C00039B93F90420029B9B7819461046FFF717
:10B48C00D1FE039B93F904301846FFF7F7FE039B9C
:10B49C005B79114ADB00134401221A71039B5B791F
:10B4AC0019460D4A039B42F83130002305930B4A91
:10B4BC000B4BD31ADB081B0443F003030A49184651
:10B4CC00FEF7E6FB059B184607B05DF804FB00BFD2
:10B4DC00741C0200D0180020D41800203018020070
:10B4EC00F0170200C41C0200E81C020000B583B077
:10B4FC000190019B002B03D10649872004F022F90F
:10B50C00019B1B6800211846FFF74EFF00BF03B0DC
:10B51C005DF804FB741C020000B583B00190019B24
:10B52C00002B03D106498D2004F00CF9019B1B68FC
:10B53C0004211846FFF738FF00BF03B05DF804FB89
:10B54C00741C020000B587B00390029101928DF833
:10B55C000330039B002B03D12149962004F0F2F811
:10B56C004FF48032029B02FA03F30593029B503393
:10B57C009BB29B00ADF81230019B23F07F430193EB
:10B58C00039B1B6805991846FFF7C2FE039B1B68BB
:10B59C0005991846FFF721FF039B1B68BDF8122085
:10B5AC0011461846FFF7CBFE039B1B68019A0299C4
:10B5BC001846FFF789FE039B1B6805991846FFF791
:10B5CC0002FF9DF80330002B05D0039B1B680599E7
:10B5DC001846FFF793FE00BF07B05DF804FB00BFF1
:10B5EC00741C020000B585B00390029113468DF8CF
:10B5FC000730039B002B03D10B49A92004F0A2F8C0
:10B60C00039B1B6802991846FFF7DDFE9DF8073077
:10B61C00002B05D0039B1B6802991846FFF76EFEA2
:10B62C0000BF05B05DF804FB741C020000B583B0CC
:10B63C0001900091019B002B03D10A49B32004F027
:10B64C0081F8019B1B6800991846FFF7C6FE019B09
:10B65C001B6800991846FFF75BFE00BF03B05DF84E
:10B66C0004FB00BF741C020000B583B001900B46B4
:10B67C00ADF80230019B002B03D10F49BA2004F026
:10B68C0061F8019B1B68BDF8022011461846FFF7B4
:10B69C0049FE0346002B09D0019B1B68BDF8022014
:10B6AC0011461846FFF74BFE012300E00023184615
:10B6BC0003B05DF804FB00BF741C020082B0019063
:10B6CC000091019A009BD31A23F07F43184602B0D5
:10B6DC007047000000B58BB003900291019200936B
:10B6EC00039B002B03D15749CD2004F02BF84FF4CA
:10B6FC008032029B02FA03F30993029B50339BB2F4
:10B70C009B00ADF82230019B23F07F4301930999F4
:10B71C000398FFF78BFF039B1B681846FFF724FE6B
:10B72C000790039B1B6802991846FFF7DBFD0690F8
:10B73C00039B1B68079A02991846FFF7C5FD039BEC
:10B74C001B68BDF8222011461846FFF7F8FD079933
:10B75C000698FFF7B3FF0346012B0AD11020FFF721
:10B76C009BFD039B1B68BDF8222011461846FFF772
:10B77C00E6FD039B1B681846FFF7F6FD079007993B
:10B78C000198FFF79BFF0590039B1B6809991846CE
:10B79C00FFF719FE059B012B15D1039B1868019B24
:10B7AC0001331A460299FFF78FFD1020FFF774FD45
:10B7BC00039B1B681846FFF7D7FD0246079B934275
:10B7CC0035D00D2339E0039B1B68019A029918466A
:10B7DC00FFF77AFD039B1B681846FFF7C5FD079022
:10B7EC00019B013B07991846FFF768FF0590009BEA
:10B7FC00C3F1FF1303F57F43059A9A4201D90D2338
:10B80C001BE0059B002B12D1039B1868019B013395
:10B81C001A460299FFF758FD039B1B681846FFF761
:10B82C00A3FD0246079B934201D00D2305E00122A4
:10B83C0009990398FFF7D6FE002318460BB05DF864
:10B84C0004FB00BF741C020000B583B001900B46D2
:10B85C008DF803309DF803301A4602210198FFF74A
:10B86C00C1FE00BF03B05DF804FB00B583B00190CE
:10B87C004FF482710198FFF7F7FE0346184603B0A8
:10B88C005DF804FB00B583B0019000914FF4803259
:10B89C00009B02FA03F319460198FFF7C7FE00BF9D
:10B8AC0003B05DF804FB00B585B001900091009BDE
:10B8BC0050339BB29B00ADF80E30BDF80E301946DC
:10B8CC000198FFF7D1FE0346184605B05DF804FB5E
:10B8DC0000B583B001900091019B1B68009918463C
:10B8EC00FFF700FD0346184603B05DF804FB00B5F6
:10B8FC0083B00190019B1B681846FFF735FD03468A
:10B90C00184603B05DF804FB00B583B00190019BB1
:10B91C0093F904301846FFF741FC00BF03B05DF803
:10B92C0004FB000008B5044B1B68044A126810465F
:10B93C00984700BF08BD00BFD0180020D4180020C5
:10B94C0086B001900091019B53E8011F8AB2D889FF
:10B95C0002449889824228BF121A1889824202BF77
:10B96C00BFF32F8F002307E0C2EA010243E8012056
:10B97C000028E9D14FF001038DF80F3005900291AA
:10B98C000492029A009B1A609DF80F30DBB21846A5
:10B99C0006B0704784B00190019951E8013FC3EAA9
:10B9AC00034341E80132002AF7D10392029300BF0E
:10B9BC0004B0704786B001900091019B53E8021FC0
:10B9CC001FFAA1F2D888824202BFBFF32F8F002347
:10B9DC000DE0D88902449889824228BF121AC1EA24
:10B9EC00024243E802200028E8D14FF001038DF811
:10B9FC000F30059002910492029A009B1A609DF8F8
:10BA0C000F30DBB2184606B0704784B00190019934
:10BA1C0051E8023FC3EA234341E80232002AF7D13E
:10BA2C000392029300BF04B0704784B0039002915C
:10BA3C0011461A460B46ADF806301346ADF80430E5
:10BA4C00029B002B01D10E231FE0BDF80630BDF880
:10BA5C000420B3FBF2F101FB02F29B1A9BB2002B08
:10BA6C0001D0092311E0039B029A1A60039B002268
:10BA7C005A60039B00229A60039BBDF806209A81B2
:10BA8C00039BBDF80420DA810023184604B07047EC
:10BA9C0000B585B001900091009B19460198FFF705
:10BAAC004FFF0346002B07D0019B1B68009A12889E
:10BABC0013440393039B00E00023184605B05DF884
:10BACC0004FB00B583B001900091009B1A88009B89
:10BADC005B889A4204D10198FFF75CFF012300E0D8
:10BAEC000023184603B05DF804FB00B585B0019047
:10BAFC000091009B19460198FFF75CFF0346002B51
:10BB0C0007D0019B1B68009A528813440393039B34
:10BB1C0000E00023184605B05DF804FB00B583B0C7
:10BB2C0001900091009B1A88009B5B889A4204D17B
:10BB3C000198FFF76AFF012300E00023184603B0C9
:10BB4C005DF804FB10B487B001900091019B009A42
:10BB5C0053E8004F104643E8000191F0000FF7D175
:10BB6C00059404900391059B184607B010BC7047D0
:10BB7C0010B487B001900091019B009A53E8004FDC
:10BB8C0044EA020043E8000191F0000FF6D105945D
:10BB9C0004900391049B184607B010BC704710B476
:10BBAC0087B001900091019B009A53E8004F04EA82
:10BBBC00020043E8000191F0000FF6D105940490C7
:10BBCC000391059B184607B010BC704710B487B0A2
:10BBDC0001900091019B009A53E8004F04EB020086
:10BBEC0043E8000191F0000FF6D105940490039105
:10BBFC00049B184607B010BC704710B487B0019076
:10BC0C000091019B009A53E8004FA4EB020043E81B
:10BC1C00000191F0000FF6D1059404900391049B60
:10BC2C00184607B010BC704700B583B001900121D5
:10BC3C000198FFF79DFF0346184603B05DF804FB1F
:10BC4C0000B583B0019000210198FFF7A8FF0346CF
:10BC5C00184603B05DF804FB00B583B001900B46A9
:10BC6C008DF80330019B002B03D10849E82003F029
:10BC7C0069FD019BDA689DF803300199098A01FB83
:10BC8C0003F31344184603B05DF804FB181D0200BF
:10BC9C0000B583B001900091019B002B03D10849A2
:10BCAC00F52003F04FFD009B019AD2689B1A019A74
:10BCBC00128AB3FBF2F3DBB2184603B05DF804FB57
:10BCCC00181D020000B585B00190019B002B01D11D
:10BCDC000E234CE0019B1B68002B03D12649FF204F
:10BCEC0003F030FD019B5B68002B04D122494FF41B
:10BCFC00807003F027FD019B9B68002B04D11E492B
:10BD0C0040F2011003F01EFD019BDB68002B04D1F7
:10BD1C0019494FF4817003F015FD019B1B8A002B10
:10BD2C0004D1154940F2031003F00CFD019B9A68F5
:10BD3C00019B5B68D31A8DF80F30019B1B68019A2D
:10BD4C0052681A6007E0019B1A681368591C11604D
:10BD5C009DF80F201A709DF80F305A1E8DF80F2089
:10BD6C00002BF0D1019B1B6800221A71002318468E
:10BD7C0005B05DF804FB00BF181D020000B585B0CE
:10BD8C000190019B002B04D11F494FF4927003F0DA
:10BD9C00D9FC0023039300238DF80A300DF10A031C
:10BDAC001846FFF793F9019B1B681A68019B5B68A7
:10BDBC009A421FD9019B1B681A68013A1A601B68CA
:10BDCC001B7819460198FFF747FF0390019B9A686F
:10BDDC00019B1B681B68D31A8DF80B30019B1B68E9
:10BDEC001B799DF80B209A4204D9019B1B689DF886
:10BDFC000B201A719DF80A301846FFF77DF9039B4A
:10BE0C00184605B05DF804FB181D020010B584B08F
:10BE1C0001900091019B002B04D1154940F2471071
:10BE2C0003F090FC009B002B04D111494FF4A4703B
:10BE3C0003F088FC009B039300238DF80B300DF16D
:10BE4C000B031846FFF742F9019B1B681C68621C28
:10BE5C001A6003990198FFF71BFF034623709DF8A6
:10BE6C000B301846FFF748F900BF04B010BD00BFF7
:10BE7C00181D020000B583B00190019B002B03D16B
:10BE8C000C49312003F05EFC019B9B68002B0CD00D
:10BE9C00019B5B69019A1069019A1168019A926879
:10BEAC009847019B00229A6000E000BF03B05DF848
:10BEBC0004FB00BF6C1D02000EB400B584B00190F1
:10BECC00019B002B03D11849422003F03BFC019B42
:10BEDC005B69002B03D11449432003F033FC019B15
:10BEEC001B68002B03D11049442003F02BFC019B51
:10BEFC005B68002B03D10C49452003F023FC059B08
:10BF0C00002B0AD00023039306AB039303AB1A4612
:10BF1C000599019800F0B8F900E000BF04B05DF895
:10BF2C0004EB03B0704700BF6C1D020000B583B07A
:10BF3C0001900B468DF803309DF803300A2B03D18A
:10BF4C000D210198FFF7F2FF019B1A68019B9B687A
:10BF5C00581C0199886013449DF803201A70019BAA
:10BF6C009A68019B5B689A4202D30198FFF782FFA3
:10BF7C0000BF03B05DF804FB00B587B003900291DD
:10BF8C000192009300230593009B03F00103002B07
:10BF9C0024D00BE0029B01330293059B01330593E4
:10BFAC009DF8133019460398FFF7C0FF029B1B78CE
:10BFBC008DF813309DF81330002BEBD106E0019B6C
:10BFCC00013B019320210398FFF7B0FF019A059BD9
:10BFDC009A422ED9019B002BF1D12AE0029B002B17
:10BFEC000BD0029805F0ACFB059006E0019B013BE1
:10BFFC00019320210398FFF799FF019A059B9A4220
:10C00C000FD9019B002BF1D10BE0029B0133029362
:10C01C00059B013305939DF8133019460398FFF7E0
:10C02C0085FF029B1B788DF813309DF81330002B85
:10C03C00EBD100BF07B05DF804FB000000B589B080
:10C04C000390029101920093029B079301230693A4
:10C05C0007E0079A019BB2FBF3F30793069B0133AE
:10C06C000693079A019B9A42F3D2009A069B9A4236
:10C07C0001D9009B06930B9B03F00103002B22D1EB
:10C08C000A9B002B1FD00B9B03F00203002B06D046
:10C09C00009B002B03D130238DF8173002E02023B6
:10C0AC008DF8173008E00A9B013B0A939DF8173076
:10C0BC0019460398FFF73AFF0A9B002B03D0069A08
:10C0CC000A9B9A42EFD301230793009B012B03D9C0
:10C0DC00009B013B009309E0029A079BB2FBF3F330
:10C0EC000493049A019B9A4200D205E0079B019AA3
:10C0FC0002FB03F30793E8E7029A079BB2FBF3F307
:10C10C000493049B079A02FB03F3029AD31A02933B
:10C11C00154A049B13441B7819460398FFF706FF36
:10C12C00079A019BB2FBF3F30793079B002BE3D118
:10C13C000B9B03F00103002B11D00A9B002B0ED09C
:10C14C0006E00A9B013B0A9320210398FFF7EEFEC1
:10C15C000A9B002B03D0069A0A9B9A42F1D300BF8C
:10C16C0009B05DF804FB00BF041E020000B589B0E5
:10C17C000590049103920293049B002BB8BF5B4281
:10C18C0006930123079307E0039B069A92FBF3F3B4
:10C19C000693079B01330793039B069A9A42F3DAA3
:10C1AC00029A079B9A4201D9029B07930A9B002B88
:10C1BC000AD0049B002B04DB0B9B03F00403002B25
:10C1CC0002D00A9B013B0A930B9B03F00203002B4A
:10C1DC0002D0029B002B16D00B9B03F00103002B0B
:10C1EC0011D10A9B002B0ED006E00A9B013B0A934F
:10C1FC0020210598FFF79AFE0A9B002B03D0079A83
:10C20C000A9B9A42F1D3049B002B07DA049B5B42F6
:10C21C0004932D210598FFF789FE08E00B9B03F092
:10C22C000403002B03D02B210598FFF77FFE0B9BFB
:10C23C0003F00203002B19D00B9B03F00103002B1E
:10C24C0014D1029B002B11D10A9B002B0ED006E0BF
:10C25C000A9B013B0A9330210598FFF767FE0A9B66
:10C26C00002B03D0079A0A9B9A42F1D304990B9B9B
:10C27C0001930A9B0093029B039A0598FFF7DEFE3D
:10C28C0000BF09B05DF804FB00B58FB005900491B8
:10C29C000392059B002B04D1AD4940F2522003F0D0
:10C2AC0051FA059B5B69002B04D1A9494FF4157019
:10C2BC0003F048FA059B1B68002B04D1A44940F2FB
:10C2CC00552003F03FFA059B5B68002B04D1A04975
:10C2DC0040F2562003F036FA049B002B00F09381B9
:10C2EC00049B1B788DF83730049B013304939DF825
:10C2FC003730002B00F07E819DF83730252B40F035
:10C30C006D8100230A9301230C93049B1B788DF8F9
:10C31C0037309DF83730302B0DD0302B1BDC2B2BCE
:10C32C0011D02D2B17D10A9B43F001030A93049BC8
:10C33C000133049312E00A9B43F002030A93049B1B
:10C34C00013304930AE00A9B43F004030A93049B11
:10C35C000133049302E000230C9300BF0C9B002BD1
:10C36C00D3D1002309939DF837302A2B0CD1039B92
:10C37C001B68191D039A11601B68099A13440993D1
:10C38C00049B013304931AE0049B1B788DF837301F
:10C39C009DF837302F2B12D99DF83730392B0ED80A
:10C3AC00049B01330493099A13469B0013445B00CE
:10C3BC001A469DF837301344303B0993D3E70023DA
:10C3CC000B93049B1B788DF837309DF837302E2B50
:10C3DC001DD1049B01330493049B1B788DF83730DB
:10C3EC009DF837302F2B12D99DF83730392B0ED8BA
:10C3FC00049B013304930B9A13469B0013445B007C
:10C40C001A469DF837301344303B0B93E4E7049BFA
:10C41C001B788DF837309DF837306C2B03D09DF896
:10C42C003730682B07D1049B01330493049B1B7892
:10C43C008DF83730EFE79DF83730252B00F0C480AE
:10C44C00252BC0F2C680782B00F3C380582BC0F28A
:10C45C00C080583B202B00F2BC8001A252F823F084
:10C46C0061C50100DFC50100DFC50100DFC50100AA
:10C47C00DFC50100DFC50100DFC50100DFC501001C
:10C48C00DFC50100DFC50100DFC50100F1C40100FB
:10C49C0013C50100DFC50100DFC50100DFC50100C8
:10C4AC00DFC5010013C50100DFC50100DFC50100B8
:10C4BC00DFC50100DFC50100DFC50100DFC50100DC
:10C4CC00A1C50100DFC50100DFC5010085C5010064
:10C4DC00DFC5010037C50100DFC50100DFC5010064
:10C4EC0061C50100039B1B68191D039A11601B6831
:10C4FC000C930C9B8DF81F309DF81F301946059836
:10C50C00FFF714FD66E0039B1B68191D039A11606D
:10C51C001B680C930A9B0193099B00930B9B0A22AB
:10C52C000C990598FFF722FE54E0039B1B68191D1C
:10C53C00039A11601B680C930C990A9B0193099B3D
:10C54C0000930B9B0A220598FFF778FD42E000BF91
:10C55C00B41D0200039B1B68191D039A11601B6814
:10C56C000C930C990A9B0193099B00930B9B102233
:10C57C000598FFF763FD2DE0039B1B68191D039ABB
:10C58C0011601B6808930A9B099A08990598FFF794
:10C59C00F3FC1FE0039B1B68191D039A11601B68B9
:10C5AC000C9330210598FFF7C1FC78210598FFF713
:10C5BC00BDFC0C990023019308230093082310223F
:10C5CC000598FFF73BFD05E025210598FFF7AEFC2C
:10C5DC0000E000BF049B0133049305E09DF8373065
:10C5EC0019460598FFF7A2FC049B1B78002B7FF4DF
:10C5FC0077AE00E000BF059B1B7B002B04D0059899
:10C60C00FFF738FC00E000BF0FB05DF804FB00BF83
:10C61C0000B583B001900198FFF754FB0346184610
:10C62C0003B05DF804FB00B58BB001900091019B49
:10C63C001B8A043B0793009A079B1344DA1C079B45
:10C64C00B2FBF3F38DF81B300198FFF797FB0590C5
:10C65C00059B002B01D1002338E0059B00221A71A9
:10C66C00059B01225A71079B9AB2059BDA80059BA8
:10C67C0009939DF81B30013B0493099B019A1A60A6
:10C68C00002308931DE00198FFF778FB0390039BB0
:10C69C00002B0ED0059B5B790133DAB2059B5A71E6
:10C6AC00099B039A1A60039B019A1A60039B0993D6
:10C6BC0004E0059800F00EF8002307E0089B013316
:10C6CC000893089A049B9A42DDD3059B18460BB03D
:10C6DC005DF804FB00B58BB00190019B0793079BA1
:10C6EC005B798DF81B30019B08939DF81B30013B47
:10C6FC0005930023099305E0089B1B680893099B8D
:10C70C0001330993099A059B9A42F5D3089B1B6840
:10C71C000493019B0893002309930BE0089B1B686F
:10C72C00039308990498FFF771FB039B0893099BEB
:10C73C00013309939DF81B30099A9A42EED300BF3E
:10C74C0000BF0BB05DF804FB00B585B00190019BF8
:10C75C000393039B043301211846FFF737FA00BFFC
:10C76C0005B05DF804FB00B587B00190019B059303
:10C77C00059B043301211846FFF73FFA0346039348
:10C78C0003AB0493049B1B78002B02D10198FFF799
:10C79C00A1FF00BF07B05DF804FB000000B591B02D
:10C7AC000390029101920093039B002B03D1434908
:10C7BC00B62002F0C7FF039B0993039B0F93099BC1
:10C7CC00DB881A46099B5B7902FB03F3043B089355
:10C7DC00009A089B9A4203D33849C42002F0B2FF56
:10C7EC00099BDB880793009B1A1D079BB2FBF3F395
:10C7FC000E93009B0433079AB3FBF2F2079901FBEB
:10C80C0002F29B1A0D93019B1A68009B1344089A21
:10C81C009A4203D2089A009BD31A01E0019B1B6831
:10C82C000C93019B0C9A1A6005E00F9B1B680F93ED
:10C83C000E9B013B0E930E9B002BF6D100230B930A
:10C84C00079A0D9BD31A0A930A9A0C9B934228BF02
:10C85C0013460A932AE0029A0B9B134406930F9AF1
:10C86C000D9B1344043305939DF84830002B05D0E1
:10C87C000A9A0599069804F007FF04E00A9A0699AB
:10C88C00059804F001FF00230D930F9B1B680F9379
:10C89C000C9A0A9BD31A0C930B9A0A9B13440B9376
:10C8AC00079A0C9B934228BF13460A930C9B002BB0
:10C8BC00D1D100BF00BF11B05DF804FB141E020003
:10C8CC0000B589B00590049103920293039B0793E2
:10C8DC0007AA00230093029B04990598FFF75EFFBB
:10C8EC00079B039A9A4203D00349F62002F02AFFD1
:10C8FC0000BF09B05DF804FB141E020000B589B03E
:10C90C000590049103920293039B079307AA0123BA
:10C91C000093029B04990598FFF740FF079B039A2D
:10C92C009A4204D004494FF4807002F00BFF00BF10
:10C93C0009B05DF804FB00BF141E020000B583B003
:10C94C000190019B002B03D10649722002F0FAFEE4
:10C95C00019B00221A60BFF35F8F00BF00BF03B0C2
:10C96C005DF804FBBC1E020041DF704700BF184697
:10C97C0008B5064B00221A700548FFF7DFFF054982
:10C98C00054800F049F80023184608BDE0180020BF
:10C99C00DC180020581F0200E418002000B583B0FA
:10C9AC0004F01AFB0346002B0ED0FFF7DDFF0190BD
:10C9BC00019B002B0BD0019B022B08D006494FF496
:10C9CC00B07002F0BFFE02E020BF40BF20BF00BF2E
:10C9DC0003B05DF804FB00BF001F020082B00190A1
:10C9EC00019B9B6800229A60019B9B6800221A6144
:10C9FC00019B9B6800225A61019B9B680022DA60B4
:10CA0C00019B9B6800225A60019B9B6800221A6064
:10CA1C0000BF02B07047000000B583B001900091D8
:10CA2C00019B002B03D11049502002F08BFE009B80
:10CA3C00002B03D10C49512002F084FE019B009A7B
:10CA4C001A60019B1B681A68019B5A60019B5A680B
:10CA5C00019B1B685B689A4202D1019B00225A60C1
:10CA6C0000BF03B05DF804FB641F020000B583B087
:10CA7C000190019B002B03D11449632002F062FE4C
:10CA8C00019B1B68002B03D11049642002F05AFE55
:10CA9C00019B5B68002B14D0019B5B681A46019BC1
:10CAAC001B689B6813441A46019B5A60019B5A6889
:10CABC00019B1B685B689A4204D1019B00225A605F
:10CACC0000E000BF03B05DF804FB00BF641F020070
:10CADC0000B585B001900091019B002B03D1184942
:10CAEC003A2002F02FFE009B002B03D114493B206F
:10CAFC0002F028FE019B5B6803930FE0019B9B688F
:10CB0C00039A1268009910469847034683F0010374
:10CB1C00DBB2002B07D1039B1B680393039B1B68A1
:10CB2C00002BEBD100E000BF039B1A68009B1A603E
:10CB3C00039B009A1A6000BF05B05DF804FB00BFB0
:10CB4C00DC1F020000B585B00190019B002B03D1C6
:10CB5C000C49512002F0F6FD019B5B681B680393A6
:10CB6C00019B5B681B68002B06D0019B5B681A68F5
:10CB7C00019B5B6812681A60039B184605B05DF850
:10CB8C0004FB00BFDC1F020000B583B00190019BC9
:10CB9C00002B03D105495D2002F0D4FD019B5B689D
:10CBAC001B68184603B05DF804FB00BFDC1F0200D5
:10CBBC0000B585B001900091019B002B03D1164963
:10CBCC00692002F0BFFD009B002B03D112496A20A3
:10CBDC0002F0B8FD00238DF80B30019B5B680393CA
:10CBEC000FE0039B1B68009A9A4207D1009B1A68BE
:10CBFC00039B1A6001238DF80B3006E0039B1B6826
:10CC0C000393039B1B68002BEBD19DF80B3018464C
:10CC1C0005B05DF804FB00BFDC1F020000B585B059
:10CC2C000190019800F00EF80390039B002B01D0AB
:10CC3C00039B00E0024B184605B05DF804FB00BFF7
:10CC4C003420020086B00190164B0593164B0493CA
:10CC5C001FE0049A059BD31ADB10DA0F13445B1008
:10CC6C00DB00059A13440393039B1B680293029AFF
:10CC7C00019B9A4202D9039B04930AE0029A019BFE
:10CC8C009A4203D2039B0833059302E0039B5B6833
:10CC9C0004E0059A049B9A42DBD30023184606B0A5
:10CCAC00704700BF342402005C250200BFF34F8F95
:10CCBC0000BF064BDB6803F4E0620449044B1343EA
:10CCCC00CB60BFF34F8F00BF00BFFDE700ED00E06E
:10CCDC000400FA0582B00A4B1B680193094B1B68D0
:10CCEC000093019B0E2B06D1009B002B01D101233D
:10CCFC0002E0012300E00023184602B0704700BF99
:10CD0C00300100103401001082B01B4B1B680193E2
:10CD1C001A4B1B680093019B082B1FD1009B052B02
:10CD2C001AD801A252F823F04DCD010051CD0100CB
:10CD3C0055CD010059CD01005DCD010061CD010043
:10CD4C00012316E0012314E0012312E0012310E07B
:10CD5C0001230EE001230CE001230AE0019B0E2BC2
:10CD6C0006D1009B002B01D1012302E0012300E03E
:10CD7C000023184602B07047300100103401001037
:10CD8C0082B01B4B1B6801931A4B1B680093019BD1
:10CD9C00082B1FD1009B052B1AD801A252F823F0A7
:10CDAC00C5CD0100C9CD0100CDCD0100D1CD010013
:10CDBC00D5CD0100D9CD0100012316E0012314E0EB
:10CDCC00012312E0012310E001230EE001230CE00B
:10CDDC0001230AE0019B0E2B06D1009B002B01D1F5
:10CDEC00012302E0012300E00023184602B0704743
:10CDFC00300100103401001082B0164B1B680193F7
:10CE0C00154B1B680093019B082B1FD1009B052B16
:10CE1C001AD801A252F823F03DCE010041CE0100F8
:10CE2C0045CE010049CE01004DCE010051CE01008E
:10CE3C0001230CE000230AE0002308E0002306E0B5
:10CE4C00002304E0002302E0002300E00023184646
:10CE5C0002B07047300100103401001082B0164B44
:10CE6C001B680193154B1B680093019B082B1FD16A
:10CE7C00009B052B1AD801A252F823F0A1CE010079
:10CE8C00A5CE0100A9CE0100ADCE0100B1CE0100AE
:10CE9C00B5CE010001230CE000230AE0002308E0DA
:10CEAC00002306E0002304E0002302E0002300E05E
:10CEBC000023184602B070473001001034010010F6
:10CECC0082B0164B1B680193154B1B680093019B9A
:10CEDC00082B1FD1009B052B1AD801A252F823F066
:10CEEC0005CF010009CF01000DCF010011CF0100CA
:10CEFC0015CF010019CF010001230CE000230AE03B
:10CF0C00002308E0002306E0002304E0002302E0F5
:10CF1C00002300E00023184602B0704730010010D7
:10CF2C003401001082B0164B1B680193154B1B6823
:10CF3C000093019B082B1FD1009B052B1AD801A233
:10CF4C0052F823F069CF01006DCF010071CF0100C1
:10CF5C0075CF010079CF01007DCF010001230CE0DA
:10CF6C0000230AE0002308E0002306E0002304E08D
:10CF7C00002302E0002300E00023184602B07047B3
:10CF8C00300100103401001082B01B4B1B68019360
:10CF9C001A4B1B680093019B082B1FD1009B052B80
:10CFAC001AD801A252F823F0CDCF0100D1CF010045
:10CFBC00D5CF0100D9CF0100DDCF0100E1CF0100B9
:10CFCC00012316E0012314E0012312E0012310E0F9
:10CFDC0001230EE001230CE001230AE0019B0E2B40
:10CFEC0006D1009B002B01D1012302E0012300E0BC
:10CFFC000023184602B070473001001034010010B5
:10D00C0082B00A4B1B680193094B1B680093019B70
:10D01C000E2B06D1009B002B01D1012302E0012332
:10D02C0000E00023184602B0704700BF300100102A
:10D03C003401001082B0164B1B680193154B1B6812
:10D04C000093019B082B1FD1009B052B1AD801A222
:10D05C0052F823F079D001007DD0010081D001007D
:10D06C0085D0010089D001008DD0010000230CE097
:10D07C0000230AE0002308E0002306E0012304E07B
:10D08C00012302E0012300E00023184602B07047A0
:10D09C00300100103401001008B5FFF7CBFF034638
:10D0AC00002B07D04FF010234FF08042D3F80832FA
:10D0BC00C2F8583500BF08BD00BF044BD3F800348C
:10D0CC00002BFAD000BF00BF704700BF00E001404A
:10D0DC0000B583B00190054A019BC2F80435FFF7F7
:10D0EC00EBFF00BF03B05DF804FB00BF00E00140A4
:10D0FC00024B034A1A6000BF704700BF6411002046
:10D10C000090D00308B5FFF7E5FD0346002B06D0D1
:10D11C008C4B1B685B0B8C4A03F007031360FFF707
:10D12C00F3FD0346002B0ED04FF080430022C3F8D2
:10D13C000C214FF080430022C3F810214FF08043A4
:10D14C000022C3F83825FFF71BFE0346002B76D0D0
:10D15C004FF080537D4AD3F80434C2F820354FF099
:10D16C0080537A4AD3F80834C2F824354FF08053F0
:10D17C00764AD3F80C34C2F828354FF08053734AF2
:10D18C00D3F81034C2F82C354FF080536F4AD3F8D3
:10D19C001434C2F830354FF080536C4AD3F818343D
:10D1AC00C2F834354FF08053684AD3F81C34C2F8B7
:10D1BC0040354FF08053654AD3F82034C2F84435DB
:10D1CC004FF08053614AD3F82434C2F848354FF0FD
:10D1DC0080535E4AD3F82834C2F84C354FF0805354
:10D1EC005A4AD3F82C34C2F850354FF08053574A72
:10D1FC00D3F83034C2F854354FF08053534AD3F837
:10D20C003434C2F860354FF08053504AD3F8383478
:10D21C00C2F864354FF080534C4AD3F83C34C2F812
:10D22C0068354FF08053494AD3F84034C2F86C3516
:10D23C004FF08053454AD3F84434C2F87035FFF7A9
:10D24C00DBFD0346002B02D0414B424A1A60FFF72C
:10D25C0005FE0346002B03D03F4BFB22C3F81825D9
:10D26C00FFF72EFE0346002B0AD03C4B1B6823F025
:10D27C000F023B4B1B6803F00F03384913430B6041
:10D28C00FFF750FE0346002B03D0364B4FF40072D1
:10D29C001A60FFF779FE0346002B0DD04FF0804348
:10D2AC00D3F8003403F00103002B05D04FF080437A
:10D2BC006FF00102C3F80024FFF7A2FE0346002B17
:10D2CC0005D0264B1B68254A43F00F031360FFF76C
:10D2DC00E3FE4FF01023D3F80032002B05DB4FF0A8
:10D2EC001023D3F80432002B15DA0120FFF7F0FEDF
:10D2FC004FF010231222C3F80022FFF7DDFE4FF08F
:10D30C0010231222C3F80422FFF7D6FE0020FFF7E9
:10D31C00DFFEFFF7CBFC144B1B6803F00103002B63
:10D32C000CD00120FFF7D4FE0F4B00221A60FFF740
:10D33C00C3FE0020FFF7CCFEFFF7B8FCFFF7D8FECA
:10D34C0000BF08BD440200103C05004000C0004076
:10D35C008C5600404881030000F00040E40E004071
:10D36C0058020010409602400C12001000B583B019
:10D37C000190019B1B68184600F09DF80346002B9A
:10D38C0004D105494FF4F67002F0DCF94FF0A043DC
:10D39C00184603B05DF804FB5C25020000B585B0AF
:10D3AC00019001AB1846FFF7E1FF0390019B0122AE
:10D3BC0002FA03F31946039800F069F800BF05B0B0
:10D3CC005DF804FB00B585B0019001AB1846FFF782
:10D3DC00CDFF0390019B012202FA03F31946039837
:10D3EC0000F05FF800BF05B05DF804FB00B585B038
:10D3FC00019001AB1846FFF7B9FF0390039BD3F8DC
:10D40C0004350293029BDA43019B012101FA03F3D9
:10D41C001A40039BC3F80825019B01229A40029BEA
:10D42C001A40039BC3F80C2500BF05B05DF804FB44
:10D43C0000B583B001900091009B002B03D10198A3
:10D44C00FFF7C0FF02E00198FFF7A8FF00BF03B091
:10D45C005DF804FB00B585B0019001AB1846FFF7F1
:10D46C0085FF0390039800F00AF80246019B22FA0C
:10D47C0003F303F00103184605B05DF804FB82B01A
:10D48C000190019BD3F80435184602B0704782B066
:10D49C0001900091019B009AC3F8082500BF02B0CF
:10D4AC00704782B001900091019B009AC3F80C2543
:10D4BC0000BF02B0704784B00190019B5B090293DE
:10D4CC0000230393029B002B03D14FF0FF330393F4
:10D4DC0000BF019B03F01F030193039A019B22FAE7
:10D4EC0003F303F00103002B14BF01230023DBB271
:10D4FC00184604B07047000000B585B00190019B40
:10D50C00032B03D911493A2002F01CF9104A019B54
:10D51C0013441B781846FFF79DFF0346002B14BFDE
:10D52C00012300238DF80F309DF80F30002B14BF12
:10D53C0001230023DBB283F00103DBB203F0010310
:10D54C00DBB2184605B05DF804FB00BF8C25020069
:10D55C00D025020000B583B00190019B032B03D9A9
:10D56C000749412002F0EEF8064A019B13441B7850
:10D57C0000211846FFF75CFF00BF03B05DF804FB09
:10D58C008C250200D025020000B583B00190019BD0
:10D59C00032B03D90749472002F0D4F8064A019B14
:10D5AC0013441B7801211846FFF742FF00BF03B05C
:10D5BC005DF804FB8C250200D025020000B583B079
:10D5CC000023019305E00198FFF7DEFF019B013377
:10D5DC000193019B032BF6D900BF00BF03B05DF88C
:10D5EC0004FB00B583B00023019305E00198FFF71D
:10D5FC00B1FF019B01330193019B032BF6D900BFB3
:10D60C0000BF03B05DF804FB00B583B00190019B33
:10D61C00032B03D907495F2002F094F8064A019BBB
:10D62C0013441B781846FFF7E1FE00BF03B05DF80A
:10D63C0004FB00BF8C250200D025020082B00346FB
:10D64C008DF807309DF90730002B13DB9DF8073060
:10D65C0003F01F0209499DF907305B09012000FA0C
:10D66C0002F2203341F82320BFF34F8F00BFBFF3EA
:10D67C006F8F00BF00BF02B0704700BF00E100E039
:10D68C00044BD3F80034002B14BF01230023DBB26E
:10D69C00184670470000014008B503F09DFC034696
:10D6AC0083F00103DBB2002B03D109497B2002F08C
:10D6BC0049F8FFF7E5FF034683F00103DBB2002BCB
:10D6CC0004D000F029FB034B00229A7000BF08BD68
:10D6DC00DC250200EC18002000B583B00023019378
:10D6EC00184B1B78002B02D0852301931CE0154BA3
:10D6FC0000229A60134B00225A60124B00221A61CE
:10D70C00104B0022DA60104800F0B6FA019003F0DA
:10D71C0063FC034683F00103DBB2002B01D000F065
:10D72C00CDFA084B01221A70FFF7AAFF0346002B13
:10D73C0002D0044B01229A70019B184603B05DF88D
:10D74C0004FB00BFEC1800201DD9010084B001902F
:10D75C000091019B1B68039306E0039A009B9A427D
:10D76C000DD0039B1B680393039B002BF5D1019BEE
:10D77C001A68009B1A60019B009A1A6000E000BFB7
:10D78C0004B0704784B00190019B1B680393039B0A
:10D79C00002B03D0039B1A68019B1A60039B18464D
:10D7AC0004B0704700B585B00190294B1B78002B55
:10D7BC0003D12849F62001F0C5FF254B9B78DBB23D
:10D7CC00002B19D0019B002B03D0019B5B6801201F
:10D7DC00984700238DF80F300DF10F031846FDF715
:10D7EC0075FC1B4BDB680133194AD3609DF80F3075
:10D7FC001846FDF781FC1EE000238DF80E300DF16C
:10D80C000E031846FDF762FC019B002B03D0019917
:10D81C001148FFF79BFF0E4BDB68002B01D100F08A
:10D82C0061FA0B4BDB680133094AD3609DF80E306B
:10D83C001846FDF761FC064BDB68002B04D105494B
:10D84C004FF4897001F07EFF00BF05B05DF804FB5A
:10D85C00EC180020DC250200FC18002000B583B079
:10D86C00164B1B78002B04D1154940F2171001F010
:10D87C0069FF124BDB68002B04D111494FF48C70FB
:10D88C0001F060FF00238DF807300DF107031846F7
:10D89C00FDF71CFC094BDB68013B084AD360074BC6
:10D8AC00DB68002B01D1FFF7F7FE9DF80730184617
:10D8BC00FDF722FC00BF03B05DF804FBEC18002060
:10D8CC00DC25020000B585B003468DF807309DF8C5
:10D8DC000730002B02D10C4B039301E00B4B03934D
:10D8EC000398FFF74FFF0290029B002B06D0029B80
:10D8FC005B689DF8072010469847F1E700BF00BF12
:10D90C0005B05DF804FB00BFF4180020FC180020E3
:10D91C0000B583B003468DF807309DF80730002B17
:10D92C0005D10A4B01225A700020FFF7CBFF9DF85E
:10D93C000730012B05D1054B01229A700120FFF70E
:10D94C00C1FF00BF03B05DF804FB00BFEC18002062
:10D95C0000B583B001900091019B002B05D1054BC4
:10D96C0001225A700020FFF7ADFF00BF03B05DF835
:10D97C0004FB00BFEC18002000B585B003460091F5
:10D98C008DF807309DF80730032B29D0032B35DC9D
:10D99C00002B02D0012B04D030E00020FFF74EFE0C
:10D9AC002DE000238DF80F300DF10F031846FDF715
:10D9BC008DFB154B1B7883F00103DBB2002B01D0E0
:10D9CC00FFF78AFE104BDB6801330F4AD3600E4B16
:10D9DC0001229A709DF80F301846FDF78DFB0EE072
:10D9EC00094B1B78002B04D1084940F2522001F05E
:10D9FC00A9FE00F063F9FFF731FF00E000BF00BFA4
:10DA0C0005B05DF804FB00BFEC180020DC2502001B
:10DA1C0082B003468DF807309DF90730002B0CDBE4
:10DA2C009DF8073003F01F0205499DF907305B098B
:10DA3C00012000FA02F241F8232000BF02B0704727
:10DA4C0000E100E082B0034600918DF807309DF9AB
:10DA5C000730002B0ADB009BDAB20C499DF907302A
:10DA6C005201D2B20B4483F800230BE0009BDAB2D4
:10DA7C0007499DF8073003F00F03043B5201D2B263
:10DA8C000B441A7600BF02B0704700BF00E100E003
:10DA9C0000ED00E082B00190019B1B0B5BB21846BD
:10DAAC0002B0704700B583B003460A468DF80730C4
:10DABC0013468DF806309DF80630012B03D99DF8DE
:10DACC000630032B0BD99DF80630042B03D99DF897
:10DADC000630072B03D908496B2001F033FE9DF863
:10DAEC0006209DF9073011461846FFF7ABFF00BF23
:10DAFC0003B05DF804FB00BF3026020000B583B014
:10DB0C0003468DF807309DF907301846FFF780FF64
:10DB1C0000BF03B05DF804FB82B003468DF80730FC
:10DB2C000F4A9DF90730002B00DA1F335B115BB2F3
:10DB3C0052F823209DF90730594203F01F0301F0DE
:10DB4C001F0158BF4B425BB222FA03F303F00103EF
:10DB5C00002B14BF01230023DBB2184602B0704720
:10DB6C0000E100E082B001904FF08042019BC2F8CE
:10DB7C00043300BF02B0704782B001904FF0804276
:10DB8C00019BC2F8083300BF02B0704782B0034655
:10DB9C008DF807309DF8073003F1804301221A609D
:10DBAC0000BF02B0704784B00346ADF80630BDF834
:10DBBC00063003F1804300221A60BDF8063003F1F1
:10DBCC0080431B680393039B00BF04B0704782B073
:10DBDC000346ADF80630BDF8063003F180431B68F0
:10DBEC00002B14BF01230023DBB2184602B0704790
:10DBFC0082B001904FF08042019BC2F8183500BFF3
:10DC0C0002B070474FF08043D3F818341B0C03F06C
:10DC1C000103002B14BF01230023DBB2184670470D
:10DC2C0000B583B006238DF807304FF08040FFF726
:10DC3C0031FF03461846FFF76FFF034683F00103DD
:10DC4C00DBB2002B13D04FF08040FFF723FF0346CD
:10DC5C001A469DF8073019461046FFF723FF4FF080
:10DC6C008040FFF717FF03461846FFF747FF00BF3A
:10DC7C0003B05DF804FB000000B585B00190019B7A
:10DC8C00002B03D10B49A42001F05CFD002303936E
:10DC9C00094B1B79002B02D08523039305E0064A20
:10DCAC00019B1360044B01221A71039B184605B0AB
:10DCBC005DF804FB682602000019002008B5074B2C
:10DCCC001B79002B03D10649BD2001F03BFDFFF76A
:10DCDC00A7FF0120FFF78CFF00BF08BD0019002033
:10DCEC006826020008B50A4B1B79002B03D10949A1
:10DCFC00EA2001F027FD4FF48270FFF754FF022059
:10DD0C00FFF730FF0820FFF741FF00BF08BD00BF41
:10DD1C00001900206826020008B50D4B1B79002B5A
:10DD2C0003D10C49F72001F00DFD0220FFF724FF71
:10DD3C004FF48270FFF737FF0C20FFF727FF00BF6F
:10DD4C00FFF760FF0346002BFAD100BF00BF08BDF0
:10DD5C00001900206826020008B54FF48070FFF708
:10DD6C0036FF0346002B0AD04FF48070FFF71BFFE1
:10DD7C000120FFF701FF0C4B1B68002098474FF464
:10DD8C008270FFF724FF0346002B0AD04FF48270F9
:10DD9C00FFF709FF0220FFF7EFFE034B1B68012082
:10DDAC00984700BF08BD00BF0019002000B583B024
:10DDBC000346ADF80630BDF80630184600F026F8DC
:10DDCC0003461B68012B0CBF01230023DBB2184652
:10DDDC0003B05DF804FB00B585B00346ADF8063022
:10DDEC00BDF80630184600F011F803461A46002319
:10DDFC001360BDF80630184600F008F803461B689F
:10DE0C000393039B00BF05B05DF804FB82B003468F
:10DE1C00ADF80630BDF8063003F1804303F5C0437E
:10DE2C00184602B07047000082B00190034BD3F843
:10DE3C000423019B1340184602B070470060004059
:10DE4C0082B00190054A019B03F5A27352F823306E
:10DE5C001B0A03F01F03184602B070470060004015
:10DE6C0082B00190064A019B03F5A27352F823304D
:10DE7C001B0C03F00303DBB2184602B0704700BF63
:10DE8C000060004000B583B00190019B1B681846F0
:10DE9C0000F096F80346002B04D105494FF4F670B8
:10DEAC0001F050FC4FF0A043184603B05DF804FBA2
:10DEBC00E826020000B585B001900B468DF80330C2
:10DECC0001AB1846FFF7DEFF0390019A039B02F5A6
:10DEDC00E07253F82230019A23F44031039B02F58F
:10DEEC00E07243F82210019A039B02F5E07253F89A
:10DEFC0022309DF8032012041146019A1943039B0A
:10DF0C0002F5E07243F8221000BF05B05DF804FB87
:10DF1C0000B585B0019001AB1846FFF7B3FF039035
:10DF2C00019A039B02F5E07253F822301B0C03F0AC
:10DF3C000303DBB2184605B05DF804FB86B0039012
:10DF4C00029101924FF0A0430493039B059319E0B7
:10DF5C00059B9B0018336B4453F8083CD3F82025E1
:10DF6C00019B1A60059B9B0018336B4453F8083CCB
:10DF7C00019A1268C3F82025019B04330193059B79
:10DF8C0001330593039A029B1344059A9A42DFD3FB
:10DF9C0000BF00BF06B0704700B585B0019001AB63
:10DFAC001846FFF76FFF0390019B012202FA03F35F
:10DFBC001A46039BC3F8202500BF05B05DF804FB8F
:10DFCC0084B00190019B5B09029300230393029B95
:10DFDC00002B03D14FF0FF33039300BF019B03F0E1
:10DFEC001F030193039A019B22FA03F303F001032D
:10DFFC00002B14BF01230023DBB2184604B070477A
:10E00C0084B001900091009B0393019BDB08029369
:10E01C00019B03F0070301930122019B02FA03F316
:10E02C000399029A0A4412781340184604B07047B8
:10E03C0082B00190044A019B1344303393F90030B1
:10E04C00184602B0704700BF0819002082B001903A
:10E05C00034A019B52F82330184602B0704700BFA8
:10E06C000819002084B00190074A019B13445033D7
:10E07C0093F900308DF80F309DF80F3023F0C0036A
:10E08C00184604B0704700BF0819002084B00190F6
:10E09C00074A019B1344503393F900308DF80F302D
:10E0AC009DF80F309B09DBB2184604B0704700BFD7
:10E0BC000819002000B585B00190019A01210020BB
:10E0CC00FFF73CFF002303930BE0039B9B00019A9B
:10E0DC0013441B68002B01D0012306E0039B013382
:10E0EC000393039B002BF0D00023184605B05DF87A
:10E0FC0004FB000000B587B00190002305935BE0A2
:10E10C00344A059B1344503393F90030B3F1FF3F6D
:10E11C004ED00598FFF7A6FF049001990498FFF7DD
:10E12C006FFF0346002B44D00598FFF7AFFF034663
:10E13C008DF80F300498FFF7EBFE03468DF80E3088
:10E14C009DF80E30022B01D1032300E002238DF841
:10E15C000D309DF80D3019460498FFF7ABFE04986E
:10E16C00FFF71AFF0498FFF763FF03461846FFF703
:10E17C006DFF0290029B002B1BD09DF80F30032BE0
:10E18C000FD09DF80E30022B03D19DF80F30012BD0
:10E19C0007D09DF80E30032B0BD19DF80F30022BBE
:10E1AC0007D19DF80F20029B11460498984700E078
:10E1BC0000BF059B01330593059B032BA0D9019848
:10E1CC00FFF778FF0346002B97D100BF00BF07B0C5
:10E1DC005DF804FB0819002000B589B000230693F4
:10E1EC00002300934FF48073ADF812300123079392
:10E1FC000023059321E0BDF812301846FFF7D6FD39
:10E20C000346002B0ED00798FFF70EFE0346002B9B
:10E21C0008D0BDF812301846FFF7DDFD069A079BB3
:10E22C0013430693079B5B000793BDF8123004332E
:10E23C00ADF81230059B01330593059B072BDAD9FA
:10E24C004FF4BE70FFF7B2FD0346002B0DD04FF418
:10E25C00BE70FFF7C0FD069B43F0004306936B4670
:10E26C001A4601210020FFF769FE069BDBB2002B4A
:10E27C0029D0012307930023059321E0079A069BDD
:10E28C001340002B16D00598FFF7DAFD0390059884
:10E29C00FFF7E6FD03468DF80B300598FFF7D6FE29
:10E2AC000190019B002B05D09DF80B20019B114682
:10E2BC0003989847079B5B000793059B01330593D5
:10E2CC00059B072BDAD9069B002B03DA6B46184605
:10E2DC00FFF710FF00BF09B05DF804FB08B5064B53
:10E2EC001B68002B03D105494B2001F02BFA024B84
:10E2FC001B68984700BF08BD6419002074270200F2
:10E30C0082B003468DF807309DF90730002B0CDBEB
:10E31C009DF8073003F01F0205499DF907305B0992
:10E32C00012000FA02F241F8232000BF02B070472E
:10E33C0000E100E082B0034600918DF807309DF9B2
:10E34C000730002B0ADB009BDAB20C499DF9073031
:10E35C005201D2B20B4483F800230BE0009BDAB2DB
:10E36C0007499DF8073003F00F03043B5201D2B26A
:10E37C000B441A7600BF02B0704700BF00E100E00A
:10E38C0000ED00E000B583B003460A468DF8073077
:10E39C0013468DF806309DF80630012B03D99DF8F5
:10E3AC000630032B0BD99DF80630042B03D99DF8AE
:10E3BC000630072B03D908496B2001F0C3F99DF8EF
:10E3CC0006209DF9073011461846FFF7B3FF00BF32
:10E3DC0003B05DF804FB00BF8028020000B583B0D9
:10E3EC0003468DF807309DF907301846FFF788FF74
:10E3FC0000BF03B05DF804FB82B003468DF8073014
:10E40C009DF8073003F1804303F5E04301221A60C5
:10E41C0000BF02B0704782B00346ADF80630BDF8BD
:10E42C00063003F1804303F5E0431B68002B14BF57
:10E43C0001230023DBB2184602B0704784B00346B8
:10E44C00ADF80630BDF8063003F1804303F5E04328
:10E45C0000221A60BDF8063003F1804303F5E04357
:10E46C001B680393039B00BF04B0704782B0034644
:10E47C008DF807300B468DF8063013468DF80530B5
:10E48C000A499DF807309DF8052051331B010B44B8
:10E49C0004331A6005499DF807309DF80620513366
:10E4AC001B010B441A6000BF02B0704700700040A3
:10E4BC0082B00190034A019BC2F8043300BF02B042
:10E4CC00704700BF0070004082B00190034A019B6E
:10E4DC00C2F8083300BF02B0704700BF00700040A4
:10E4EC00024B0122C3F8002500BF704700700040AA
:10E4FC0082B001900091054A019BC2F82C36034A68
:10E50C00009BC2F8303600BF02B07047007000406C
:10E51C0082B003468DF80730034A9DF80730C2F8E5
:10E52C00F03500BF02B070470070004082B0034667
:10E53C008DF80730034A9DF80730C2F8F43500BF58
:10E54C0002B0704700700040024BD3F8F435DBB2D8
:10E55C00184670470070004000B583B00346009128
:10E56C008DF80730009B1B7803F00302009B5B784F
:10E57C001B0103F030031A43009B9B781B0203F42E
:10E58C00E0631A43009BDB781B0303F480531A43AC
:10E59C00009B1B791B0403F4E0231A43009B5B795B
:10E5AC001B0503F4801342EA0301009B9B791B06B5
:10E5BC0003F080720A489DF807300A431B0103449C
:10E5CC0003F5A3631A60009BD979009B1A7A9DF816
:10E5DC0007301846FFF74AFF00BF03B05DF804FB95
:10E5EC000070004000B58FB04FF48270FFF713FF3E
:10E5FC000346002B46D04FF48270FFF71FFF904B61
:10E60C0093F82E3083F00103DBB2002B04D18C4B3A
:10E61C0093F82F30002B35D000238DF81C30884B0D
:10E62C005B680893864B1B899BB2ADF82430844BF6
:10E63C00DB68002B03D1824B00221A7419E0804B4B
:10E64C001A8B7F4B5A837E4BDB687D4A53607C4B25
:10E65C001A8B7B4B1A817A4B0022DA60784B93F839
:10E66C002E3083F00103DBB2002B02D00020FFF729
:10E67C00C3FE734B1B6807AA10469847704B0022C9
:10E68C0083F82F206E4B93F82E30002B62D04FF472
:10E69C008070FFF7C0FE0346002B5BD04FF48070F8
:10E6AC00FFF7CCFE664B5A8B654B93F82D309BB223
:10E6BC009A421CD9624B5A8B614B93F82D309BB20A
:10E6CC00D31A9AB25E4B5A835D4B5A685C4B1B89CA
:10E6DC009BB219465A4B5B8BCB1A5B001344584ABE
:10E6EC0092F82D2011461846FFF702FF2BE0544BF1
:10E6FC005A8B534B93F82D309BB29A4214D1504BFA
:10E70C00DB68002B10D04E4B012283F82F204C4B92
:10E71C0000225A834A4BDB68494A92F82D20114655
:10E72C001846FFF7E5FE0EE0454B5A8B444B93F829
:10E73C002D309BB29A4206D1414B012283F82F20F7
:10E74C003F4B00225A834FF48270FFF777FE042070
:10E75C00FFF752FE4FF48870FFF75DFE0346002B67
:10E76C000ED04FF48870FFF769FE354B00221A74F7
:10E77C0002238DF81030324B1B6804AA10469847C0
:10E78C004FF48A70FFF747FE0346002B07D04FF477
:10E79C008A70FFF753FE2A4B00221A744CE0284B68
:10E7AC005B690D9345E00D9B0A930A9B002B01D1ED
:10E7BC00202303E00A9BB3FA83F3DBB20C934FF0F4
:10E7CC0000420C9B22FA03F3DB430D9A13400D938A
:10E7DC000C9B9BB246339BB29B00ADF82E30BDF820
:10E7EC002E301846FFF717FE0346002B21D0BDF83C
:10E7FC002E301846FFF722FE01238DF80430BDF8A9
:10E80C002E30A3F58C73DB08DBB28DF80830BDF825
:10E81C002E30A3F58C7303F00403002B0CBF0123E3
:10E82C000023DBB28DF80930054B1B6801AA10469A
:10E83C0098470D9B002BB6D100BF0FB05DF804FBC1
:10E84C006C19002000B585B001900091019B002B44
:10E85C0003D13249D82000F075FF009B002B03D167
:10E86C002E49D92000F06EFF2D4B93F82C30002B45
:10E87C0003D008230393039B4CE0294A009B1360AD
:10E88C00019B1B781846FFF743FE019B5B781846EB
:10E89C00FFF74CFE019BDA78214B83F82E20204B9E
:10E8AC00012283F82C201E4B00221A741C4B0022D0
:10E8BC0083F82D201A4B00225A61194B002283F841
:10E8CC002F206FF00040FFF7FFFD4FF48270FFF731
:10E8DC00B5FD4FF48070FFF7B1FD4FF48A70FFF770
:10E8EC00ADFD019B9B7819460720FFF74BFD0720D8
:10E8FC00FFF774FD0220FFF7DBFD094B93F82E3078
:10E90C00002B02D00120FFF7D3FDFFF7E9FD002318
:10E91C000393039B184605B05DF804FBE82802003E
:10E92C006C19002000B585B0034600918DF80730B6
:10E93C00394B93F82C30002B04D1384940F2251078
:10E94C0000F000FF9DF80730072B04D933494FF432
:10E95C00937000F0F7FEFFF7F7FD0346002B09D08C
:10E96C002D4B93F82D30002B04D02C494FF4947080
:10E97C0000F0E8FE009BDB79092B03D8009BDB79C8
:10E98C00002B04D125494FF4987000F0DBFE009B5E
:10E99C001B7A092B04D921494FF4997000F0D2FE4F
:10E9AC001D4B1B7CDBB2002B03D011230393039B69
:10E9BC002DE09DF80730184A0C335B0013441B798B
:10E9CC00002B07D1144B93F82D300133DAB2124BD4
:10E9DC0083F82D209DF80730009AD1790E4A0C331C
:10E9EC005B0013440A461A719DF80730009A117A9D
:10E9FC00094A0C335B0013440A465A719DF80730E0
:10EA0C0000991846FFF7A8FD00230393039B1846B3
:10EA1C0005B05DF804FB00BF6C190020E82802006B
:10EA2C0000B585B001900B46ADF802304C4B93F815
:10EA3C002C30002B04D14B494FF4E47000F082FED3
:10EA4C00BDF80230464A92F82D2093FBF2F101FBFF
:10EA5C0002F29B1A002B04D0424940F2C91000F07C
:10EA6C0071FE1220FFF730FD3D4B1B7CDBB2022BFD
:10EA7C0006D11220FFF71CFD11230393039B6BE0BF
:10EA8C00374B1B7CDBB2012B35D1354BDB68002BB4
:10EA9C0006D00220FFF70CFD11230393039B5BE0D0
:10EAAC002F4A019BD3602E4ABDF8023013832C4BA6
:10EABC0093F82E3083F00103DBB2002B14D000BF8F
:10EACC004FF48070FFF7A7FC034683F00103DBB221
