:020000021000EC
:1090000000600020759301005D9301005F930100F3
:10901000619301006393010065930100000000006B
:109020000000000000000000000000006793010045
:1090300069930100000000006B9301006D93010033
:10904000A5BB01006F93010029C101006F930100CE
:109050006F9301000000000025C0010031C4010031
:109060006F9301006F9301006F9301006F930100F4
:109070006F9301006F9301006F9301006F930100E4
:1090800019CC010035A601006F9301006F93010018
:109090006F9301006F93010065E901006F93010078
:1090A0006F9301006F9301000000000000000000BA
:1090B0006F9301006F9301000000000000000000AA
:1090C00000000000000000000000000000000000A0
:1090D0000000000000000000000000000000000090
:1090E0000000000000000000000000000000000080
:1090F0000000000000000000000000000000000070
:10910000000000000000000000000000000000005F
:10911000000000000000000000000000000000004F
:10912000000000000000000000000000000000003F
:10913000000000000000000000000000000000002F
:10914000000000000000000000000000000000001F
:10915000000000000000000000000000000000000F
:1091600000000000000000000000000000000000FF
:1091700000000000000000000000000000000000EF
:1091800000000000000000000000000000000000DF
:1091900000000000000000000000000000000000CF
:1091A00000000000000000000000000000000000BF
:1091B00000000000000000000000000000000000AF
:1091C000000000000000000000000000000000009F
:1091D000000000000000000000000000000000008F
:1091E000000000000000000000000000000000007F
:1091F000000000000000000000000000000000006F
:10920000354936480A1A02D0072291438D4634491F
:1092100034480A1A06D00722914381F309880222B2
:1092200082F3148830483149314A00F044F831481B
:109230003149324A00F03FF831483249324A00F0B1
:109240003AF832483249334A00F035F83248334967
:10925000334A00F030F833483349344A00F02BF8F1
:1092600033483449344A00F026F83448344900225F
:1092700000F02CF833483449002200F027F8334836
:109280003349091A082902DB002202604160314A91
:1092900090471F481F49884205D00268043003B434
:1092A000904703BCF7E700208646EC4600200021EB
:1092B000294A9047FEE7884207D0521A05D0037822
:1092C00001300B700131013AF9D17047884202D068
:1092D00002700130FAE7704700600020005800205B
:1092E0000060002000600020E4F701001811002059
:1092F000FC110020BC930100BC9301004CEE010066
:10930000E4F70100181100201811002074EE01008C
:1093100074EE010074EE010074EE010074EE0100C1
:1093200074EE010074EE010074EE0100E4F7010038
:10933000C8F80100FC110020FC110020FC110020E5
:1093400020140020201400202014002020140020CD
:10935000201C00208B9301002DD90100FEE7FEE7C1
:10936000FEE7FEE7FEE7FEE7FEE7FEE7FEE7FEE7D5
:1093700000F002B8FFF7FCBF0B484FF0070188432D
:1093800085460A488047FFF73BBF094809490A4A12
:10939000884207D0521A05D0037801300B70013192
:1093A000013AF9D1704700000060002051AF010080
:0C93B00074EE01001811002018110020BC
:1093BC0086B003900291019201238DF817309DF82D
:1093CC001730204A039B13601E4A029B53601D4AB0
:1093DC00019B9360039B44F20102934212D0039BC6
:1093EC0044F20202934220D1019B164AD360154BE2
:1093FC00DB681B68134A9361124BDB685B68114A8C
:10940C00D36112E0019B0F4A13610E4B1B699B68E1
:10941C000C4A53610B4B1B691B680A4A9361094B3D
:10942C001B695B68074AD36100BF72B600BF00BFFF
:10943C009DF81730DBB2002BFAD162B600BF00BF2B
:10944C0006B07047FC11002000B583B0029000916B
:10945C00019244F2010071466A4600F003F803B031
:10946C0000BD00BF00B587B003900291019272B6A7
:10947C0000BF039B44F20202934217D0039B44F2B9
:10948C000202934218D8039B44F20102934210D07B
:10949C00039B44F2010293420ED8039B012B0DD087
:1094AC00039B41F2010293420AD005E0019B059314
:1094BC0007E0019B049304E000BF02E000BF00E062
:1094CC0000BF084B1B6803F00103002B00D000BE4B
:1094DC00019A02990398FFF76BFF00BF07B05DF884
:1094EC0004FB00BFF0ED00E02DE9F04383B014481D
:1094FC0001F07FF8034600221C461546114BD3E9B8
:10950C00002314EB020845EB0309CDE900890E4B4F
:10951C00D3E90023DDE90001904271EB030307D28C
:10952C00DDE9002312F1807643F10007CDE90067F5
:10953C00DDE900231046194603B0BDE8F08300BFF7
:10954C0018110020281200203012002088B0019041
:10955C000091019B0793009B0693079BD3E9022381
:10956C00CDE90423069BD3E90223CDE90223DDE9EF
:10957C000423DDE90201904271EB03032CBF0123AC
:10958C000023DBB2184608B070470000F0B585B078
:10959C000190019B5B69002B03D14349A52003F08B
:1095AC00D7FF00238DF80F30404B1B78002B75D064
:1095BC00019B002B72D0FFF797FF019BD3E902238D
:1095CC00904271EB030358D300238DF80D300DF14D
:1095DC000D03184600F01AFC019B1B69002B06D1E9
:1095EC0001994FF0FF324FF0FF33C1E902239DF890
:1095FC000D30184600F020FC019B5B69019A9269C2
:10960C001046984700238DF80C3003AB184600F039
:10961C00FDFB019B1B69002B1AD0019BD3E9022394
:10962C00B3F1FF3F08BFB2F1FF3F11D0019BD3E96B
:10963C0002230199096900200C460546161943EBD3
:10964C000507019BC3E9026701238DF80E3002E088
:10965C0000238DF80E309DF80C30184600F0ECFB12
:10966C009DF80E30002B19D0019B1946104801F0C3
:10967C0097F901238DF80F3010E0019BD3E90223F9
:10968C00B3F1FF3F08BFB2F1FF3F07D0019B194672
:10969C00074801F085F901238DF80F309DF80F3044
:1096AC00184605B0F0BD00BF80EE0100201200206E
:1096BC0074EE010030B58BB0019000910D2309932D
:1096CC00009B00221A70019BD3E90223CDE90623EB
:1096DC00FFF70AFFDDE90623141A63EB0105CDE958
:1096EC000445DDE90423012A73F1000318DB049B14
:1096FC00B3F5350F05D300F00BFB0246144B1344A6
:10970C0000E0069B03934FF49603039A0021114843
:10971C0000F062FE0990099B002B05D1012314E097
:10972C0000210C4800F030FF099B0D2B07D101984C
:10973C00FFF72CFF03461A46009B1A7004E00649FB
:10974C004FF4867003F004FF002318460BB030BDB5
:10975C00FFFFB4001811002080EE010000B583B0AB
:10976C00044801F057F90190019B184603B05DF8CD
:10977C0004FB00BF74EE010000B583B0044801F097
:10978C006BF90190019B184603B05DF804FB00BF18
:10979C0074EE010000B583B0FFF7E0FF0190019B70
:1097AC00002B06D001994FF0FF324FF0FF33C1E987
:1097BC000223019B002BEFD100BF00BF03B05DF86B
:1097CC0004FB0000054BD3E9002312F1807043F138
:1097DC000001024BC3E9000100BF704728120020B2
:1097EC0010B582B00190124B1B68002B1DD0019854
:1097FC0000F0FFFE04460021019800F0EBFE03464A
:10980C001946204600F078FA0346B3F5960F04D3B8
:10981C00084940F2411003F09BFE054B1B681846AB
:10982C00FFF7B4FE024B00221A6000BF02B010BD5D
:10983C001C12002080EE010000B583B00190FFF7F0
:10984C0053FE02460B460349C1E9002300BF03B097
:10985C005DF804FB3012002000B587B00190FFF7D3
:10986C008BFF049000238DF81730049B002B58D0ED
:10987C00049BD3E90223B3F1FF3F08BFB2F1FF3FD2
:10988C0002D1FFF76BFF54E02E4B1B68002B03D16A
:10989C0001238DF817301DE0049BD3E90201294BFD
:1098AC001B68D3E90223904271EB030312D201230C
:1098BC008DF81730234B1B68D3E90223B3F1FF3F1C
:1098CC0008BFB2F1FF3F05D01E4B1B6819461E485E
:1098DC0001F066F89DF81730002B2BD0FFF73EFFF8
:1098EC0004900DF10F0319460498FFF7E3FE0346AD
:1098FC00002B12D0134B1B68002B02D1019800F0E7
:10990C0077FC104A049B13609DF80F3083F0010321
:10991C00DBB2002BA3D000BF0FE00A4B00221A6071
:10992C009DE7084B1B68002B06D1019800F076FCD4
:10993C0002E094E700BF00E000BF00BF07B05DF895
:10994C0004FB00BF1C12002074EE010000B587B0B0
:10995C0001902B4A03AB1946104600F048FF0590C6
:10996C0045E0059B1B78022B2BD0022B2FDC002B08
:10997C0002D0012B11D02AE0059B5B68D3E90223AE
:10998C00B3F1FF3F08BFB2F1FF3F22D0059B5B68EC
:10999C0019461C4801F004F81BE0059B5A681A4B49
:1099AC001B689A4203D1184B00221A6012E0059BE7
:1099BC005B681946134801F063F803468DF81330C1
:1099CC0008E0FFF7E7FE114B01221A7002E000BF1E
:1099DC0000E000BF0A4A03AB1946104600F020FF16
:1099EC00074A03AB1946104600F001FF0590059B92
:1099FC00002BB6D100BF00BF07B05DF804FB00BF61
:109A0C009012002074EE01001C1200202012002085
:109A1C0000B583B00190019800F0A9FD0346002B1E
:109A2C0001D0FFF7CFFE0021019800F0BEFD0346E8
:109A3C00002B02D00198FFF7D3FE0121019800F012
:109A4C00B4FD0346002B02D00198FFF7F5FE0198F8
:109A5C00FFF77CFF0198FFF7FFFE00BF03B05DF836
:109A6C0004FB000008B5024800F0D0FD00BF08BDA3
:109A7C001811002000B585B0034600918DF8073011
:109A8C00114A02AB1946104600F084FE0390039B6A
:109A9C00002B13D0039B9DF807201A70039B009A90
:109AAC005A60094A02AB1946104600F08CFE034678
:109ABC00002B01D0FFF7D6FF002300E0042318464B
:109ACC0005B05DF804FB00BF9012002000B583B018
:109ADC00164B1B680093164808235822154900F0B2
:109AEC0026FE0190019B002B01D0019B19E06B46D7
:109AFC00114A1946114800F01BFB0190019B002BE9
:109B0C0001D0019B0DE001210C4800F01FFD012349
:109B1C000B4A0121094800F097FB0A4B01221A70ED
:109B2C00019B184603B05DF804FB00BFD4EE0100A6
:109B3C0090120020381200201D9A010018110020EC
:109B4C00FFFF7F002012002000B587B003900B466A
:109B5C0001928DF80B30039B002B04D1164940F277
:109B6C005A2003F0F5FC019B002B04D1124940F262
:109B7C005B2003F0EDFC019B002B01D1072317E0C8
:109B8C00039B1B68059305994FF0FF324FF0FF3391
:109B9C00C1E90223059B019A5A619DF80B30012BF8
:109BAC000CBF01230023DBB21A46059B1A6100236C
:109BBC00184607B05DF804FB80EE0100F0B589B0E3
:109BCC00039002910192039B002B04D1264940F291
:109BDC006B2003F0BDFC039B069300238DF817301C
:109BEC000DF11703184600F011F9069BD3E9022377
:109BFC00B3F1FF3F08BFB2F1FF3F11D1FFF774FC87
:109C0C0002460B46029900200C460546161943EBFA
:109C1C000507069BC3E9026701238DF81F3002E09C
:109C2C0000238DF81F309DF81730184600F004F90A
:109C3C009DF81F3083F00103DBB2002B01D0002311
:109C4C000EE0069B019A9A61069B1B69002B02D0C1
:109C5C00069B029A1A6106990020FFF70BFF034638
:109C6C00184609B0F0BD00BF80EE010000B587B00A
:109C7C000190019B002B04D11E4940F2932003F06C
:109C8C0067FC019B049300238DF80F300DF10F033B
:109C9C00184600F0BBF8049BD3E90223B3F1FF3F55
:109CAC0008BFB2F1FF3F03D100238DF8173009E054
:109CBC0004994FF0FF324FF0FF33C1E90223012327
:109CCC008DF817309DF80F30184600F0B5F89DF858
:109CDC00173083F00103DBB2002B01D0002304E02A
:109CEC0004990120FFF7C6FE0346184607B05DF83D
:109CFC0004FB00BF80EE010082B001900091019A3C
:109D0C00009BD31A23F07F43184602B07047000023
:109D1C0008B5034800F06DFC0346184608BD00BFAB
:109D2C001811002082B0EFF310830093009B019375
:109D3C0072B600BF019B184602B0704762B600BFF6
:109D4C0000BF704700B585B00190FFF7EBFF0390A3
:109D5C00164B9B68002B1BD1144B01229A60144BA1
:109D6C00D3F88020134B1340104A1360104B114A48
:109D7C00C3F880200E4BD3F884300C4A53600C4B44
:109D8C004FF0FF32C3F88420019B00221A7002E0CE
:109D9C00019B01221A70039B002B01D1FFF7CEFF10
:109DAC000023184605B05DF804FB00BFA412002088
:109DBC0000E100E0FC06FFBD00B585B003468DF860
:109DCC000730104B9B68002B16D09DF80730002BEA
:109DDC0012D1FFF7A7FF03900B4A0A4B1B681360C5
:109DEC00094A084B5B685360064B00229A60039B40
:109DFC00002B01D1FFF7A2FF0023184605B05DF838
:109E0C0004FB00BFA412002000E100E000B583B009
:109E1C00019000F02BF80346012B03D00549432099
:109E2C0003F096FB0198FFF78DFF00BF03B05DF8C0
:109E3C0004FB00BFD8EE010000B583B003468DF8DB
:109E4C00073000F013F80346012B03D006495120CC
:109E5C0003F07EFB9DF807301846FFF7ADFF00BFFF
:109E6C0003B05DF804FB00BFD8EE010084B0EFF343
:109E7C0005830193019BC3F308030393039B002BFE
:109E8C000DD1EFF314830093009B0293029B03F01C
:109E9C000103002B0CBF01230023DBB200E00123E4
:109EAC00184604B07047000082B003468DF80730A6
:109EBC009DF90730002B0CDB9DF8073003F01F02D7
:109ECC0005499DF907305B09012000FA02F241F8BF
:109EDC00232000BF02B0704700E100E082B00346CF
:109EEC008DF807309DF90730002B0DDB9DF80730FE
:109EFC0003F01F0206499DF907305B09012000FAA7
:109F0C0002F2403341F8232000BF02B0704700BF7B
:109F1C0000E100E082B0034600918DF807309DF916
:109F2C000730002B0ADB009BDAB20C499DF9073095
:109F3C005201D2B20B4483F800230BE0009BDAB23F
:109F4C0007499DF8073003F00F03043B5201D2B2CE
:109F5C000B441A7600BF02B0704700BF00E100E06E
:109F6C0000ED00E000B583B003460A468DF80730DB
:109F7C0013468DF806309DF80630012B03D99DF859
:109F8C000630032B0BD99DF80630042B03D99DF812
:109F9C000630072B03D908496B2003F0D9FA9DF83A
:109FAC0006209DF9073011461846FFF7B3FF00BF96
:109FBC0003B05DF804FB00BF30EF010000B583B0C7
:109FCC0003468DF807309DF907301846FFF76CFFF4
:109FDC0000BF03B05DF804FB00B585B00190019B98
:109FEC00002B0AD0074B43F001030393019B9B0109
:109FFC000293039B0298984700E000BF05B05DF800
:10A00C0004FB00BFE0EF010084B0039002910192C9
:10A01C00039B029A02F5A872019943F8221000BF23
:10A02C0004B0704782B001900091019B009A02F538
:10A03C00A87253F82230184602B0704782B00190D3
:10A04C000091019B009AC3F8042300BF02B0704733
:10A05C0082B001900091019B009AC3F8082300BFC5
:10A06C0002B0704782B001900B46ADF80230BDF8DB
:10A07C000230019A13441B68184602B0704784B032
:10A08C0001900B46ADF80230BDF80230019A134432
:10A09C0000221A60BDF80230019A13441B68039326
:10A0AC00039B00BF04B0704782B00190019BD3F8B2
:10A0BC000435184602B0704700B583B0019000918A
:10A0CC00009BB3F5805F04D306494FF4BE7003F0D8
:10A0DC003FFA019B009AC3F8082500BF03B05DF856
:10A0EC0004FB00BF60EF010082B001900B468DF8BD
:10A0FC0003309DF80320019B13441A46012313607F
:10A10C0000BF02B0704782B001900091019B009A91
:10A11C00C3F8442300BF02B0704782B00190009195
:10A12C00019B009AC3F8482300BF02B0704700009F
:10A13C0000B587B0039002910192039B002B03D1D1
:10A14C002849552003F004FA029B002B03D1254922
:10A15C00562003F0FDF9019B002B03D12149572018
:10A16C0003F0F6F9039B5B7919461F4A019B42F8F1
:10A17C002130039B5B791D4ADB0013441B79002BB8
:10A18C0003D008230593059B27E0039B1A68029BC9
:10A19C001B8819461046FFF78FFF039B93F9042089
:10A1AC00029B9B7819461046FFF7DCFE039B93F944
:10A1BC0004301846FFF702FF039B5B790B4ADB0068
:10A1CC00134401221A71039B5B791946074A039BBE
:10A1DC0042F8313000230593059B184607B05DF813
:10A1EC0004FB00BF90EF0100B0120020B41200205D
:10A1FC0000B583B00190019B002B03D10649872049
:10A20C0003F0A6F9019B1B6800211846FFF76CFFB1
:10A21C0000BF03B05DF804FB90EF010000B583B004
:10A22C000190019B002B03D106498D2003F090F97E
:10A23C00019B1B6804211846FFF756FF00BF03B0B3
:10A24C005DF804FB90EF010000B587B0039002911C
:10A25C0001928DF80330039B002B03D121499620EA
:10A26C0003F076F94FF48032029B02FA03F3059364
:10A27C00029B50339BB29B00ADF81230019B23F034
:10A28C007F430193039B1B6805991846FFF7E0FE7B
:10A29C00039B1B6805991846FFF73FFF039B1B6840
:10A2AC00BDF8122011461846FFF7E9FE039B1B6808
:10A2BC00019A02991846FFF7A7FE039B1B680599A4
:10A2CC001846FFF720FF9DF80330002B05D0039BA9
:10A2DC001B6805991846FFF7B1FE00BF07B05DF883
:10A2EC0004FB00BF90EF010000B585B00390029114
:10A2FC0013468DF80730039B002B03D10B49A92083
:10A30C0003F026F9039B1B6802991846FFF7FBFE26
:10A31C009DF80730002B05D0039B1B68029918464B
:10A32C00FFF78CFE00BF05B05DF804FB90EF010059
:10A33C0000B583B001900091019B002B03D10A4919
:10A34C00B32003F005F9019B1B6800991846FFF731
:10A35C00E4FE019B1B6800991846FFF779FE00BFCD
:10A36C0003B05DF804FB00BF90EF010000B583B0B3
:10A37C0001900B46ADF80230019B002B03D10F4925
:10A38C00BA2003F0E5F8019B1B68BDF802201146CA
:10A39C001846FFF767FE0346002B09D0019B1B688C
:10A3AC00BDF8022011461846FFF769FE012300E0B4
:10A3BC000023184603B05DF804FB00BF90EF0100CA
:10A3CC0082B001900091019A009BD31A23F07F4335
:10A3DC00184602B07047000000B58BB00390029194
:10A3EC0001920093039B002B03D15749CD2003F01E
:10A3FC00AFF84FF48032029B02FA03F30993029BED
:10A40C0050339BB29B00ADF82230019B23F07F436D
:10A41C00019309990398FFF78BFF039B1B68184660
:10A42C00FFF742FE0790039B1B6802991846FFF743
:10A43C00F9FD0690039B1B68079A02991846FFF7D3
:10A44C00E3FD039B1B68BDF8222011461846FFF75D
:10A45C0016FE07990698FFF7B3FF0346012B0AD1A6
:10A46C001020FFF7B9FD039B1B68BDF82220114695
:10A47C001846FFF704FE039B1B681846FFF714FEF3
:10A48C00079007990198FFF79BFF0590039B1B68AA
:10A49C0009991846FFF737FE059B012B15D1039B35
:10A4AC001868019B01331A460299FFF7ADFD102085
:10A4BC00FFF792FD039B1B681846FFF7F5FD02465C
:10A4CC00079B934235D00D2339E0039B1B68019AFF
:10A4DC0002991846FFF798FD039B1B681846FFF777
:10A4EC00E3FD0790019B013B07991846FFF768FFB6
:10A4FC000590009BC3F1FF1303F57F43059A9A4225
:10A50C0001D90D231BE0059B002B12D1039B18686E
:10A51C00019B01331A460299FFF776FD039B1B68DA
:10A52C001846FFF7C1FD0246079B934201D00D234D
:10A53C0005E0012209990398FFF7D6FE002318467F
:10A54C000BB05DF804FB00BF90EF010000B583B0C9
:10A55C0001900B468DF803309DF803301A4602210A
:10A56C000198FFF7C1FE00BF03B05DF804FB00B516
:10A57C0083B001904FF482710198FFF7F7FE034608
:10A58C00184603B05DF804FB00B583B00190009150
:10A59C004FF48032009B02FA03F319460198FFF73F
:10A5AC00C7FE00BF03B05DF804FB00B585B0019099
:10A5BC000091009B50339BB29B00ADF80E30BDF860
:10A5CC000E3019460198FFF7D1FE0346184605B028
:10A5DC005DF804FB00B583B001900091019B1B68F2
:10A5EC0000991846FFF71EFD0346184603B05DF8A8
:10A5FC0004FB00B583B00190019B1B681846FFF764
:10A60C0053FD0346184603B05DF804FB00B583B058
:10A61C000190019B93F904301846FFF75FFC00BFD3
:10A62C0003B05DF804FB000008B5044B1B68044A3A
:10A63C0012681046984700BF08BD00BFB01200203A
:10A64C00B412002086B001900091019B53E8011FC9
:10A65C008AB2D88902449889824228BF121A188972
:10A66C00824202BFBFF32F8F002307E0C2EA010230
:10A67C0043E801200028E9D14FF001038DF80F3099
:10A68C00059002910492029A009B1A609DF80F307B
:10A69C00DBB2184606B0704784B00190019951E8BE
:10A6AC00013FC3EA034341E80132002AF7D1039288
:10A6BC00029300BF04B0704786B001900091019BDB
:10A6CC0053E8021F1FFAA1F2D888824202BFBFF3DF
:10A6DC002F8F00230DE0D88902449889824228BF2D
:10A6EC00121AC1EA024243E802200028E8D14FF0D6
:10A6FC0001038DF80F30059002910492029A009B91
:10A70C001A609DF80F30DBB2184606B0704784B063
:10A71C000190019951E8023FC3EA234341E8023218
:10A72C00002AF7D10392029300BF04B0704784B0A3
:10A73C000390029111461A460B46ADF806301346AB
:10A74C00ADF80430029B002B01D10E231FE0BDF8A5
:10A75C000630BDF80420B3FBF2F101FB02F29B1AA8
:10A76C009BB2002B01D0092311E0039B029A1A60C3
:10A77C00039B00225A60039B00229A60039BBDF846
:10A78C0006209A81039BBDF80420DA810023184629
:10A79C0004B0704700B585B001900091009B19463C
:10A7AC000198FFF74FFF0346002B07D0019B1B6856
:10A7BC00009A128813440393039B00E0002318466D
:10A7CC0005B05DF804FB00B583B001900091009BCF
:10A7DC001A88009B5B889A4204D10198FFF75CFFB2
:10A7EC00012300E00023184603B05DF804FB00B51C
:10A7FC0085B001900091009B19460198FFF75CFF12
:10A80C000346002B07D0019B1B68009A5288134407
:10A81C000393039B00E00023184605B05DF804FB8E
:10A82C0000B583B001900091009B1A88009B5B8857
:10A83C009A4204D10198FFF76AFF012300E000233C
:10A84C00184603B05DF804FB00B583B00190019B82
:10A85C00002B03D10649722002F07AFE019B0022E4
:10A86C001A60BFF35F8F00BF00BF03B05DF804FB3D
:10A87C003CF0010041DF704700BF184608B5064B9D
:10A88C0000221A700548FFF7DFFF0549054800F064
:10A89C002BF80023184608BDC0120020BC12002063
:10A8AC00CCF00100C412002000B583B004F026F8EF
:10A8BC000346002B0ED0FFF7DDFF0190019B002B10
:10A8CC000BD0019B022B08D006494FF4B07002F05C
:10A8DC003FFE02E020BF40BF20BF00BF03B05DF8C9
:10A8EC0004FB00BF74F0010000B583B0019000912F
:10A8FC00019B002B03D11049502002F029FE009B34
:10A90C00002B03D10C49512002F022FE019B009A2E
:10A91C001A60019B1B681A68019B5A60019B5A685C
:10A92C00019B1B685B689A4202D1019B00225A6012
:10A93C0000BF03B05DF804FBD8F0010000B583B094
:10A94C000190019B002B03D11449632002F000FEFF
:10A95C00019B1B68002B03D11049642002F0F8FD09
:10A96C00019B5B68002B14D0019B5B681A46019B12
:10A97C001B689B6813441A46019B5A60019B5A68DA
:10A98C00019B1B685B689A4204D1019B00225A60B0
:10A99C0000E000BF03B05DF804FB00BFD8F001007D
:10A9AC0000B585B001900091019B002B03D1184993
:10A9BC003A2002F0CDFD009B002B03D114493B2023
:10A9CC0002F0C6FD019B5B6803930FE0019B9B6843
:10A9DC00039A1268009910469847034683F00103C6
:10A9EC00DBB2002B07D1039B1B680393039B1B68F3
:10A9FC00002BEBD100E000BF039B1A68009B1A6090
:10AA0C00039B009A1A6000BF05B05DF804FB00BF01
:10AA1C0044F1010000B585B00190019B002B03D1DE
:10AA2C000C49512002F094FD019B5B681B68039359
:10AA3C00019B5B681B68002B06D0019B5B681A6846
:10AA4C00019B5B6812681A60039B184605B05DF8A1
:10AA5C0004FB00BF44F1010000B583B00190019BE1
:10AA6C00002B03D105495D2002F072FD019B5B6850
:10AA7C001B68184603B05DF804FB00BF44F10100ED
:10AA8C0000B585B001900091019B002B03D11649B4
:10AA9C00692002F05DFD009B002B03D112496A2056
:10AAAC0002F056FD00238DF80F30019B5B6802937A
:10AABC000FE0029B1B68009A9A4207D1009B1A6810
:10AACC00029B1A6001238DF80F3006E0029B1B6875
:10AADC000293029B1B68002BEBD19DF80F3018469C
:10AAEC0005B05DF804FB00BF44F10100BFF34F8FCC
:10AAFC0000BF064BDB6803F4E0620449044B1343CC
:10AB0C00CB60BFF34F8F00BF00BFFDE700ED00E04F
:10AB1C000400FA0582B00A4B1B680193094B1B68B1
:10AB2C000093019B0E2B06D1009B002B01D101231E
:10AB3C0002E0012300E00023184602B0704700BF7A
:10AB4C00300100103401001082B01B4B1B680193C4
:10AB5C001A4B1B680093019B082B1FD1009B052BE4
:10AB6C001AD801A252F823F08DAB010091AB010071
:10AB7C0095AB010099AB01009DAB0100A1AB0100AD
:10AB8C00012316E0012314E0012312E0012310E05D
:10AB9C0001230EE001230CE001230AE0019B0E2BA4
:10ABAC0006D1009B002B01D1012302E0012300E020
:10ABBC000023184602B07047300100103401001019
:10ABCC0082B01B4B1B6801931A4B1B680093019BB3
:10ABDC00082B1FD1009B052B1AD801A252F823F089
:10ABEC0005AC010009AC01000DAC010011AC010079
:10ABFC0015AC010019AC0100012316E0012314E08F
:10AC0C00012312E0012310E001230EE001230CE0EC
:10AC1C0001230AE0019B0E2B06D1009B002B01D1D6
:10AC2C00012302E0012300E00023184602B0704724
:10AC3C00300100103401001082B0164B1B680193D8
:10AC4C00154B1B680093019B082B1FD1009B052BF8
:10AC5C001AD801A252F823F07DAC010081AC01009E
:10AC6C0085AC010089AC01008DAC010091AC0100F8
:10AC7C0001230CE000230AE0002308E0002306E097
:10AC8C00002304E0002302E0002300E00023184628
:10AC9C0002B07047300100103401001082B0164B26
:10ACAC001B680193154B1B680093019B082B1FD14C
:10ACBC00009B052B1AD801A252F823F0E1AC01003D
:10ACCC00E5AC0100E9AC0100EDAC0100F1AC010018
:10ACDC00F5AC010001230CE000230AE0002308E09E
:10ACEC00002306E0002304E0002302E0002300E040
:10ACFC000023184602B070473001001034010010D8
:10AD0C0082B0164B1B680193154B1B680093019B7B
:10AD1C00082B1FD1009B052B1AD801A252F823F047
:10AD2C0045AD010049AD01004DAD010051AD010033
:10AD3C0055AD010059AD010001230CE000230AE0E0
:10AD4C00002308E0002306E0002304E0002302E0D7
:10AD5C00002300E00023184602B0704730010010B9
:10AD6C003401001082B0164B1B680193154B1B6805
:10AD7C000093019B082B1FD1009B052B1AD801A215
:10AD8C0052F823F0A9AD0100ADAD0100B1AD010049
:10AD9C00B5AD0100B9AD0100BDAD010001230CE062
:10ADAC0000230AE0002308E0002306E0002304E06F
:10ADBC00002302E0002300E00023184602B0704795
:10ADCC00300100103401001082B01B4B1B68019342
:10ADDC001A4B1B680093019B082B1FD1009B052B62
:10ADEC001AD801A252F823F00DAE010011AE0100E9
:10ADFC0015AE010019AE01001DAE010021AE01001F
:10AE0C00012316E0012314E0012312E0012310E0DA
:10AE1C0001230EE001230CE001230AE0019B0E2B21
:10AE2C0006D1009B002B01D1012302E0012300E09D
:10AE3C000023184602B07047300100103401001096
:10AE4C0082B00A4B1B680193094B1B680093019B52
:10AE5C000E2B06D1009B002B01D1012302E0012314
:10AE6C0000E00023184602B0704700BF300100100C
:10AE7C003401001082B0164B1B680193154B1B68F4
:10AE8C000093019B082B1FD1009B052B1AD801A204
:10AE9C0052F823F0B9AE0100BDAE0100C1AE010005
:10AEAC00C5AE0100C9AE0100CDAE010000230CE01F
:10AEBC0000230AE0002308E0002306E0012304E05D
:10AECC00012302E0012300E00023184602B0704782
:10AEDC00300100103401001008B5FFF7CBFF03461A
:10AEEC00002B07D04FF010234FF08042D3F80832DC
:10AEFC00C2F8583500BF08BD00BF044BD3F800346E
:10AF0C00002BFAD000BF00BF704700BF00E001402B
:10AF1C0000B583B00190054A019BC2F80435FFF7D8
:10AF2C00EBFF00BF03B05DF804FB00BF00E0014085
:10AF3C00024B034A1A6000BF704700BF201100206B
:10AF4C000090D00308B5FFF7E5FD0346002B06D0B3
:10AF5C008C4B1B685B0B8C4A03F007031360FFF7E9
:10AF6C00F3FD0346002B0ED04FF080430022C3F8B4
:10AF7C000C214FF080430022C3F810214FF0804386
:10AF8C000022C3F83825FFF71BFE0346002B76D0B2
:10AF9C004FF080537D4AD3F80434C2F820354FF07B
:10AFAC0080537A4AD3F80834C2F824354FF08053D2
:10AFBC00764AD3F80C34C2F828354FF08053734AD4
:10AFCC00D3F81034C2F82C354FF080536F4AD3F8B5
:10AFDC001434C2F830354FF080536C4AD3F818341F
:10AFEC00C2F834354FF08053684AD3F81C34C2F899
:10AFFC0040354FF08053654AD3F82034C2F84435BD
:10B00C004FF08053614AD3F82434C2F848354FF0DE
:10B01C0080535E4AD3F82834C2F84C354FF0805335
:10B02C005A4AD3F82C34C2F850354FF08053574A53
:10B03C00D3F83034C2F854354FF08053534AD3F818
:10B04C003434C2F860354FF08053504AD3F838345A
:10B05C00C2F864354FF080534C4AD3F83C34C2F8F4
:10B06C0068354FF08053494AD3F84034C2F86C35F8
:10B07C004FF08053454AD3F84434C2F87035FFF78B
:10B08C00DBFD0346002B02D0414B424A1A60FFF70E
:10B09C0005FE0346002B03D03F4BFB22C3F81825BB
:10B0AC00FFF72EFE0346002B0AD03C4B1B6823F007
:10B0BC000F023B4B1B6803F00F03384913430B6023
:10B0CC00FFF750FE0346002B03D0364B4FF40072B3
:10B0DC001A60FFF779FE0346002B0DD04FF080432A
:10B0EC00D3F8003403F00103002B05D04FF080435C
:10B0FC006FF00102C3F80024FFF7A2FE0346002BF9
:10B10C0005D0264B1B68254A43F00F031360FFF74D
:10B11C00E3FE4FF01023D3F80032002B05DB4FF089
:10B12C001023D3F80432002B15DA0120FFF7F0FEC0
:10B13C004FF010231222C3F80022FFF7DDFE4FF070
:10B14C0010231222C3F80422FFF7D6FE0020FFF7CB
:10B15C00DFFEFFF7CBFC144B1B6803F00103002B45
:10B16C000CD00120FFF7D4FE0F4B00221A60FFF722
:10B17C00C3FE0020FFF7CCFEFFF7B8FCFFF7D8FEAC
:10B18C0000BF08BD440200103C05004000C0004058
:10B19C008C5600404881030000F00040E40E004053
:10B1AC0058020010409602400C12001000B583B0FB
:10B1BC000190019B1B68184600F09DF80346002B7C
:10B1CC0004D105494FF4F67002F0C2F94FF0A043D8
:10B1DC00184603B05DF804FB9CF1010000B585B086
:10B1EC00019001AB1846FFF7E1FF0390019B012290
:10B1FC0002FA03F31946039800F069F800BF05B092
:10B20C005DF804FB00B585B0019001AB1846FFF763
:10B21C00CDFF0390019B012202FA03F31946039818
:10B22C0000F05FF800BF05B05DF804FB00B585B019
:10B23C00019001AB1846FFF7B9FF0390039BD3F8BD
:10B24C0004350293029BDA43019B012101FA03F3BB
:10B25C001A40039BC3F80825019B01229A40029BCC
:10B26C001A40039BC3F80C2500BF05B05DF804FB26
:10B27C0000B583B001900091009B002B03D1019885
:10B28C00FFF7C0FF02E00198FFF7A8FF00BF03B073
:10B29C005DF804FB00B585B0019001AB1846FFF7D3
:10B2AC0085FF0390039800F00AF80246019B22FAEE
:10B2BC0003F303F00103184605B05DF804FB82B0FC
:10B2CC000190019BD3F80435184602B0704782B048
:10B2DC0001900091019B009AC3F8082500BF02B0B1
:10B2EC00704782B001900091019B009AC3F80C2525
:10B2FC0000BF02B0704784B00190019B5B090293C0
:10B30C0000230393029B002B03D14FF0FF330393D5
:10B31C0000BF019B03F01F030193039A019B22FAC8
:10B32C0003F303F00103002B14BF01230023DBB252
:10B33C00184604B07047000000B585B00190019B21
:10B34C00032B03D911493A2002F002F9104A019B50
:10B35C0013441B781846FFF79DFF0346002B14BFC0
:10B36C00012300238DF80F309DF80F30002B14BFF4
:10B37C0001230023DBB283F00103DBB203F00103F2
:10B38C00DBB2184605B05DF804FB00BFCCF1010040
:10B39C0010F2010000B583B00190019B032B03D97F
:10B3AC000749412002F0D4F8064A019B13441B784C
:10B3BC0000211846FFF75CFF00BF03B05DF804FBEB
:10B3CC00CCF1010010F2010000B583B00190019B9B
:10B3DC00032B03D90749472002F0BAF8064A019B10
:10B3EC0013441B7801211846FFF742FF00BF03B03E
:10B3FC005DF804FBCCF1010010F2010000B583B044
:10B40C000023019305E00198FFF7DEFF019B013358
:10B41C000193019B032BF6D900BF00BF03B05DF86D
:10B42C0004FB00B583B00023019305E00198FFF7FE
:10B43C00B1FF019B01330193019B032BF6D900BF94
:10B44C0000BF03B05DF804FB00B583B00190019B15
:10B45C00032B03D907495F2002F07AF8064A019BB7
:10B46C0013441B781846FFF7E1FE00BF03B05DF8EC
:10B47C0004FB00BFCCF1010010F2010082B00346C6
:10B48C008DF807309DF90730002B13DB9DF8073042
:10B49C0003F01F0209499DF907305B09012000FAEE
:10B4AC0002F2203341F82320BFF34F8F00BFBFF3CC
:10B4BC006F8F00BF00BF02B0704700BF00E100E01B
:10B4CC00044BD3F80034002B14BF01230023DBB250
:10B4DC00184670470000014008B503F00FFA034608
:10B4EC0083F00103DBB2002B03D109497B2002F06E
:10B4FC002FF8FFF7E5FF034683F00103DBB2002BC7
:10B50C0004D000F029FB034B00229A7000BF08BD49
:10B51C0014F20100CC12002000B583B0002301937B
:10B52C00184B1B78002B02D0852301931CE0154B84
:10B53C0000229A60134B00225A60124B00221A61AF
:10B54C00104B0022DA60104800F0B6FA019003F0BC
:10B55C00D5F9034683F00103DBB2002B01D000F0D8
:10B56C00CDFA084B01221A70FFF7AAFF0346002BF5
:10B57C0002D0044B01229A70019B184603B05DF86F
:10B58C0004FB00BFCC1200205DB7010084B0019019
:10B59C000091019B1B68039306E0039A009B9A425F
:10B5AC000DD0039B1B680393039B002BF5D1019BD0
:10B5BC001A68009B1A60019B009A1A6000E000BF99
:10B5CC0004B0704784B00190019B1B680393039BEC
:10B5DC00002B03D0039B1A68019B1A60039B18462F
:10B5EC0004B0704700B585B00190294B1B78002B37
:10B5FC0003D12849F62001F0ABFF254B9B78DBB239
:10B60C00002B19D0019B002B03D0019B5B68012000
:10B61C00984700238DF80F300DF10F031846FEF7F5
:10B62C00F5FB1B4BDB680133194AD3609DF80F30D7
:10B63C001846FEF701FC1EE000238DF80E300DF1CC
:10B64C000E031846FEF7E2FB019B002B03D0019979
:10B65C001148FFF79BFF0E4BDB68002B01D100F06C
:10B66C0061FA0B4BDB680133094AD3609DF80E304D
:10B67C001846FEF7E1FB064BDB68002B04D10549AD
:10B68C004FF4897001F064FF00BF05B05DF804FB56
:10B69C00CC12002014F20100DC12002000B583B0A3
:10B6AC00164B1B78002B04D1154940F2171001F0F2
:10B6BC004FFF124BDB68002B04D111494FF48C70F7
:10B6CC0001F046FF00238DF807300DF107031846F3
:10B6DC00FEF79CFB094BDB68013B084AD360074B28
:10B6EC00DB68002B01D1FFF7F7FE9DF807301846F9
:10B6FC00FEF7A2FB00BF03B05DF804FBCC120020E8
:10B70C0014F2010000B585B003468DF807309DF8A2
:10B71C000730002B02D10C4B039301E00B4B03932E
:10B72C000398FFF74FFF0290029B002B06D0029B61
:10B73C005B689DF8072010469847F1E700BF00BFF3
:10B74C0005B05DF804FB00BFD4120020DC12002011
:10B75C0000B583B003468DF807309DF80730002BF9
:10B76C0005D10A4B01225A700020FFF7CBFF9DF840
:10B77C000730012B05D1054B01229A700120FFF7F0
:10B78C00C1FF00BF03B05DF804FB00BFCC1200206A
:10B79C0000B583B001900091019B002B05D1054BA6
:10B7AC0001225A700020FFF7ADFF00BF03B05DF817
:10B7BC0004FB00BFCC12002000B585B003460091FD
:10B7CC008DF807309DF80730032B29D0032B35DC7F
:10B7DC00002B02D0012B04D030E00020FFF74EFEEE
:10B7EC002DE000238DF80F300DF10F031846FEF7F6
:10B7FC000DFB154B1B7883F00103DBB2002B01D042
:10B80C00FFF78AFE104BDB6801330F4AD3600E4BF7
:10B81C0001229A709DF80F301846FEF70DFB0EE0D2
:10B82C00094B1B78002B04D1084940F2522001F03F
:10B83C008FFE00F063F9FFF731FF00E000BF00BF9F
:10B84C0005B05DF804FB00BFCC12002014F201001F
:10B85C0082B003468DF807309DF90730002B0CDBC6
:10B86C009DF8073003F01F0205499DF907305B096D
:10B87C00012000FA02F241F8232000BF02B0704709
:10B88C0000E100E082B0034600918DF807309DF98D
:10B89C000730002B0ADB009BDAB20C499DF907300C
:10B8AC005201D2B20B4483F800230BE0009BDAB2B6
:10B8BC0007499DF8073003F00F03043B5201D2B245
:10B8CC000B441A7600BF02B0704700BF00E100E0E5
:10B8DC0000ED00E082B00190019B1B0B5BB218469F
:10B8EC0002B0704700B583B003460A468DF80730A6
:10B8FC0013468DF806309DF80630012B03D99DF8C0
:10B90C000630032B0BD99DF80630042B03D99DF878
:10B91C000630072B03D908496B2001F019FE9DF85E
:10B92C0006209DF9073011461846FFF7ABFF00BF04
:10B93C0003B05DF804FB00BF68F2010000B583B0F2
:10B94C0003468DF807309DF907301846FFF780FF46
:10B95C0000BF03B05DF804FB82B003468DF80730DE
:10B96C000F4A9DF90730002B00DA1F335B115BB2D5
:10B97C0052F823209DF90730594203F01F0301F0C0
:10B98C001F0158BF4B425BB222FA03F303F00103D1
:10B99C00002B14BF01230023DBB2184602B0704702
:10B9AC0000E100E082B001904FF08042019BC2F8B0
:10B9BC00043300BF02B0704782B001904FF0804258
:10B9CC00019BC2F8083300BF02B0704782B0034637
:10B9DC008DF807309DF8073003F1804301221A607F
:10B9EC0000BF02B0704784B00346ADF80630BDF816
:10B9FC00063003F1804300221A60BDF8063003F1D3
:10BA0C0080431B680393039B00BF04B0704782B054
:10BA1C000346ADF80630BDF8063003F180431B68D1
:10BA2C00002B14BF01230023DBB2184602B0704771
:10BA3C0082B001904FF08042019BC2F8183500BFD4
:10BA4C0002B070474FF08043D3F818341B0C03F04E
:10BA5C000103002B14BF01230023DBB218467047EF
:10BA6C0000B583B006238DF807304FF08040FFF708
:10BA7C0031FF03461846FFF76FFF034683F00103BF
:10BA8C00DBB2002B13D04FF08040FFF723FF0346AF
:10BA9C001A469DF8073019461046FFF723FF4FF062
:10BAAC008040FFF717FF03461846FFF747FF00BF1C
:10BABC0003B05DF804FB000000B585B00190019B5C
:10BACC00002B03D10B49A42001F042FD002303936A
:10BADC00094B1B79002B02D08523039305E0064A02
:10BAEC00019B1360044B01221A71039B184605B08D
:10BAFC005DF804FB98F20100E012002008B5074B3A
:10BB0C001B79002B03D10649BD2001F021FDFFF765
:10BB1C00A7FF0120FFF78CFF00BF08BDE01200203B
:10BB2C0098F2010008B50A4B1B79002B03D1094987
:10BB3C00EA2001F00DFD4FF48270FFF754FF022054
:10BB4C00FFF730FF0820FFF741FF00BF08BD00BF23
:10BB5C00E012002098F2010008B50D4B1B79002B68
:10BB6C0003D10C49F72001F0F3FC0220FFF724FF6E
:10BB7C004FF48270FFF737FF0C20FFF727FF00BF51
:10BB8C00FFF760FF0346002BFAD100BF00BF08BDD2
:10BB9C00E012002098F2010008B54FF48070FFF716
:10BBAC0036FF0346002B0AD04FF48070FFF71BFFC3
:10BBBC000120FFF701FF0C4B1B68002098474FF446
:10BBCC008270FFF724FF0346002B0AD04FF48270DB
:10BBDC00FFF709FF0220FFF7EFFE034B1B68012064
:10BBEC00984700BF08BD00BFE012002000B583B02D
:10BBFC000346ADF80630BDF80630184600F026F8BE
:10BC0C0003461B68012B0CBF01230023DBB2184633
:10BC1C0003B05DF804FB00B585B00346ADF8063003
:10BC2C00BDF80630184600F011F803461A460023FA
:10BC3C001360BDF80630184600F008F803461B6880
:10BC4C000393039B00BF05B05DF804FB82B0034671
:10BC5C00ADF80630BDF8063003F1804303F5C04360
:10BC6C00184602B07047000082B00190034BD3F825
:10BC7C000423019B1340184602B07047006000403B
:10BC8C0082B00190054A019B03F5A27352F8233050
:10BC9C001B0A03F01F03184602B0704700600040F7
:10BCAC0082B00190064A019B03F5A27352F823302F
:10BCBC001B0C03F00303DBB2184602B0704700BF45
:10BCCC000060004000B583B00190019B1B681846D2
:10BCDC0000F096F80346002B04D105494FF4F6709A
:10BCEC0001F036FC4FF0A043184603B05DF804FB9E
:10BCFC0018F3010000B585B001900B468DF80330A8
:10BD0C0001AB1846FFF7DEFF0390019A039B02F587
:10BD1C00E07253F82230019A23F44031039B02F570
:10BD2C00E07243F82210019A039B02F5E07253F87B
:10BD3C0022309DF8032012041146019A1943039BEB
:10BD4C0002F5E07243F8221000BF05B05DF804FB69
:10BD5C0000B585B0019001AB1846FFF7B3FF039017
:10BD6C00019A039B02F5E07253F822301B0C03F08E
:10BD7C000303DBB2184605B05DF804FB86B00390F4
:10BD8C00029101924FF0A0430493039B059319E099
:10BD9C00059B9B0018336B4453F8083CD3F82025C3
:10BDAC00019B1A60059B9B0018336B4453F8083CAD
:10BDBC00019A1268C3F82025019B04330193059B5B
:10BDCC0001330593039A029B1344059A9A42DFD3DD
:10BDDC0000BF00BF06B0704700B585B0019001AB45
:10BDEC001846FFF76FFF0390019B012202FA03F341
:10BDFC001A46039BC3F8202500BF05B05DF804FB71
:10BE0C0084B00190019B5B09029300230393029B76
:10BE1C00002B03D14FF0FF33039300BF019B03F0C2
:10BE2C001F030193039A019B22FA03F303F001030E
:10BE3C00002B14BF01230023DBB2184604B070475B
:10BE4C0084B001900091009B0393019BDB0802934B
:10BE5C00019B03F0070301930122019B02FA03F3F8
:10BE6C000399029A0A4412781340184604B070479A
:10BE7C0082B00190044A019B1344303393F9003093
:10BE8C00184602B0704700BFE812002082B0019043
:10BE9C00034A019B52F82330184602B0704700BF8A
:10BEAC00E812002084B00190074A019B13445033E0
:10BEBC0093F900308DF80F309DF80F3023F0C0034C
:10BECC00184604B0704700BFE812002084B00190FF
:10BEDC00074A019B1344503393F900308DF80F300F
:10BEEC009DF80F309B09DBB2184604B0704700BFB9
:10BEFC00E812002000B585B00190019A01210020C4
:10BF0C00FFF73CFF002303930BE0039B9B00019A7C
:10BF1C0013441B68002B01D0012306E0039B013363
:10BF2C000393039B002BF0D00023184605B05DF85B
:10BF3C0004FB000000B587B00190002305935BE083
:10BF4C00344A059B1344503393F90030B3F1FF3F4F
:10BF5C004ED00598FFF7A6FF049001990498FFF7BF
:10BF6C006FFF0346002B44D00598FFF7AFFF034645
:10BF7C008DF80F300498FFF7EBFE03468DF80E306A
:10BF8C009DF80E30022B01D1032300E002238DF823
:10BF9C000D309DF80D3019460498FFF7ABFE049850
:10BFAC00FFF71AFF0498FFF763FF03461846FFF7E5
:10BFBC006DFF0290029B002B1BD09DF80F30032BC2
:10BFCC000FD09DF80E30022B03D19DF80F30012BB2
:10BFDC0007D09DF80E30032B0BD19DF80F30022BA0
:10BFEC0007D19DF80F20029B11460498984700E05A
:10BFFC0000BF059B01330593059B032BA0D901982A
:10C00C00FFF778FF0346002B97D100BF00BF07B0A6
:10C01C005DF804FBE812002000B589B000230793FB
:10C02C00002300934FF48073ADF816300123049372
:10C03C000023069321E0BDF816301846FFF7D6FD15
:10C04C000346002B0ED00498FFF70EFE0346002B80
:10C05C0008D0BDF816301846FFF7DDFD079A049B93
:10C06C0013430793049B5B000493BDF81630043311
:10C07C00ADF81630069B01330693069B072BDAD9D5
:10C08C004FF4BE70FFF7B2FD0346002B0DD04FF4FA
:10C09C00BE70FFF7C0FD079B43F0004307936B4650
:10C0AC001A4601210020FFF769FE079BDBB2002B2B
:10C0BC0029D0012304930023069321E0049A079BC3
:10C0CC001340002B16D00698FFF7DAFD0390069864
:10C0DC00FFF7E6FD03468DF80B300698FFF7D6FE0A
:10C0EC000190019B002B05D09DF80B20019B114664
:10C0FC0003989847049B5B000493069B01330693BB
:10C10C00069B072BDAD9079B002B03DA6B461846E4
:10C11C00FFF710FF00BF09B05DF804FB08B5064B34
:10C12C001B68002B03D105494B2001F011FA024B7F
:10C13C001B68984700BF08BD4413002098F301000A
:10C14C0082B003468DF807309DF90730002B0CDBCD
:10C15C009DF8073003F01F0205499DF907305B0974
:10C16C00012000FA02F241F8232000BF02B0704710
:10C17C0000E100E082B0034600918DF807309DF994
:10C18C000730002B0ADB009BDAB20C499DF9073013
:10C19C005201D2B20B4483F800230BE0009BDAB2BD
:10C1AC0007499DF8073003F00F03043B5201D2B24C
:10C1BC000B441A7600BF02B0704700BF00E100E0EC
:10C1CC0000ED00E000B583B003460A468DF8073059
:10C1DC0013468DF806309DF80630012B03D99DF8D7
:10C1EC000630032B0BD99DF80630042B03D99DF890
:10C1FC000630072B03D908496B2001F0A9F99DF8EB
:10C20C0006209DF9073011461846FFF7B3FF00BF13
:10C21C0003B05DF804FB00BFECF3010000B583B084
:10C22C0003468DF807309DF907301846FFF788FF55
:10C23C0000BF03B05DF804FB82B003468DF80730F5
:10C24C009DF8073003F1804303F5E04301221A60A7
:10C25C0000BF02B0704782B00346ADF80630BDF89F
:10C26C00063003F1804303F5E0431B68002B14BF39
:10C27C0001230023DBB2184602B0704784B003469A
:10C28C00ADF80630BDF8063003F1804303F5E0430A
:10C29C0000221A60BDF8063003F1804303F5E04339
:10C2AC001B680393039B00BF04B0704782B0034626
:10C2BC008DF807300B468DF8063013468DF8053097
:10C2CC000A499DF807309DF8052051331B010B449A
:10C2DC0004331A6005499DF807309DF80620513348
:10C2EC001B010B441A6000BF02B070470070004085
:10C2FC0082B00190034A019BC2F8043300BF02B024
:10C30C00704700BF0070004082B00190034A019B4F
:10C31C00C2F8083300BF02B0704700BF0070004085
:10C32C00024B0122C3F8002500BF7047007000408B
:10C33C0082B001900091054A019BC2F82C36034A49
:10C34C00009BC2F8303600BF02B07047007000404E
:10C35C0082B003468DF80730034A9DF80730C2F8C7
:10C36C00F03500BF02B070470070004082B0034649
:10C37C008DF80730034A9DF80730C2F8F43500BF3A
:10C38C0002B0704700700040024BD3F8F435DBB2BA
:10C39C00184670470070004000B583B0034600910A
:10C3AC008DF80730009B1B7803F00302009B5B7831
:10C3BC001B0103F030031A43009B9B781B0203F410
:10C3CC00E0631A43009BDB781B0303F480531A438E
:10C3DC00009B1B791B0403F4E0231A43009B5B793D
:10C3EC001B0503F4801342EA0301009B9B791B0697
:10C3FC0003F080720A489DF807300A431B0103447E
:10C40C0003F5A3631A60009BD979009B1A7A9DF8F7
:10C41C0007301846FFF74AFF00BF03B05DF804FB76
:10C42C000070004000B58FB04FF48270FFF713FF1F
:10C43C000346002B46D04FF48270FFF71FFF904B42
:10C44C0093F82E3083F00103DBB2002B04D18C4B1C
:10C45C0093F82F30002B35D000238DF81C30884BEF
:10C46C005B680893864B1B899BB2ADF82430844BD8
:10C47C00DB68002B03D1824B00221A7419E0804B2D
:10C48C001A8B7F4B5A837E4BDB687D4A53607C4B07
:10C49C001A8B7B4B1A817A4B0022DA60784B93F81B
:10C4AC002E3083F00103DBB2002B02D00020FFF70B
:10C4BC00C3FE734B1B6807AA10469847704B0022AB
:10C4CC0083F82F206E4B93F82E30002B62D04FF454
:10C4DC008070FFF7C0FE0346002B5BD04FF48070DA
:10C4EC00FFF7CCFE664B5A8B654B93F82D309BB205
:10C4FC009A421CD9624B5A8B614B93F82D309BB2EC
:10C50C00D31A9AB25E4B5A835D4B5A685C4B1B89AB
:10C51C009BB219465A4B5B8BCB1A5B001344584A9F
:10C52C0092F82D2011461846FFF702FF2BE0544BD2
:10C53C005A8B534B93F82D309BB29A4214D1504BDB
:10C54C00DB68002B10D04E4B012283F82F204C4B74
:10C55C0000225A834A4BDB68494A92F82D20114637
:10C56C001846FFF7E5FE0EE0454B5A8B444B93F80B
:10C57C002D309BB29A4206D1414B012283F82F20D9
:10C58C003F4B00225A834FF48270FFF777FE042052
:10C59C00FFF752FE4FF48870FFF75DFE0346002B49
:10C5AC000ED04FF48870FFF769FE354B00221A74D9
:10C5BC0002238DF81030324B1B6804AA10469847A2
:10C5CC004FF48A70FFF747FE0346002B07D04FF459
:10C5DC008A70FFF753FE2A4B00221A744CE0284B4A
:10C5EC005B690D9345E00D9B0A930A9B002B01D1CF
:10C5FC00202303E00A9BB3FA83F3DBB20C934FF0D6
:10C60C0000420C9B22FA03F3DB430D9A13400D936B
:10C61C000C9B9BB246339BB29B00ADF82E30BDF801
:10C62C002E301846FFF717FE0346002B21D0BDF81D
:10C63C002E301846FFF722FE01238DF80430BDF88A
:10C64C002E30A3F58C73DB08DBB28DF80830BDF807
:10C65C002E30A3F58C7303F00403002B0CBF0123C5
:10C66C000023DBB28DF80930054B1B6801AA10467C
:10C67C0098470D9B002BB6D100BF0FB05DF804FBA3
:10C68C004C13002000B585B001900091019B002B4C
:10C69C0003D13249D82000F05BFF009B002B03D163
:10C6AC002E49D92000F054FF2D4B93F82C30002B41
:10C6BC0003D008230393039B4CE0294A009B13608F
:10C6CC00019B1B781846FFF743FE019B5B781846CD
:10C6DC00FFF74CFE019BDA78214B83F82E20204B80
:10C6EC00012283F82C201E4B00221A741C4B0022B2
:10C6FC0083F82D201A4B00225A61194B002283F823
:10C70C002F206FF00040FFF7FFFD4FF48270FFF712
:10C71C00B5FD4FF48070FFF7B1FD4FF48A70FFF751
:10C72C00ADFD019B9B7819460720FFF74BFD0720B9
:10C73C00FFF774FD0220FFF7DBFD094B93F82E3059
:10C74C00002B02D00120FFF7D3FDFFF7E9FD0023FA
:10C75C000393039B184605B05DF804FB4CF40100F1
:10C76C004C13002000B585B0034600918DF80730BE
:10C77C00394B93F82C30002B04D1384940F225105A
:10C78C0000F0E6FE9DF80730072B04D933494FF42F
:10C79C00937000F0DDFEFFF7F7FD0346002B09D088
:10C7AC002D4B93F82D30002B04D02C494FF4947062
:10C7BC0000F0CEFE009BDB79092B03D8009BDB79C4
:10C7CC00002B04D125494FF4987000F0C1FE009B5A
:10C7DC001B7A092B04D921494FF4997000F0B8FE4B
:10C7EC001D4B1B7CDBB2002B03D011230393039B4B
:10C7FC002DE09DF80730184A0C335B0013441B796D
:10C80C00002B07D1144B93F82D300133DAB2124BB5
:10C81C0083F82D209DF80730009AD1790E4A0C33FD
:10C82C005B0013440A461A719DF80730009A117A7E
:10C83C00094A0C335B0013440A465A719DF80730C1
:10C84C0000991846FFF7A8FD00230393039B184695
:10C85C0005B05DF804FB00BF4C1300204CF4010044
:10C86C0000B585B001900B46ADF802304C4B93F8F7
:10C87C002C30002B04D14B494FF4E47000F068FECF
:10C88C00BDF80230464A92F82D2093FBF2F101FBE1
:10C89C0002F29B1A002B04D0424940F2C91000F05E
:10C8AC0057FE1220FFF730FD3D4B1B7CDBB2022BF9
:10C8BC0006D11220FFF71CFD11230393039B6BE0A1
:10C8CC00374B1B7CDBB2012B35D1354BDB68002B96
:10C8DC0006D00220FFF70CFD11230393039B5BE0B2
:10C8EC002F4A019BD3602E4ABDF8023013832C4B88
:10C8FC0093F82E3083F00103DBB2002B14D000BF71
:10C90C004FF48070FFF7A7FC034683F00103DBB202
:10C91C00002BF5D14FF48070FFF7B0FCBDF802305E
:10C92C0019460198FFF704FD0220FFF7E1FC0023F4
:10C93C000393039B30E00220FFF7DAFC184B012233
:10C94C001A74174A019B5360154ABDF802301381C3
:10C95C00134B0022DA60124B93F82E30002B0BD0C5
:10C96C000F4ABDF8023053830D4B93F82D30194606
:10C97C000198FFF7DDFC0CE0BDF802301946019878
:10C98C00FFF7D6FC4FF48070FFF778FC0020FFF720
:10C99C0053FC00230393039B184605B05DF804FB7E
:10C9AC004C1300204CF4010000B583B0124B93F8EB
:10C9BC002C30002B04D1114940F2132000F0C8FD9B
:10C9CC00002301930C4B1B7CDBB2012B02D0082300
:10C9DC0001930BE0084B93F82E30002B03D0002072
:10C9EC00FFF72AFC02E00420FFF726FC019B184607
:10C9FC0003B05DF804FB00BF4C1300204CF40100A5
:10CA0C0082B003468DF807309DF90730002B0CDB04
:10CA1C009DF8073003F01F0205499DF907305B09AB
:10CA2C00012000FA02F241F8232000BF02B0704747
:10CA3C0000E100E082B0034600918DF807309DF9CB
:10CA4C000730002B0ADB009BDAB20C499DF907304A
:10CA5C005201D2B20B4483F800230BE0009BDAB2F4
:10CA6C0007499DF8073003F00F03043B5201D2B283
:10CA7C000B441A7600BF02B0704700BF00E100E023
:10CA8C0000ED00E000B583B003460A468DF8073090
:10CA9C0013468DF806309DF80630012B03D99DF80E
:10CAAC000630032B0BD99DF80630042B03D99DF8C7
:10CABC000630072B03D908496B2000F049FD9DF87F
:10CACC0006209DF9073011461846FFF7B3FF00BF4B
:10CADC0003B05DF804FB00BF9CF4010000B583B00B
:10CAEC0003468DF807309DF907301846FFF788FF8D
:10CAFC0000BF03B05DF804FB82B003468DF807302D
:10CB0C00034A9DF80730C2F80C3500BF02B07047DD
:10CB1C000000014082B003468DF807309DF80730C5
:10CB2C0003F1804303F5803301221A6000BF02B089
:10CB3C00704784B00346ADF80630BDF8063003F1FB
:10CB4C00804303F5803300221A60BDF8063003F1F0
:10CB5C00804303F580331B680393039B00BF04B031
:10CB6C00704782B00346ADF80630BDF8063003F1CD
:10CB7C00804303F580331B68002B14BF0123002373
:10CB8C00DBB2184602B0704782B00190034A019B99
:10CB9C00C2F8043300BF02B0704700BF0000014070
:10CBAC0082B00190034A019BC2F8043500BF02B069
:10CBBC00704700BF0000014082B003468DF807307B
:10CBCC00074BD3F808259DF80730012101FA03F330
:10CBDC0003491343C1F8083500BF02B0704700BFCA
:10CBEC000000014082B003468DF80730054A9DF8DD
:10CBFC00073003F5C073044942F8231000BF02B09C
:10CC0C00704700BF000001403546526E08B54FF426
:10CC1C008070FFF7A6FF0346002B06D0044B1B6861
:10CC2C0098474FF48070FFF784FF00BF08BD00BF2A
:10CC3C008013002030B587B001900091019B002B30
:10CC4C0003D128494A2000F083FC009B002B03D120
:10CC5C0024494E2000F07CFC234A009B1360234B9C
:10CC6C001B78002B23D1214B01221A70019B1B78BE
:10CC7C001846FFF741FF019B5B6800221C461546D6
:10CC8C004FF000004FF00001E90341EA5441E0038A
:10CC9C004FF47A724FF0000301F0C4FF02460B46CA
:10CCAC00CDE90223DDE90223012B08D303E008239D
:10CCBC000593059B13E00B49642000F049FC029B93
:10CCCC001846FFF76DFF019B1B7A19461020FFF7E2
:10CCDC00D9FE1020FFF702FF00230593059B184691
:10CCEC0007B030BDCCF40100801300207C13002071
:10CCFC0008B50D4B1B78002B03D10C49752000F0A7
:10CD0C0027FC0B4B1B78012B03D00849762000F035
:10CD1C001FFC0120FFF738FF0020FFF7FBFE044B40
:10CD2C0002221A7000BF08BD7D130020CCF4010054
:10CD3C007C13002000B585B00190019B002B03D122
:10CD4C001A498C2000F004FC194B1B78012B03D0E2
:10CD5C0016498D2000F0FCFB00238DF80B300DF1F3
:10CD6C000B031846FDF752F8124B1B78072B11D802
:10CD7C00104B1A78019B1A700E4B1B780133DAB2E8
:10CD8C000C4B1A70019B1B781846FFF715FF0023FC
:10CD9C00039301E0042303939DF80B301846FDF731
:10CDAC004BF8039B184605B05DF804FBCCF401006E
:10CDBC007C1300207D13002000B583B003468DF852
:10CDCC000730084B1B78022B03D00749A22000F038
:10CDDC00BFFB9DF807301846FFF704FF00BF03B0F8
:10CDEC005DF804FB7C130020CCF4010000B583B08B
:10CDFC000C4B1B78002B0FD00023019308E0019BF8
:10CE0C00022B02D00198FEF7DFFA019B013301934C
:10CE1C00019B032BF3D901E0FEF7F0FA00BF03B03E
:10CE2C005DF804FB8C1300202DE9D04F92B0034623
:10CE3C008DF83F300023119300231093C64B1B78C1
:10CE4C00002B04D0C44A00231370FFF7CFFF9DF8CA
:10CE5C003F30172B00F2428201A252F823F000BFA0
:10CE6C00CDCE0100E5CE0100E5CE010085CF01005D
:10CE7C0025D00100A1D0010035D1010055D1010010
:10CE8C0071D101008FD10100ADD10100CBD10100D6
:10CE9C00E9D10100F7D10100F7D10100F7D1010070
:10CEAC00F7D10100F7D101008BD2010099D201001A
:10CEBC00ADD20100C1D20100DBD20100DBD20100F6
:10CECC00FFF794FFA54B1846FCF7D0FE1190A44A2F
:10CEDC009DF83F30137002E20020FEF72DFA034656
:10CEEC00002B0DD00020FEF76FFA9DF83F30022B7F
:10CEFC0002D14FF4E16301E04FF47A6310930BE03D
:10CF0C000020FEF747FA9DF83F30022B01D1C823D1
:10CF1C0001E04FF4C8731093914A9DF83F301370A1
:10CF2C008E4C109B0022009301924FF000024FF0A8
:10CF3C000003DDE900673946CB0330463946064627
:10CF4C0043EA56430146CA0312F57A71029143F142
:10CF5C00000303934FF4FA624FF00003DDE9020182
:10CF6C0001F060FE02460B4613460022194620468D
:10CF7C00FCF724FE1190B2E10020FEF7DDF9034628
:10CF8C00002B0DD00020FEF71FFA9DF83F30032B2D
:10CF9C0002D14FF4487301E04FF47A6310930BE025
:10CFAC000020FEF7F7F99DF83F30032B01D1C82381
:10CFBC0001E04FF4C8731093694A9DF83F30137029
:10CFCC00664C109B0022049305924FF000024FF028
:10CFDC000003DDE904673946CB0330463946064683
:10CFEC0043EA56430146CA0312F57A71069143F19E
:10CFFC00000307934FF4FA624FF00003DDE90601DA
:10D00C0001F010FE02460B4613460022194620463C
:10D01C00FCF7D4FD119062E10020FEF78DF9034678
:10D02C00002B06D00020FEF7CFF94FF47A63109353
:10D03C0005E00020FEF7AEF94FF4C8731093484A90
:10D04C009DF83F301370454C109B00229A46934636
:10D05C004FF000024FF000034FEACB3343EA5A4340
:10D06C004FEACA3212F57A71089143F10003099321
:10D07C004FF4FA624FF00003DDE9080101F0D2FD34
:10D08C0002460B461346002219462046FCF796FD35
:10D09C00119024E10020FEF74FF90346002B0CD031
:10D0AC000020FEF791F99DF83F30052B01D1C823E4
:10D0BC0001E04FF47A6310930BE00020FEF76AF95D
:10D0CC009DF83F30052B01D1C82301E04FF4C87304
:10D0DC001093234A9DF83F301370204C109B002274
:10D0EC00984691464FF000024FF000034FEAC933C7
:10D0FC0043EA58434FEAC83212F57A710A9143F168
:10D10C0000030B934FF4FA624FF00003DDE90A01C0
:10D11C0001F088FD02460B461346002219462046B4
:10D12C00FCF74CFD1190DAE00020FEF78DF90C4A6B
:10D13C009DF83F301370094B002240F2666118468F
:10D14C00FCF73CFD1190CAE00020FEF723F9044ADD
:10D15C009DF83F301370C2E0851300202811002089
:10D16C0084130020604B01221A700120FEF76CF929
:10D17C005E4B002240F266611846FCF71FFD1190D1
:10D18C00ADE0594B01221A700120FEF75DF9574BA7
:10D19C0000224FF400511846FCF710FD11909EE050
:10D1AC00514B01221A700120FEF74EF94F4B002211
:10D1BC0040F266611846FCF701FD11908FE04A4B76
:10D1CC0001221A700120FEF73FF9484B00224FF460
:10D1DC0000511846FCF7F2FC119080E0FEF721F9A3
:10D1EC00434A9DF83F30137079E0424B1846FCF7E8
:10D1FC003DFD11909DF83F30C3F111031093109B2E
:10D20C00002B35D0119B002B32D1109B012B28D930
:10D21C00384C109B9BB21A46C82302FB03F3DA1757
:10D22C001E4617464FF000024FF00003FB0343EA83
:10D23C005643F20312F57A710C9143F100030D93EE
:10D24C004FF4FA624FF00003DDE90C0101F0EAFC47
:10D25C0002460B461346002219462046FCF7AEFC4C
:10D26C0011900220FEF796F8234B01221A7036E03B
:10D27C000220FEF7A9F8204B00221A702FE0FFF7CE
:10D28C00B5FD1B4A9DF83F30137028E0FFF7AEFD4B
:10D29C000020FEF77FF8164A9DF83F3013701EE011
:10D2AC00FFF7A4FD0120FEF775F8114A9DF83F30F9
:10D2BC00137014E0FFF79AFD0020FEF76BF80120C5
:10D2CC00FEF768F80A4A9DF83F30137007E0FEF746
:10D2DC00A8F8074A9DF83F30137000E000BF119B7F
:10D2EC00184612B0BDE8D08F8513002028110020FD
:10D2FC0084130020481100208C13002000B585B049
:10D30C0003468DF8073000230393084B1B6803F08A
:10D31C000103002B05D09DF807301846FFF784FD5C
:10D32C000390039B184605B05DF804FB881300209E
:10D33C006CDF704700BF184672DF704700BF18469D
:10D34C0073DF704700BF184600B583B001900091A1
:10D35C00019B002B01D1054B019300990198FFF71C
:10D36C0069FC0346184603B05DF804FBA4F5010004
:10D37C0000BF704782B00190024B01221A7000BFAF
:10D38C0002B07047C813002000B583B0FCF79EFBB9
:10D39C000190019B0093009B002B04D0044AAA210E
:10D3AC000098FCF751F800BF03B05DF804FB00BF18
:10D3BC0020F5010000B583B0FEF7AEF80190019B9B
:10D3CC000093009B002B04D0054AB0210098FCF779
:10D3DC003BF80020FEF706F900BF03B05DF804FB34
:10D3EC0020F5010000B583B001900091019B002B4A
:10D3FC0001D1054B019300990198FFF743F90346BE
:10D40C00184603B05DF804FBA0F5010000B587B029
:10D41C000190019B1B78002B49D1019B5B6801217A
:10D42C001846FFF71DFA0590059B0493049B002BEF
:10D43C0004D0214ACB210498FCF706F8002303936F
:10D44C00019B5B68B3F900300293029B4FF461625D
:10D45C0002FB03F3002B01DA03F2FF339B129AB2A7
:10D46C00164B1A80154B1B8840F6B832934203D9E1
:10D47C00124B40F6B8321A80104B1B88B3F5FA6F7A
:10D48C0003D20E4B4FF4FA621A800C4B1B88A3F597
:10D49C00FA630B4A82FB03129210DB17D31A9AB26F
:10D4AC00084B1A80074B1B88DAB2074B5A7200BF25
:10D4BC0007B05DF804FB00BF20F50100D01300207D
:10D4CC0067666666D2130020A811002000B589B0EB
:10D4DC001B4A01AB07CA03C31A701A490020FFF795
:10D4EC0081FF0790079B0693069B002B04D0164ADE
:10D4FC00EA210698FBF7A8FF01AB19460020FFF7BD
:10D50C0031F90790079B0593059B002B04D00E4A1D
:10D51C00ED210598FBF798FF01210C48FFF7A0F9C6
:10D52C000790079B0493049B002B04D0064AF02120
:10D53C000498FBF789FF00BF09B05DF804FB00BF3E
:10D54C0078F5010019D4010020F50100CC1300205E
:10D55C0000B583B003460091ADF80630BDF8063037
:10D56C00009A19460348FBF76FFF00BF03B05DF844
:10D57C0004FB00BFEFBEADDE10B588B01E4B002221
:10D58C001A701E4B01AC0FCB84E80F0000230793DD
:10D59C0002E0079B01330793079B1E2BF9D9182236
:10D5AC000021174801F015FC154B05221A70144B7D
:10D5BC0000225A60124B00221A75114BA0229A605D
:10D5CC000F4B64229A810E4B01225A7501AB0C4A07
:10D5DC0019460C48FFF7B0FE0690069B0593059B79
:10D5EC00002B05D0084A4FF496710598FBF72CFFD9
:10D5FC0000BF08B010BD00BF8D13002084F50100E2
:10D60C0090130020BF11002020F5010000B585B05B
:10D61C002F4B01221A702F4B4C221A802D4B2E4A65
:10D62C009A602C4B17229A800023039302E0039BF1
:10D63C0001330393039B162BF9D93C220021274875
:10D64C0001F0C7FB254B00221A70244B0422DA7020
:10D65C00224B204A5A6218220021214801F0B9FBC2
:10D66C001F4B05221A701E4B00225A601C4B0022C5
:10D67C001A751B4BA0229A60194B64229A81194B84
:10D68C001B68194A1946154800F096FE0290029B39
:10D69C000193019B002B05D0144A4FF4AC710198F7
:10D6AC00FBF7D2FE0E4A0F491148FFF745FE0290D8
:10D6BC00029B0093009B002B05D00C4A40F25B119F
:10D6CC000098FBF7C1FE00BF05B05DF804FB00BF7E
:10D6DC008D130020D4130020A8110020E01300208B
:10D6EC0090130020E0110020E411002020F501002F
:10D6FC00BF11002000B585B0124B1B7801211846D4
:10D70C00FFF71EFE0390039B0293029B002B05D098
:10D71C000D4A4FF4B2710298FBF796FE0220FFF708
:10D72C00EDFD0390039B0193019B002B05D0064A52
:10D73C0040F267110198FBF787FE00BF05B05DF85A
:10D74C0004FB00BFBF11002020F5010000B587B01D
:10D75C0001900091019B04330593059B04330493C2
:10D76C00049B1B78012B10D10A4B00224FF4203163
:10D77C001846FCF723FA0390039B002B05D0064AAE
:10D78C0040F277110398FBF75FFE00BF00BF07B0B4
:10D79C005DF804FBC011002020F5010000B587B036
:10D7AC0001F058F80590059B0493049B002B05D0C1
:10D7BC00164A40F287110498FBF746FE00230193AA
:10D7CC0001AB1946012001F0FDF80590059B039370
:10D7DC00039B002B05D00D4A40F28D110398FBF7EB
:10D7EC0033FE01AB184601F05FF90590059B0293DF
:10D7FC00029B002B05D0054A40F291110298FBF7D1
:10D80C0023FE00BF07B05DF804FB00BF20F501004C
:10D81C0000B587B00190019A0DF1090311681960E8
:10D82C0092889A809DF808306FF347038DF8083082
:10D83C0002AB1846FFF77CFD0590059B0493049BF7
:10D84C00002B05D0044A40F2A1110498FBF7FCFD13
:10D85C0000BF07B05DF804FB20F5010000B583B0F4
:10D86C00FDF70CF80190019B0093009B002B05D059
:10D87C00044A40F2AF110098FBF7E6FD00BF03B07D
:10D88C005DF804FB20F5010008B5FDF70DF800BFAD
:10D89C0008BD82B0019000BF02B0704700B583B0E4
:10D8AC000190019B063316221946064801F068FACE
:10D8BC00019B1B789B09DAB2034B5A7700BF03B06C
:10D8CC005DF804FB8F1100208811002000B583B097
:10D8DC00002301930EE0FFF767F80090009B002BEC
:10D8EC0005D00D4A40F2CF110098FBF7ADFD019B1E
:10D8FC0001330193019B002BEDDD084B1B78002BB2
:10D90C0002D1FFF783FE01E0FFF736FEFFF7F2FED0
:10D91C0000BF03B05DF804FB20F501008D1300205F
:10D92C0000B58BB03A4B1A883A4B5A82FFF72CFD54
:10D93C00FFF740FDFFF7CAFDFFF790FFFFF72EFF43
:10D94C0004AA05AB1946344800F09EF803468DF83E
:10D95C002730059B1846FFF75BFF059B1846FFF722
:10D96C0098FF2D48FFF79AFFFFF706FE2B4A01ABF5
:10D97C0007CA83E8070043F69823029301AB2849B2
:10D98C001846FFF7E1FC0890089B002B05D0254AB0
:10D99C0040F2F9110898FBF757FD2348FFF7CAF935
:10D9AC000790079B002B05D01E4A4FF4FD7107987A
:10D9BC00FBF74AFDFFF79CF9FFF79CFE1B4A002181
:10D9CC001B48FCF7C1F80690069B002B05D0154AA6
:10D9DC004FF400710698FBF737FD164B1B78002BA4
:10D9EC0002D0012B08D00DE0FFF74EFF0E4B1B7839
:10D9FC001846FFF7E1F909E0FFF768FF0D4B00222D
:10DA0C001A7003E00B4B00221A7000BFE5E700BF51
:10DA1C0084110020A81100206811002094F5010049
:10DA2C007DD3010020F50100C713002081D3010034
:10DA3C001CF50100C813002082B00190019B1B78DB
:10DA4C0063F03F03DAB20F4B5A71019B01331A7822
:10DA5C000C4B1A71019B02331A780A4BDA70019B3A
:10DA6C0003331A78074B9A70019B04331A78054BD1
:10DA7C005A70019B05331A78024B1A7000BF02B022
:10DA8C00704700BFF011002000B585B003900291E3
:10DA9C0001920398FFF7D0FF062001F02BF9034603
:10DAAC001A46029B1A60029B1B68054A1068186094
:10DABC0092889A8000BF184605B05DF804FB00BF41
:10DACC00F01100206DDF704700BF184679DF7047FA
:10DADC0000BF18467DDF704700BF184664DF7047F3
:10DAEC0000BF184682B003460091ADF80630BDF871
:10DAFC000630DAB2009B1A70BDF806301B0A9AB2D7
:10DB0C00009B0133D2B21A700223184602B0704740
:10DB1C0000B589B0039002911346ADF80630029B14
:10DB2C001B8803F10902BDF806309A4201D90C2377
:10DB3C0053E004AB1846FFF7C5FF0790079B06930D
:10DB4C00069B002B01D0069B47E0029B1B881A46C4
:10DB5C00039B134408221A70029B1B8801339AB250
:10DB6C00029B1A80029B1B881A46039B13441B22A0
:10DB7C001A70029B1B8801339AB2029B1A80029B7B
:10DB8C001B881A46039B981804AB013306221946CE
:10DB9C0001F0F6F8029B1B8806339AB2029B1A809E
:10DBAC009DF8103023F00103DBB2002B07D1029B50
:10DBBC001B881A46039B134400221A7006E0029B32
:10DBCC001B881A46039B134401221A70029B1B8864
:10DBDC0001339AB2029B1A800023184609B05DF8F3
:10DBEC0004FB00B589B0039002910192ADF80230AC
:10DBFC00039B1B78012B05D1039B5B78002B01D178
:10DC0C00072392E0019B1B889A1CBDF802309A42B4
:10DC1C000ED8039B1B78012B0CD1019B1B881A4639
:10DC2C00039B5B7813449A1CBDF802309A4201D9CD
:10DC3C000C237AE0019B1B88BDF80220D31A9BB2FF
:10DC4C00023BADF81C30BDF81C30ADF81230019B16
:10DC5C001B880233029A13440DF112021146184626
:10DC6C00FFF738FF0690069B0593059B002B01D010
:10DC7C00059B5AE0039B1B78022B06D0039B5B7819
:10DC8C009AB2BDF812309A4209D3BDF81230BDF8E1
:10DC9C001C209A4203D309238DF81F3017E0082368
:10DCAC008DF81F30039B1B78012B0CD1039B5B78E9
:10DCBC009BB2BDF81C209A4205D3039B5B789BB2A8
:10DCCC00ADF8123003E0BDF81C30ADF81230BDF8E1
:10DCDC001230FE2B01D90C2327E0BDF81230DAB23A
:10DCEC00019B1B881946029B0B440132D2B21A705D
:10DCFC00019B1B8801339AB2019B1A80019B1B88E4
:10DD0C001A46029B13449DF81F201A70019B1B8816
:10DD1C0001339AB2019B1A80019B1A88BDF812300C
:10DD2C0013449AB2019B1A800023184609B05DF87F
:10DD3C0004FB00B589B0039002911346ADF8063090
:10DD4C00029B1B881A1DBDF806309A4201D90C2380
:10DD5C003BE00DF116031846FFF7B8FE0790079B42
:10DD6C000693069B002B01D0069B2EE0029B1B8882
:10DD7C001A46039B134403221A70029B1B8801331F
:10DD8C009AB2029B1A80029B1B881A46039B13446F
:10DD9C0019221A70029B1B8801339AB2029B1A80BB
:10DDAC00BDF81620029B1B881946039B0B44194691
:10DDBC001046FFF797FE03461946029B1A888BB252
:10DDCC0013449AB2029B1A800023184609B05DF8DE
:10DDDC0004FB84B0029101921A4603468DF80F3071
:10DDEC001346ADF80C30019B1B88DA1CBDF80C30C7
:10DDFC009A4201D90C2328E0019B1B881A46029BEE
:10DE0C00134402221A70019B1B8801339AB2019BA6
:10DE1C001A80019B1B881A46029B134401221A701C
:10DE2C00019B1B8801339AB2019B1A80019B1B88B2
:10DE3C001A46029B13449DF80F201A70019B1B88F5
:10DE4C0001339AB2019B1A800023184604B0704724
:10DE5C0084B0029101921A4603468DF80F30134696
:10DE6C00ADF80C30019B1B88DA1CBDF80C309A42C3
:10DE7C0001D90C2328E0019B1B881A46029B1344F2
:10DE8C0002221A70019B1B8801339AB2019B1A80E3
:10DE9C00019B1B881A46029B13440A221A70019B91
:10DEAC001B8801339AB2019B1A80019B1B881A466E
:10DEBC00029B13449DF80F201A70019B1B880133A1
:10DECC009AB2019B1A800023184604B0704700B523
:10DEDC008FB0039001930B468DF80B3013468DF8E1
:10DEEC000A3000238DF83330109B1B88ADF830308E
:10DEFC0000230D9371E0039B5A680D9B9B001A4401
:10DF0C0005AB106818600DF11B0105AB002218461B
:10DF1C00FFF7E4FD0A900A9B0993099B002B01D0A3
:10DF2C00099B7CE09DF81B309DF80A209A4251D148
:10DF3C009DF83330002B01D0002300E002238DF834
:10DF4C002330109B1B881A469DF81B301A449DF8F1
:10DF5C0023301A44BDF844309A4201DD0C235EE0B4
:10DF6C009DF8333083F00103DBB2002B16D0109BED
:10DF7C001B8801339AB2109B1A80109B1B881A467F
:10DF8C00019B13449DF80B201A70109B1B880133C6
:10DF9C009AB2109B1A8001238DF83330109B1B888A
:10DFAC001A46019B1A440DF11B0105AB1846FFF7ED
:10DFBC0095FD0A900A9B0793079B002B01D0079BAA
:10DFCC002DE0109B1A889DF81B309BB213449AB21B
:10DFDC00109B1A800D9B01330D93039B1B881A46D3
:10DFEC000D9B934287DB9DF83330002B16D0109B92
:10DFFC001A88BDF83030D31A9BB2013BADF82E30E5
:10E00C00BDF82E30FF2B01D90C2308E0BDF83030C1
:10E01C00019A1344BDF82E20D2B21A700023184670
:10E02C000FB05DF804FB00B58BB0059003930B4665
:10E03C008DF8133013468DF812309DF81310BDF87F
:10E04C00343001930C9B0093039B02220598FFF73D
:10E05C003EFF0990099B0893089B002B01D0089B5D
:10E06C0014E09DF81210BDF8343001930C9B009312
:10E07C00039B10220598FFF72AFF0990099B079331
:10E08C00079B002B01D0079B00E0002318460BB028
:10E09C005DF804FB82B00190019B1B88052B0AD90B
:10E0AC00019B1B88B3F5486F07D9019B1B884FF662
:10E0BC00FF72934201D0072325E0019B5B88052B5F
:10E0CC000AD9019B5B88B3F5486F07D9019B5B8824
:10E0DC004FF6FF72934201D0072314E0019B1B887B
:10E0EC004FF6FF7293420DD0019B5B884FF6FF7287
:10E0FC00934207D0019B1A88019B5B889A4201D9F5
:10E10C00072300E00023184602B0704700B587B023
:10E11C00039002910192ADF80230019B1B889A1D6D
:10E12C00BDF802309A4201D90C234DE00398FFF759
:10E13C00B1FF0590059B0493049B002B01D0049B1D
:10E14C0042E0019B1B881A46029B134405221A705D
:10E15C00019B1B8801339AB2019B1A80019B1B887F
:10E16C001A46029B134412221A70019B1B8801331E
:10E17C009AB2019B1A80039B1A88019B1B88194633
:10E18C00029B0B4419461046FFF7ACFC034619469C
:10E19C00019B1A888BB213449AB2019B1A80039B81
:10E1AC005A88019B1B881946029B0B441946104642
:10E1BC00FFF798FC03461946019B1A888BB213444F
:10E1CC009AB2019B1A800023184607B05DF804FB35
:10E1DC0000B587B0039002910192ADF80230039B19
:10E1EC009B8802330593019B1B881A46059B13449D
:10E1FC009A1CBDF802309A4201D90C2354E0059BBD
:10E20C00FE2B01D90C234FE0059BDAB2019B1B8836
:10E21C001946029B0B440132D2B21A70019B1B8827
:10E22C0001339AB2019B1A80019B1B881A46029BF0
:10E23C001344FF221A70019B1B8801339AB2019B75
:10E24C001A80039B1A88019B1B881946029B0B445E
:10E25C0019461046FFF746FC03461946019B1A88DF
:10E26C008BB213449AB2019B1A80039B9B88002BA0
:10E27C0019D0039B9B68002B01D1072314E0019B51
:10E28C001B881A46029B9818039B9968039B9B88D2
:10E29C001A4600F075FD019B1A88039B9B8813445A
:10E2AC009AB2019B1A800023184607B05DF804FB54
:10E2BC0000B589B0039002910192ADF80230039B36
:10E2CC009B6A002B01D1072372E000238DF81F30CD
:10E2DC0066E0039B996A9DF81F2013465B0013446C
:10E2EC009B000B440693069B9B8802330593059B6E
:10E2FC00FE2B01D90C235BE0059BDAB2019B1B883A
:10E30C001946029B0B440132D2B21A70019B1B8836
:10E31C0001339AB2019B1A80019B1B881A46029BFF
:10E32C00134416221A70019B1B8801339AB2019B6D
:10E33C001A80069B1A88019B1B881946029B0B446A
:10E34C0019461046FFF7CEFB03461946019B1A8867
:10E35C008BB213449AB2019B1A80069B9B88002BAC
:10E36C0019D0069B9B68002B01D1072320E0019B51
:10E37C001B881A46029B9818069B9968069B9B88DB
:10E38C001A4600F0FDFC019B1A88069B9B881344DF
:10E39C009AB2019B1A809DF81F3001338DF81F3003
:10E3AC00039B93F82C309DF81F209A4291D30023A5
:10E3BC00184609B05DF804FB00B595B005900491C2
:10E3CC00039200231393039B1B88ADF84A30039BE5
:10E3DC0000221A80059B93F82D30002B0ED0BDF82F
:10E3EC004A301A4603990498FFF792FB1390139B3B
:10E3FC001193119B002B01D0119BD8E0059B9B78AE
:10E40C00002B0ED0BDF84A301A4603990498FFF73A
:10E41C0090FC1390139B1093109B002B01D0109B1E
:10E42C00C5E0059BDB78002B10D0059BDB7858B240
:10E43C00BDF84A30039A0499FFF7CBFC1390139B59
:10E44C000F930F9B002B01D00F9BB0E0059B5B68DB
:10E45C00002B11D0059B5B6893F90000BDF84A3086
:10E46C00039A0499FFF7F4FC1390139B0E930E9BE5
:10E47C00002B01D00E9B9AE0059B1B89002B14D01E
:10E48C00059B03F10800BDF84A300193039B0093F0
:10E49C00049B06220221FFF7C6FD1390139B0D93DC
:10E4AC000D9B002B01D00D9B81E0059B1B8A002B43
:10E4BC0014D0059B03F11000BDF84A300193039B67
:10E4CC000093049B07220321FFF7ADFD1390139BD0
:10E4DC000C930C9B002B01D00C9B68E0059B1B8BB9
:10E4EC00002B14D0059B03F11800BDF84A300193A2
:10E4FC00039B0093049B15221421FFF794FD1390AA
:10E50C00139B0B930B9B002B01D00B9B4FE0059B9C
:10E51C001B6A002B0FD0059B186ABDF84A30039A72
:10E52C000499FFF7F3FD1390139B0A930A9B002B9E
:10E53C0001D00A9B3BE0059B5B6A002B0FD0059B2F
:10E54C00586ABDF84A30039A0499FFF741FE1390BC
:10E55C00139B0993099B002B01D0099B27E0059B7A
:10E56C0093F82C30002B0ED0BDF84A30039A049946
:10E57C000598FFF79DFE1390139B0893089B002BA7
:10E58C0001D0089B13E0059B1B78002B0ED0BDF827
:10E59C004A30039A04990598FFF723FB1390139BB9
:10E5AC000793079B002B01D0079B00E0139B184699
:10E5BC0015B05DF804FB000082B003468DF80730FF
:10E5CC009DF90730002B0CDB9DF8073003F01F0280
:10E5DC0005499DF907305B09012000FA02F241F868
:10E5EC00232000BF02B0704700E100E082B0034678
:10E5FC008DF807309DF90730002B09DB0B4A9DF98C
:10E60C000730134493F80033DBB25B09DBB20AE04A
:10E61C00074A9DF8073003F00F03043B13441B7E9D
:10E62C00DBB25B09DBB2184602B0704700E100E0D8
:10E63C0000ED00E000B583B00190019B002B03D1ED
:10E64C000449C420FEF784FF019B5B68184603B0A5
:10E65C005DF804FBB0F5010010DF704700BF1846F1
:10E66C0082B003468DF807309DF907301F2B0CDC68
:10E67C009DF907300F4A22FA03F303F00103002B34
:10E68C0014BF01230023DBB210E09DF907303F2BB0
:10E69C000BDC9DF90730203B012202FA03F3002B1F
:10E6AC0014BF01230023DBB200E00123184602B0A3
:10E6BC00704700BFFC06FFBD82B00190019B072B89
:10E6CC0007D8EC22019B42FA03F303F00103002B61
:10E6DC0001D1002300E00123184602B0704700006E
:10E6EC0000B583B003468DF807309DF90730184606
:10E6FC00FFF7B6FF0346002B02D142F201032EE0D6
:10E70C009DF907301846FFF771FF03461846FFF7CF
:10E71C00D3FF0346002B02D142F202031FE0124B3F
:10E72C009B68002B15D09DF907305B090E4A52F8F7
:10E73C0023209DF8073003F01F03012101FA03F396
:10E74C0019469DF907305B090A43074941F8232014
:10E75C0004E09DF907301846FFF72EFF00231846FA
:10E76C0003B05DF804FB00BFA412002000B587B015
:10E77C0003468DF8073002AB14491846FCF7B4F881
:10E78C0017E002AB1846FFF755FF0590059B1B6879
:10E79C000493059B59689DF80720049B10469847E5
:10E7AC000346002B01D111230BE002AB1846FCF7FA
:10E7BC00C5F802AB1846FFF73DFF0346002BE0D12E
:10E7CC000023184607B05DF804FB00BF58F60100A3
:10E7DC0000B587B003468DF8073002AB11491846D7
:10E7EC00FCF782F812E002AB1846FFF723FF059006
:10E7FC00059B1B680493059B59689DF80720049B97
:10E80C001046984702AB1846FCF798F802AB18462E
:10E81C00FFF710FF0346002BE5D100BF00BF07B088
:10E82C005DF804FB64F6010000B583B01620FFF719
:10E83C0057FF0190019B0093009B002B04D0044ACE
:10E84C00A1210098FAF700FE00BF03B05DF804FBAD
:10E85C0004F6010000B585B0234B1B78002B01D0CA
:10E86C0008233CE0214B01221A700020FFF77EFFA9
:10E87C000346112B01D1002331E00020FFF7A8FF44
:10E88C001B4B1B68029300238DF807300DF1070317
:10E89C001846FBF7BBFA02AB16491846FFF7DCFE2D
:10E8AC000390039B002B0CBF01230023DAB20E4B09
:10E8BC001A709DF807301846FBF7BEFA039B002B25
:10E8CC0001D0039B0BE0094B00221A700A4B00226B
:10E8DC001A70FFF7A9FF0120FFF77AFF00231846F3
:10E8EC0005B05DF804FB00BF1C1400201E140020B2
:10E8FC0054F60100719401001D140020014B1B788B
:10E90C00184670471C14002000B585B06B461149A1
:10E91C001846FBF7E9FF10E06B461846FFF78AFE36
:10E92C000390039B1B680293039B5A68029B10463F
:10E93C0098476B461846FCF701F86B461846FFF7EC
:10E94C0079FE0346002BE7D100BF00BF05B05DF890
:10E95C0004FB00BF70F6010008B5FFF7D5FF00BF40
:10E96C0008BD60DF704700BF184669DF704700BF05
:10E97C00184661DF704700BF1846000000B583B031
:10E98C000190019B002B03D10449C420FEF7E0FD4C
:10E99C00019B5B68184603B05DF804FB7CF6010034
:10E9AC0082B00190019B002B01D10E2304E0044B9B
:10E9BC001A46019B1A600023184602B0704700BF2C
:10E9CC001811002000B587B0034600918DF8073070
:10E9DC000098FFF7E5FF0590059B002B01D0059BE8
:10E9EC005EE002AB0C220021184600F0F2F99DF813
:10E9FC0007308DF8083001238DF80A300623ADF866
:10EA0C000C30009B1A6802AB19462020FFF7ADFFB3
:10EA1C00059002AB0C220021184600F0DAF9002315
:10EA2C008DF80930009B1A6802AB19464020FFF79D
:10EA3C009CFF059002AB0C220021184600F0C9F98E
:10EA4C0000238DF80830009B1A6802AB1946012090
:10EA5C00FFF78BFF059002AB0C220021184600F04B
:10EA6C00B8F9F8230293009B1A6802AB1946A1204F
:10EA7C00FFF77BFF059002AB0C220021184600F03B
:10EA8C00A8F99DF808306FF300038DF80830009B4F
:10EA9C001A6802AB1946A020FFF767FF0590002308
:10EAAC00184607B05DF804FB00B585B00190019BDA
:10EABC001B6803930198FFF754FF0290019B1B689E
:10EACC00039A9A42029B002B02D1044B01221A702A
