:020000021000EC
:1090000000600020759301005D9301005F930100F3
:10901000619301006393010065930100000000006B
:109020000000000000000000000000006793010045
:1090300069930100000000006B9301006D93010033
:109040002DA201006F930100FDA301006F930100A9
:109050006F93010000000000B1A2010021A40100F3
:109060006F9301006F9301006F9301006F930100F4
:109070006F9301006F9301006F9301006F930100E4
:1090800061A70100E59A01006F9301006F93010051
:109090006F9301006F93010015B401006F930100FD
:1090A0006F9301006F9301000000000000000000BA
:1090B0006F9301006F9301000000000000000000AA
:1090C00000000000000000000000000000000000A0
:1090D0000000000000000000000000000000000090
:1090E0000000000000000000000000000000000080
:1090F0000000000000000000000000000000000070
:10910000000000000000000000000000000000005F
:10911000000000000000000000000000000000004F
:10912000000000000000000000000000000000003F
:10913000000000000000000000000000000000002F
:10914000000000000000000000000000000000001F
:10915000000000000000000000000000000000000F
:1091600000000000000000000000000000000000FF
:1091700000000000000000000000000000000000EF
:1091800000000000000000000000000000000000DF
:1091900000000000000000000000000000000000CF
:1091A00000000000000000000000000000000000BF
:1091B00000000000000000000000000000000000AF
:1091C000000000000000000000000000000000009F
:1091D000000000000000000000000000000000008F
:1091E000000000000000000000000000000000007F
:1091F000000000000000000000000000000000006F
:10920000354936480A1A02D0072291438D4634491F
:1092100034480A1A06D00722914381F309880222B2
:1092200082F3148830483149314A00F044F831481B
:109230003149324A00F03FF831483249324A00F0B1
:109240003AF832483249334A00F035F83248334967
:10925000334A00F030F833483349344A00F02BF8F1
:1092600033483449344A00F026F83448344900225F
:1092700000F02CF833483449002200F027F8334836
:109280003349091A082902DB002202604160314A91
:1092900090471F481F49884205D00268043003B434
:1092A000904703BCF7E700208646EC4600200021EB
:1092B000294A9047FEE7884207D0521A05D0037822
:1092C00001300B700131013AF9D17047884202D068
:1092D00002700130FAE7704700600020005800205B
:1092E000006000200060002044B801001811002038
:1092F000F8110020BC930100BC9301006CB7010081
:1093000044B80100181100201811002094B7010082
:1093100094B7010094B7010094B7010094B701001D
:1093200094B7010094B7010094B7010044B801005C
:1093300024B90100F8110020F8110020F8110020D4
:10934000FB130020FC130020FC130020FC13002062
:10935000FC1B00208B930100BDAC0100FEE7FEE783
:10936000FEE7FEE7FEE7FEE7FEE7FEE7FEE7FEE7D5
:1093700000F002B8FFF7FCBF0B484FF0070188432D
:1093800085460A488047FFF73BBF094809490A4A12
:10939000884207D0521A05D0037801300B70013192
:1093A000013AF9D170470000006000203D9D0100A6
:0C93B00094B701001811002018110020D3
:1093BC001FB50021039001AA44F20100CDE901116F
:1093CC0000F004F805B05DF804FB000072B6094B20
:1093DC00D3F8F020D20700D500BEBFF34F8FD96869
:1093EC00054A01F4E0610A43DA60BFF34F8F00BF16
:1093FC00FDE700BF00ED00E00400FA0510B5D0E970
:10940C000243D1E90202A04272EB03032CBF0120FC
:10941C00002010BD08B50A4800F047FB094AD2E904
:10942C000031C018084BD3E9002341F100019042F0
:10943C0071EB030303D210F1807041F1000108BD00
:10944C0018110020001200207812002037B50546B4
:10945C000C460A4801A900F05CFB60B10570446041
:10946C0001A9064800F07FFB18B1054800F022FB6B
:10947C00002003B030BD0420FBE700BF64120020C5
:10948C0018110020294B73B51E7804461EB900260E
:10949C00304602B070BD0028F9D0FFF7BBFFD4E90D
:1094AC0002239042994139D300230DF107008DF826
:1094BC00073000F0BDF923692BB94FF0FF324FF0A4
:1094CC00FF33C4E902239DF8070000F0D5F9D4E975
:1094DC000530984700250DF107008DF8075000F076
:1094EC00A7F92369C3B1D4E90212B2F1FF3F08BF57
:1094FC00B1F1FF3F05D05B1842F10002C4E9023222
:10950C0035469DF8070000F0B7F9002DBFD008488C
:10951C00214600F0ADFBBBE71D46F2E7B3F1FF3F80
:10952C0008BFB2F1FF3FB2D0F1E700BF0812002034
:10953C0098B7010013B5114B114918680190082315
:10954C001048582200F0D2FA044698B90E4A0F4837
:10955C0001A900F0B3F9044660B90C48012100F0F0
:10956C0087FA01230A4A0948194600F0E9F9094B20
:10957C0001221A70204602B010BD00BF94B7010042
:10958C000C1200206412002081960100181100209A
:10959C00FFFF7F000812002030B56AB103684FF05E
:1095AC00FF344FF0FF355A614A1E5142C3E9024560
:1095BC0051411961002030BD0720FCE7F7B5044686
:1095CC0000250DF1070017460E468DF8075000F0E8
:1095DC002FF9D4E90223B3F1FF3F08BFB2F1FF3FEB
:1095EC0007D1FFF717FF301841F10001C4E9020160
:1095FC0001259DF8070000F03FF955B12369A761DB
:10960C0003B126612146002003B0BDE8F040FFF70E
:10961C001DBF284603B0F0BD37B5054600240DF13B
:10962C0007008DF8074000F003F9D5E90223B3F1E8
:10963C00FF3F08BFB2F1FF3F06D04FF0FF324FF0B3
:10964C00FF33C5E9022301249DF8070000F014F94B
:10965C0034B12946012003B0BDE83040FFF7F6BE17
:10966C00204603B030BD0000014800F01EBA00BF18
:10967C00181100202DE9F743064600F001FA40B11D
:10968C00634AD2E9003113F1807341F10001C2E960
:10969C0000310021304600F002FA38B15D4C2368ED
:1096AC0023B12068FFF7EEFE002323600121304632
:1096BC0000F0F5F920B1FFF7ADFE574BC3E90001FF
:1096CC005648544F01A900F05EFA4FF0FF344FF0AA
:1096DC00FF35A0B9DFF848814E4D404600F0DEFA68
:1096EC00002800F08680D0E90223B3F1FF3F08BFC9
:1096FC00B2F1FF3F33D1404600F0CAFAEDE70378F0
:10970C00012B21D0022B09D1DFF81481404600F047
:10971C00BFFA002877D0C0E90245F7E75BB941688A
:10972C00D1E90223B3F1FF3F08BFB2F1FF3F02D0F2
:10973C003B4800F09DFA01A9384800F04FFA01A906
:10974C00364800F020FAC4E741683B68994202D1E0
:10975C0000233B60EFE7324800F0A3FAEBE72968FF
:10976C0091B12968D1E9020182428B412FD22B6839
:10977C00D3E90223B3F1FF3F08BFB2F1FF3F03D09F
:10978C002968404600F074FA404600F081FAD0E9AE
:10979C0002490746FFF73EFE201A69EB0109012832
:1097AC0079F1000318DBB0F5350F13D3FFF75CFF2D
:1097BC001C4A02441C484FF49603002100F0E0F8C8
:1097CC0090B92B6813B9304600F0B2F82F6003B093
:1097DC00BDE8F0832246EDE71348002100F055F96F
:1097EC003846FFF74FFE01E00D28F9D000232B601F
:1097FC0073E7084B1B68002BE9D1304603B0BDE87A
:10980C00F04300F099B8094B01221A7093E700BF9E
:10981C000012002080120020781200206412002018
:10982C0098B70100FFFFB4001811002008120020A7
:10983C0070B5EFF3108672B60C4A946801239CB98C
:10984C0093600B4B0B4DD3F8801029401160C3F87B
:10985C008050D3F8841051604FF0FF32C3F884204D
:10986C00047006B962B670BD0370FAE7841200206A
:10987C0000E100E0FC06FFBD084B9A6810B55AB138
:10988C0050B9EFF3108172B6054A1C6814605C681D
:10989C005460986001B962B610BD00BF84120020FC
:1098AC0000E100E00346405882B028B100225A5033
:1098BC005B580193019B012002B0704770B5184CA6
:1098CC004379184D44F8232005EBC3031B792BBBBC
:1098DC0003680A88C3F8082590F904408B7802794C
:1098EC005B01002CDBB214DB0F490E1986F8003338
:1098FC000123640902F01F0203FA02F241F824204A
:10990C00437905EBC302012145F8330011710020A6
:10991C0070BD064902F00F028B54F1E70820F7E7FF
:10992C00981200209012002000E100E014ED00E0FD
:10993C00036801221A607047036801225A6070475D
:10994C0073B501F15005AD000068ADB24FF4803431
:10995C008C400026C0F80843C0F84843465101F536
:10996C00A8714559019522F07F42019D40F82120B4
:10997C00C0F844430BB1C0F8044302B070BD000002
:10998C002DE9F74F0D4622F07F4402684FF48037E3
:10999C0005F150068F408046B60002EB8500C2F8F8
:1099AC004873B6B2C2F80873D2F8041599464FF052
:1099BC00000BD0F84035C0F8401542F806B05B1AE1
:1099CC009259009223F07F43012B009A4FEA850AAB
:1099DC000CD1264B4FF4806043F001039847D8F824
:1099EC00003043F806B09B590193019BD8F8001046
:1099FC00D1F80465C1F84473A31B23F07F43012BFA
:109A0C001CD11A4B05F5A875013443F0010341F83C
:109A1C0025404FF480609847D8F80030D3F80435CF
:109A2C009E4209D1D8F800300020C3F84473C3F823
:109A3C00047303B0BDE8F08F0D20FAE78A44C9F136
:109A4C00FF13CAF84045D1F80405221A013A22F056
:109A5C007F4203F57F439342EED3002AE2D10134D7
:109A6C00CAF84045D1F804359842DAE7B0B701009E
:109A7C0003680222C3F8442309B1C3F804237047D6
:109A8C0000684FF48271FFF70DBF4FF4803303FA77
:109A9C0001F10368C3F84813C3F808137047503139
:109AAC008900006889B2FFF7FDBE0368D3F804058E
:109ABC007047000090F90430002B09DB5A09012192
:109ACC0003F01F0301FA03F34032024941F822303C
:109ADC00704700BF00E100E0024B034A1B681068AE
:109AEC00184700BF981200209012002030B5054690
:109AFC0059B1B2FBF3F403FB1424A0B238B9C5E995
:109B0C000010A860AA81EB8130BD0E20FCE7092073
:109B1C00FAE737B550E8013F9DB2C48925448489E2
:109B2C00A54228BF2D1B0489A54202BFBFF32F8F6E
:109B3C00002207E0C5EA030540E80154002CE9D1F6
:109B4C004FF001028DF803200193019A0A609DF8F1
:109B5C00031001F0FF0321B1006810FA82F003B08A
:109B6C0030BD1846FBE70A884B889A4209D150E869
:109B7C00012FC2EA024240E80123002BF7D1012059
:109B8C0070470020704737B550E8023F1FFAA3F525
:109B9C00C488A54202BFBFF32F8F00220DE0C489F9
:109BAC0025448489A54228BF2D1BC3EA054540E8FE
:109BBC000254002CE8D14FF001028DF803200193E0
:109BCC00019A0A609DF8031001F0FF0321B10068AF
:109BDC0000EB124003B030BD1846FBE70A884B88F7
:109BEC009A4209D150E8022FC2EA224240E80223ED
:109BFC00002BF7D1012070470020704741DF7047E0
:109C0C00064B10B500241C70054B1C60BFF35F8F16
:109C1C000449054800F016F8204610BDA412002097
:109C2C00A8120020B8B701009C12002008B501F062
:109C3C00D1FB18B1BDE80840FFF7E0BF20BF40BF23
:109C4C0020BF08BD0B684A684360934208BF0023DD
:109C5C00016008BF43607047436843B10268916874
:109C6C0052680B449342436004BF00234360704727
:109C7C0070B5446806460D46206818B1B36829468D
:109C8C00984718B923682B60256070BD2468F3E7EA
:109C9C004368186808B102681A607047436818680E
:109CAC0070474368186800B97047884203D102684E
:109CBC001A600120704703460068F4E7BFF34F8F2A
:109CCC000549064BCA6802F4E0621343CB60BFF34C
:109CDC004F8F00BFFDE700BF00ED00E00400FA0568
:109CEC004FF08053D3F83001082804D0A0F10E03B4
:109CFC005842584170470120704700004FF0805384
:109D0C00D3F83021082A06D1D3F83431052B02D8E8
:109D1C00024AD05C70470020704700BFCAB70100F0
:109D2C00024AD2F80034002BFBD0704700E001400F
:109D3C004FF0805310B5D3F830210E2A01BFD3F861
:109D4C0044324FF08042C3F34233C2F83C35FFF744
:109D5C00C7FF40B14FF080430022C3F80C21C3F879
:109D6C001021C3F83825FFF7BBFF002846D04FF071
:109D7C0080526A4BD2F80414C3F82015D2F8081498
:109D8C00C3F82415D2F80C14C3F82815D2F8101403
:109D9C00C3F82C15D2F81414C3F83015D2F81814D3
:109DAC00C3F83415D2F81C14C3F84015D2F820149B
:109DBC00C3F84415D2F82414C3F84815D2F8281463
:109DCC00C3F84C15D2F82C14C3F85015D2F8301433
:109DDC00C3F85415D2F83414C3F86015D2F83814FB
:109DEC00C3F86415D2F83C14C3F86815D2F84014C3
:109DFC00C3F86C15D2F84424C3F87025FFF77EFF26
:109E0C0018B1474B474AC3F88C26FFF777FF18B1B8
:109E1C00454BFB22C3F81825FFF770FF70B14FF0CC
:109E2C0080414FF08053D1F8E42ED3F8583222F011
:109E3C000F0203F00F031343C1F8E43EFFF75EFF7C
:109E4C0020B13A4B4FF40072C3F84026FFF748FF9D
:109E5C0048B14FF08043D3F80024D20744BF6FF0D1
:109E6C000102C3F800244FF08053D3F830310E2B8D
:109E7C0001BF4FF08042D2F8E43E43F00F03C2F82A
:109E8C00E43E4FF08053D3F83021082A0ED1D3F89A
:109E9C003431052B02D8264AD35C3BB14FF010234A
:109EAC00D3F808224FF08043C3F858254FF0102107
:109EBC00D1F80032002B03DBD1F80432002B17DA77
:109ECC001C4901234FF01020C1F804351224FFF770
:109EDC0027FFC0F80042FFF723FFC0F80442FFF74A
:109EEC001FFF0023C1F80435FFF71AFFFFF7E6FE4A
:109EFC00D1F80C32DB070DD50E480123C0F8043520
:109F0C000024FFF70DFFC1F80C42FFF709FFC0F862
:109F1C000445E9E7084B094A1A6010BD00C000402F
:109F2C00005000404881030000F0004000900240C7
:109F3C00C4B7010000E00140201100200090D003C4
:109F4C00054A4FF0A043105CD3F8043523FA00F017
:109F5C00C04300F001007047D0B70100044B1A5CFD
:109F6C00012393404FF0A042C2F80C35704700BF5C
:109F7C00D0B70100044B1A5C012393404FF0A04270
:109F8C00C2F80835704700BFD0B7010008B50020F3
:109F9C00FFF7F0FF0120FFF7EDFF0220FFF7EAFFCC
:109FAC00BDE808400320FFF7E5BF08B50020FFF728
:109FBC00D5FF0120FFF7D2FF0220FFF7CFFFBDE84E
:109FCC0008400320FFF7CABF074A4FF0A041105CBE
:109FDC00D1F804350122824022EA03001340C1F873
:109FEC000805C1F80C357047D0B7010038B5074CDF
:109FFC00051E04F1080318BF1C4623682BB11A6810
:10A00C0022605B6828469847F7E738BDB4120020F9
:10A01C0020B9054B01225A70FFF7E8BF012802D185
:10A02C00014A9070F8E77047AC12002020B9034B3E
:10A03C0001225A70FFF7DABF704700BFAC12002044
:10A04C0038B50E4C2378B3B90D486360A360236117
:10A05C00E36000F0A9F8054601F0BCF908B900F07E
:10A06C00AFF801232370074BD3F800340BB1012355
:10A07C00A370284638BD8525F5E700BFAC1200203B
:10A08C001DA001000000014037B5184CA37805460F
:10A09C0003F0FF029BB110B14368012098470023E5
:10A0AC000DF107008DF80730FFF7C2FBE3689DF850
:10A0BC0007000133E360FFF7DFFB03B030BD0DF1A8
:10A0CC0007008DF80720FFF7B3FB25B12269134673
:10A0DC003BB92A602561E368002BE7D100F082F8D8
:10A0EC00E4E79D42F7D01B68F2E700BFAC120020FA
:10A0FC0037B50D4C00230DF107008DF80730FFF735
:10A10C0097FBE368013BE360E36833B9074BD3F893
:10A11C00005415B900F073F8A5709DF80700FFF70F
:10A12C00ABFB03B030BD00BFAC12002000000140FF
:10A13C00012813B50CD0032820D038B9134B0122B9
:10A14C00C3F88020BFF34F8FBFF36F8F02B010BDE9
:10A15C000F4C00230DF107008DF80730FFF768FB5B
:10A16C0023780BB9FFF76CFFE3689DF80700013308
:10A17C00E3600123A370FFF77FFBE7E700F020F813
:10A18C0002B0BDE81040FFF7B3BF00BF00E100E034
:10A19C00AC12002000F18040002382B00360036801
:10A1AC000193019B02B07047044B0246187918B911
:10A1BC001A6001221A71704785207047C012002066
:10A1CC00074B1A68D20704D4C02283F8002301225B
:10A1DC001A604FF080430122C3F81825704700BF66
:10A1EC0000E100E008B54FF48270FFF7D3FF4FF0A9
:10A1FC0080430222C3F8042301229A6008BD4FF069
:10A20C00804208B50223C2F808334FF48270FFF77E
:10A21C00C1FF0123D360D2F81834DB03FBD408BD93
:10A22C004FF0804210B5D2F8003153B14FF480702A
:10A23C00FFF7B0FF0123C2F808330B4B00201B685B
:10A24C0098474FF08042D2F8043163B14FF48270DA
:10A25C00FFF7A0FF0223C2F80833034BBDE8104000
:10A26C001B680120184710BDC012002000F180406F
:10A27C0000F5C040002382B0036003680193019B8A
:10A28C0002B07047800000F1A040D0F8002722F403
:10A29C004032C0F80027D0F8003743EA0143C0F839
:10A2AC00003770472DE9F74F00244E4D01944FF4C1
:10A2BC008072012102F1804303F5C04390B21B6808
:10A2CC00012B06D1D5F804330B4202D0FFF7CEFF99
:10A2DC000C430432B2F5907F4FEA4101EAD1414B75
:10A2EC00D3F87C31012B0CD14FF4BE70FFF7BEFFBD
:10A2FC004FF0A04344F00044D3F820250192C3F85A
:10A30C002025E3B2D3B1384F01260025344210D0BA
:10A31C00AB0003F1804303F5C043D3F81005D3F829
:10A32C00101557F8253023B1C1F30141C0F30420B7
:10A33C0098470135082D4FEA4606E7D1002C48DA3C
:10A34C00294D4FF0A048294E4FF00009012716F96E
:10A35C00013B5A1C31D0C3F3C20208326A44DCB24E
:10A36C0012F8042C03F03F0A03F0070307FA03F377
:10A37C001A4222D00AF5E073504658F82330C3F342
:10A38C00014BBBF1020F0CBF03210221FFF77AFF37
:10A39C0007FA0AF3C8F8203505EB0A0393F93030B5
:10A3AC0055F823304BB1A109032904D0BBF1020F9E
:10A3BC0012D1012901D15046984709F10109B9F18F
:10A3CC00040FC4D1D8F820350193C8F82035002BE0
:10A3DC00B9D103B0BDE8F08FBBF1030FEDD1022969
:10A3EC00E8E700BF00600040C812002018130020EE
:10A3FC00014B1B68184700BF2413002000F180405C
:10A40C0000F5E040002382B0036003680193019BD8
:10A41C0002B07047F0B5524B524CD3F8043185B0B2
:10A42C00002B3DD094F82E204FF48270FFF7E6FFFE
:10A43C002AB394F82F3013BB494AD2F80031002BC1
:10A44C0032D04FF48070FFF7D9FF638B94F82D0056
:10A45C00834250D921891B1A9BB289B26383CB1AD0
:10A46C00616801EB4303C2F82C36C2F830064FF496
:10A47C008270FFF7C3FF3A4B01225A6014E0636805
:10A48C0002932389ADF80C30E36800218DF8041099
:10A49C0033BB2374236801A89847002384F82F301A
:10A4AC0094F82E30002BC7D12D4BD3F810315BB163
:10A4BC004FF48870FFF7A2FF0023237402238DF85A
:10A4CC00043001A823689847254BD3F81431EBB11D
:10A4DC004FF48A70FFF792FF0023237405B0F0BD90
:10A4EC00208B608363602081E160002AD2D11C4BF9
:10A4FC0001221A60CEE7BAD1E368012184F82F104B
:10A50C0013B100216183AEE76383B0E766694FF056
:10A51C0000470125002EE1D0B6FA86F227FA02F3A5
:10A52C004632920026EA030602F1804303F5E0432B
:10A53C001B68002BEED01046A2F58C72FFF75EFF65
:10A54C00D30882F00402C2F380028DF808308DF833
:10A55C00045023688DF8092001A89847DAE700BF5A
:10A56C00007000402C13002038B5204A92F82C3093
:10A57C000446002B37D111601D490078C1F8F00555
:10A58C006078C1F8F4050125E078137482F82D3059
:10A59C00536182F82F306FF0004382F82E0082F85E
:10A5AC002C504FF48270C1F80833FFF727FF4FF49B
:10A5BC008070FFF723FF4FF48A70FFF71FFFA3781B
:10A5CC000C485B01DBB280F8073380230360022365
:10A5DC00C1F8043392F82E300BB1C1F80453C1F812
:10A5EC000055002038BD0820FCE700BF2C130020CC
:10A5FC000070004000E100E030B5224B1A7C002ACC
:10A60C003ED100F10C0403EB4402127922B993F809
:10A61C002D20013283F82D2003EB4403CA790C7AE8
:10A62C008D781A715C714B782D021B0105F4E06575
:10A63C0003F030032B430D7805F003052B43CD7845
:10A64C002D0305F480552B430D792D0405F4E025DD
:10A65C002B434D7989792D0505F48015090601F0F8
:10A66C0080712B430B43010101F1804101F5E04165
:10A67C000020C1F81835C1F81445C1F8102530BDBB
:10A68C001120FCE72C13002070B5264A264B0546FA
:10A69C001220C2F808031C7C022C03D1C2F804035C
:10A6AC00112070BD187C01281CD1D86818B1022368
:10A6BC00C2F80433F4E7DD60198393F82E305BB9EC
:10A6CC00D2F80031002BFBD04FF48070FFF796FED0
:10A6DC00C2F82C56C2F83016124B0222C3F80423CF
:10A6EC000020DEE7022093F82E40C2F80403012676
:10A6FC0000201E745D601981D8603CB1598393F8B9
:10A70C002D30C2F82C56C2F83036CAE7C2F82C5697
:10A71C004FF48070C2F83016FFF770FE16602046BA
:10A72C00BFE700BF007000402C130020074B197CC2
:10A73C000129CAB208D193F82E00054B10B11A604A
:10A74C00002070475A607047082070472C13002077
:10A75C000070004013B5084CD4F800314BB1074BD6
:10A76C001B6898470023C4F80031D4F800310193DA
:10A77C00019B02B010BD00BF00000140601300201F
:10A78C0070B5114B1960114B1C780546D4B9104E9D
:10A79C0001221A700378C6F80C3541684FF47A72AE
:10A7AC000023C803490C00F0CDFEC6F804052B7A33
:10A7BC00084A5B01DBB282F810334FF4803313602C
:10A7CC00204670BD0820FCE7601300205D130020BC
:10A7DC000000014000E100E0044B0122C3F8042317
:10A7EC001A60034B02221A70704700BF0000014030
:10A7FC005D13002037B5054600240DF107008DF8D8
:10A80C000740FFF715F80C4B1A78072A11D8511C82
:10A81C0019700A492A70D1F80805012393400343A3
:10A82C00C1F808359DF80700FFF726F8204603B05D
:10A83C0030BD0424F6E700BF5C130020000001408B
:10A84C00034B044A00F5C07043F82020704700BF4A
:10A85C00000001403546526E08B5094B1B7853B1C8
:10A86C000020FFF787FB0120FFF784FBBDE80840C1
:10A87C000320FFF77FBBBDE80840FFF787BB00BF95
:10A88C0064130020F8B57A4C237805461BB10023DD
:10A89C002370FFF7E1FF172D00F28780DFE805F04A
:10A8AC000C1717425364757F878C878C94999999F0
:10A8BC009999C3C8D0D8E3E3FFF7CEFF6D48FEF7F4
:10A8CC00ABFE6D4B002204461A702046F8BD0020EA
:10A8DC00FFF736FBF0B10020FFF74CFB022D0CBF4D
:10A8EC004FF4E1644FF47A64634B1D7000254FF410
:10A8FC0000464FF47A7029464FF4FA620023E4FBC9
:10A90C00060100F01FFE2A460146BDE8F8405948F2
:10A91C00FEF754BEFFF722FB022D0CBFC8244FF4E8
:10A92C00C874E1E70020FFF70BFB40B10020FFF7F4
:10A93C0021FB4FF44874504B03221A70D6E7FFF7F3
:10A94C000DFBC824F7E70020FFF7FAFA38B1002016
:10A95C00FFF710FB4FF47A64474B0422EDE7FFF747
:10A96C00FDFA4FF4C874F7E70020FFF7E9FA48B195
:10A97C000020FFF7FFFA404B05221A7040F6CD413C
:10A98C000022C2E7FFF7EAFAF5E70020FFF71CFB0D
:10A99C00394B06221A70002240F26661B5E700209E
:10A9AC00FFF7DCFA344B07221A7000248DE70120E4
:10A9BC002070FFF709FBEEE701202070FFF704FB86
:10A9CC0000224FF40051A0E7FFF7EFFA2A4B0C22BC
:10A9DC00EAE72A482A4EFEF71FFED5F11105044678
:10A9EC001CD0D8B9012D13D0C820454321464FF4B3
:10A9FC0000474FF47A704FF4FA620023C5FB07014D
:10AA0C0000F0A0FD224601461C48FEF7D7FD044687
:10AA1C000220FFF7A3FA0123337056E70220FFF759
:10AA2C00A9FA0023F8E7FFF717FF134B1222BBE735
:10AA3C00FFF712FF0020FFF791FA0F4B1322B3E739
:10AA4C00FFF70AFF0120FFF789FA0B4B1422ABE743
:10AA5C00FFF702FF0020FFF781FA0120FFF77EFAD3
:10AA6C00054B1522A0E7FFF7A0FA034B1D709CE7DE
:10AA7C006C130020481100206D13002028110020B9
:10AA8C0064130020044B1B6813F0010301D0FFF783
:10AA9C00F9BE1846704700BF681300206CDF704782
:10AAAC0072DF704773DF704770470000014B012263
:10AABC001A7070476E130020104B30B500251D70B6
:10AACC000F4B0FCB85B06C4684E80F000D4B182252
:10AADC002946184600F00DFE05220270A022826065
:10AAEC006422828101224275214602460648FFF704
:10AAFC00D7FF08B1FEF75CFC05B030BDF6130020A3
:10AB0C00D4B70100AC130020B011002008B5084BDD
:10AB1C0001211878FFF7C6FF08B1FEF749FC0220A7
:10AB2C00FFF7B0FF18B1BDE80840FEF741BC08BD07
:10AB3C00B011002008B5037A012B0AD10548002278
:10AB4C004FF42031FEF73AFD18B1BDE80840FEF78E
:10AB5C002FBC08BD6811002010B50378044603BB58
:10AB6C0040680121FFF790FD08B1FEF721FC6368F6
:10AB7C001B884FF4616213FB02F3002BB8BF03F286
:10AB8C00FF33C3F38F2340F6B8318B42094A09D9FE
:10AB9C00118013880A22A3F5FA6393FBF2F3064A99
:10ABAC00537210BDB3F5FA6F38BF4FF4FA631380CC
:10ABBC00EFE700BFF41300208811002007B50368ED
:10ABCC00CDF801308388ADF805309DF8003068462B
:10ABDC006FF347038DF80030FFF760FF08B1FEF705
:10ABEC00E7FB03B05DF804FB10B5084A831D00F1C8
:10ABFC001A0153F8044B42F8044B8B42F9D11B88D1
:10AC0C0013800378024A9B09537710BDB8110020BA
:10AC1C00B111002070B5FFF789FD08B1FEF7C8FB34
:10AC2C001C4B1E78002E32D11B4D1C4C01221A706D
:10AC3C004C232B801A4BAB603C2217233146204609
:10AC4C00AB8000F056FD0423E370164B65621822AE
:10AC5C003146184600F04DFD05220270A02282609C
:10AC6C0064228281104A204652F8041B00F060F9DD
:10AC7C0008B1FEF79DFB0B4A0B490C48FFF710FF80
:10AC8C0008B1FEF795FBBDE87040FFF73FBFFFF73B
:10AC9C0013FFF8E7F6130020E813002070130020D0
:10ACAC0088110020AC130020A0110020B01100204E
:10ACBC0070B5444B4FF4406286B05A82FEF73AFCB2
:10ACCC0008B1FEF775FBFFF7BBF908B1FEF770FB97
:10ACDC000020FFF7D9F93C4A10695169127E03AB89
:10ACEC0003C33A493A481A70FFF73EFC03AC08B16B
:10ACFC00FEF75EFB21460020FFF77EFC08B1FEF755
:10AD0C0057FB34480121FFF7BFFC08B1FEF750FB9D
:10AD1C00FEF776FF08B1FEF74BFB00F01DFB08B108
:10AD2C00FEF746FB002321460120039300F0A0FB15
:10AD3C0008B1FEF73DFB204600F0D8FB08B1FEF74A
:10AD4C0037FB02AA01A9244800F066F80198FFF726
:10AD5C0035FF2148FFF748FFFFF7AEFE1F4B93E886
:10AD6C00070043F6982384E807001D490493204606
:10AD7C00FFF706FD08B1FEF71BFB1A48FFF73AFD7B
:10AD8C0008B1FEF715FBFFF727FDFFF7BFFE164ACC
:10AD9C0016480021FEF700FC08B1FEF709FB144C25
:10ADAC00104E002523781BB1012B07D02570F9E735
:10ADBC00FEF73CFF3078FFF743FDF3E7FFF72AFF80
:10ADCC00F4E700BF88110020D4B7010065AB010087
:10ADDC0000B80100C4130020D0110020F0B701000E
:10ADEC00B5AA0100C8130020B9AA0100FCB70100E4
:10ADFC006E1300200278074B62F03F025A714278C2
:10AE0C001A718278DA70C2789A7002795A70427923
:10AE1C001A707047EC11002010B5FFF7EBFF0620FD
:10AE2C000C4600F0F7FB044A206003461068928839
:10AE3C0018609A8010BD00BFEC1100206DDF7047C8
:10AE4C0079DF70477DDF704764DF70472DE9F04F85
:10AE5C0085B000250E9CBDF83CB0B4F800A0019163
:10AE6C00074690461E46A9463A884A450DDC45B130
:10AE7C002388013BA3EB0A039BB2FF2B3AD806F8BD
:10AE8C000A30002005B0BDE8F08F7A6852F829002E
:10AE9C00039000220DF10B0103A8FFF7D5FF00284A
:10AEAC00F0D19DF80B20424521D12288002D14BFF2
:10AEBC000020022002EB0801014459451ADC3DB97F
:10AECC00013292B2019B2280B3542288013222803B
:10AEDC0022880DF10B01324403A8FFF7B5FF0028BF
:10AEEC00D0D121889DF80B200A442280012509F13C
:10AEFC000109B9E70C20C5E72DE9F341089FBDF81E
:10AF0C0024801546CDE90078022204461E46FFF740
:10AF1C009DFF50B93346102229462046CDE90878CA
:10AF2C0002B0BDE8F041FFF791BF02B0BDE8F0817F
:10AF3C002DE9F04F00231788138090F82D3085B041
:10AF4C0006460D4614465BB3082F01D80C2028E1A9
:10AF5C0002A8FFF773FF002840F023812388DDF857
:10AF6C0009100822EA54238801339BB21B22238048
:10AF7C00EA54238801339BB2EA182380E950BDF8C8
:10AF8C000D30938023889DF8082006339BB212F075
:10AF9C00FE0218BF01222380EA5423880133238048
:10AFAC00B378FBB123880433BB42CFD802A8FFF798
:10AFBC0047FF002840F0F58023880322EA542388B9
:10AFCC0001339BB219222380EA542388BDF8082050
:10AFDC0001339BB2E9182380EA54120A4A70238881
:10AFEC0002332380F2789AB12388D91CB942ADD8A8
:10AFFC000221E954238801339BB201212380E954B7
:10B00C0023880B449BB22380EA5423880B4423806F
:10B01C007268AAB12388D91CB94297D8022192F937
:10B02C000020E954238801339BB20A212380E95480
:10B03C00238801339BB22380EA5423880133238075
:10B04C003389002B40F0A180338A5BB1CDE90047F6
:10B05C002B460722032106F11000FFF74DFF0028B5
:10B06C0040F09F80338B5BB1CDE900472B46152216
:10B07C00142106F11800FFF73FFF002840F09180E3
:10B08C00326A002A40F09080D6F82480B8F1000F84
:10B09C0030D0B8F804302188981C8A1C0244BA427B
:10B0AC003FF654AFFE283FF651AF03336B54238861
:10B0BC0001339BB2FF222380EA54238801339BB2D5
:10B0CC002380B8F80020EA54E918120A4A70208844
:10B0DC00023080B22080B8F804205AB1D8F8081099
:10B0EC0000296BD0284400F0DBFA2388B8F8042040
:10B0FC001344238096F82C30002B40F09880307845
:10B10C0000284ED03388012B58D0228802F1020C33
:10B11C00BC453FF61BAF012805D1737802331344AD
:10B12C009F42FFF413AF023FBF1ABFB202A905EB57
:10B13C000C00ADF80870FFF785FE90BB3178BDF8B8
:10B14C000830022900F0B98072789A4202D39F42EB
:10B15C0080F0B180012940F0B280974293B2C0F0E8
:10B16C00AE80ADF808300821BDF80830FE2B3FF654
:10B17C00EDAE22880133AB542288013292B2228088
:10B18C00A9542288134423800BE0CDE900472B46B9
:10B19C000622022106F10800FFF7AEFE00283FF45C
:10B1AC0053AF05B0BDE8F08FB4F800C00CF1060346
:10B1BC00BB423FF6CBAE1188052901D80720F0E73A
:10B1CC006FF4486E01EB0E039BB24FF27D3E73455C
:10B1DC00F4D95388052BF1D96FF44860181880B254
:10B1EC007045EBD94FF6FF70814201D09942E5D8FA
:10B1FC00052305F80C30238801339BB212212380E0
:10B20C00E954238801339BB223801188E954E81850
:10B21C00090A4170238802339BB223805288EA5476
:10B22C00E918120A4A702388023323802CE7B36A88
:10B23C00002BC3D04FF000084FF00C0A4FF0160B48
:10B24C00B16A5FFA88F20AFB02F201EB0209B9F863
:10B25C000430981CFE283FF679AE208803332B541B
:10B26C00238801339BB2238005F803B02388013374
:10B27C009BB223808A5AEA54E918120A4A70208831
:10B28C00023080B22080B9F804205AB1D9F80810E5
:10B29C00002993D0284400F003FA2388B9F804203D
:10B2AC001344238096F82C2008F101085FFA88F3E8
:10B2BC009A42C5D823E7092156E79F42FBD2ADF845
:10B2CC00087050E710DF704713B50446094968460B
:10B2DC00FEF7B8FC019808B902B010BDD0E90031F6
:10B2EC002046984718B16846FEF7B6FCF2E71120E5
:10B2FC00F2E700BF08B8010013B5044607496846D9
:10B30C00FEF7A0FC019B0BB902B010BD2046D3E99F
:10B31C00002190476846FEF79FFCF3E720B8010038
:10B32C000B4991F816335A09EC231341DB0706D568
:10B33C00084B9A683AB94FF480030B60704742F29D
:10B34C000200FEF735B81A6842F480021A607047A2
:10B35C0000E100E084120020F7B5194F3C7864BB83
:10B36C00184E012520463570FFF7AEFF112821D06D
:10B37C002046FFF7C1FF144B8DF80340186801906D
:10B38C000DF10300FEF754FA104901A8FFF79AFFDC
:10B39C000446B0FA80F0400938709DF80300FEF7BF
:10B3AC006BFA3CB90A4B34701C70FFF7B9FF284696
:10B3BC00FFF7A2FF204603B0F0BD0824FAE700BF58
:10B3CC00F8130020F713002004B80100D9930100F2
:10B3DC00F9130020014B1878704700BFF8130020B8
:10B3EC0007B508496846FEF72DFC019B13B903B05D
:10B3FC005DF804FBD3E9002090476846FEF72CFC6F
:10B40C00F3E700BF14B80100FFF7EABF60DF704735
:10B41C0069DF704761DF704730B5134B1B7891B013
:10B42C00FBB1124D34240DF1020103A8ADF802401A
:10B43C00FFF7F0FF70B9294601A8FEF703FC029B49
:10B44C00002BF0D003A8D3E90021904701A8FEF708
:10B45C0003FCF4E7052804D011B0BDE83040FDF73B
:10B46C00A7BF11B030BD00BFFA1300202CB80100EB
:10B47C007FB50D46002935D000241B4A0A600623EF
:10B48C00CDE9014401268DF8040001A92020ADF876
:10B49C00083003948DF80660FFF7BAFF2A6803940E
:10B4AC0001A94020CDE90144FFF7B2FF2A680394BB
:10B4BC0001A93046CDE90144FFF7AAFFF8232A6819
:10B4CC00019301A9A120CDE90244FFF7A1FF2A684D
:10B4DC00039401A9A020CDE90144FFF799FF204670
:10B4EC0004B070BD0E20FBE71811002008B5FFF763
:10B4FC008DFF10B9014B01221A7008BDFA13002000
:10B50C004BDF70471FB50E4C01A8FFF7F9FF70B960
:10B51C00214602A8FEF796FB039B002BF4D0019862
:10B52C00D3E90021904702A8FEF796FBF4E7052823
:10B53C0004D004B0BDE81040FDF73ABF04B010BD14
:10B54C0038B8010053EA020C61D02DE9F04BB3FA84
:10B55C0083F51E0007BFB2FA82F502FA05F403FA6E
:10B56C0005F41646C5F120051EBF22FA05F73C432B
:10B57C00203556EA044C4FEA144418BF0134A34654
:10B58C004FF00009C846904271EB030C39D30942C5
:10B59C0007BFB0FA80F700FA07F6B1FA81F701FAA3
:10B5AC0007F6C7F120071EBF20FA07FC46EA0C0677
:10B5BC002037B6FBFBFC7F1B103F07F01F04C4F1C8
:10B5CC0020060CFA04F42CFA06F644BF3446002686
:10B5DC00202FA4BF2646002454EA060C08BF0124E1
:10B5EC0018EB040849EB0609A4FB027CC01B06FB04
:10B5FC0002CC04FB03CC71EB0C01904271EB030CFD
:10B60C00C5D20B46024649464046BDE8F08BB2FB1C
:10B61C00F3F200001F4B204A9B1A102B70B530D947
:10B62C001E4E044600F098F8306804F1130222F024
:10B63C000F0258B300254FF0FF34294608E003D918
:10B64C00A3423CBF05461C46036801466BB1184635
:10B65C0043689342F3D10368B1B10B60044644F8DC
:10B66C00042B00F07BF8204670BD7DB16968A31AED
:10B67C00891AEC1869600434EA5000F06FF820461F
:10B68C0070BD0024204670BD3360E7E700F066F81B
:10B69C000024E8E7FC1B0020FC130020F411002020
:10B6AC00844640EA010313F0030F18D18446202A84
:10B6BC000BD32DE9F007B1E8F807A0E8F807A2F1E1
:10B6CC002002202AF7D2BDE8F007042A07D351F84C
:10B6DC00043B40F8043BA2F10402042AF7D2002AEE
:10B6EC0005D011F8013B00F8013B013AF9D1604655
:10B6FC0070478446002A2DD010F0030F04D000F8B8
:10B70C00011B013A26D0F7E7C9B241EA012141EA0F
:10B71C000141202A12D3A2F120022DE9F0030B469D
:10B72C000C460D460E460F4688468946A0E8FA039D
:10B73C00203AFBD2BDE8F00320320BD0042A05D30B
:10B74C0040F8041B043A05D0042AF9D200F8011B76
:10B75C00013AFBD160467047704700BF704700BF8D
:08B76C0039A0010000000000FB
:08B7740041AB010000000000E0
:08B77C003DA1010000000000E6
:10B7840025B401000000000011B501000000000014
:10B794000100060000000000F811002009940100D7
:10B7A4000000000000000000000000000338FDD885
:10B7B400704700007CB701007CB701000400000062
:10B7C4000000000001010100000000000D0E0F1038
:10B7D400B11100201F000000000000000000000064
:10B7E4000000000002000009000000000100000049
:10B7F400D0070000060000006811002001000601C7
:10B80400001002017CB701007CB7010008000000B1
:10B8140084B7010094B70100080000007CB7010060
:10B8240084B701000800000074B701007CB7010070
:10B83400080000006CB7010074B7010008000000A4
:10B8440000100140110004000090D003000000002B
:10B854000000000000000000FFFFFFFFFFFFFFFFEC
:10B8640000000000000000000000000000000000D4
:10B874000000000000000000FFFFFFFFFFFFFFFFCC
:10B8840000000000000000000000000000000000B4
:10B894000000000000000000FFFFFFFFFFFFFFFFAC
:10B8A4000000000000000000000000000000000094
:10B8B400021555434C746F6F6C6400000000000067
:10B8C400000000011000C300C91300201F00000085
:10B8D4000000000000000000FF1EFF4C001219F1E0
:10B8E4000000000000000000000000000000000054
:10B8F4000000000000000000E8F94E883E89BBAC5F
:10B904000E31FEB312506954099973DA1F2714E4F7
:10B91400F5C35F21FFBBCCDDEEFF0000FC1300206C
:0400000310009375E1
:00000001FF
